:020000040800F2
:1000000000000520257A000805350008073500089E
:10001000093500080B3500080D3500080000000008
:10002000000000000000000000000000C15F0008A8
:100030000F3500080000000061600008C56000087E
:10004000757A0008757A0008757A0008757A0008D4
:10005000757A0008757A0008757A0008757A0008C4
:10006000757A0008757A0008757A0008757A0008B4
:1000700011350008757A0008757A0008757A00084D
:100080002135000831350008757A0008757A0008B6
:1000900041350008757A0008757A0008757A0008FD
:1000A000757A0008953A0008757A0008757A000894
:1000B00051350008757A0008757A0008757A0008CD
:1000C000757A0008757A0008757A0008757A000854
:1000D000757A0008757A0008757A0008757A000844
:1000E000757A0008757A0008757A0008757A000834
:1000F000757A0008757A0008757A0008757A000824
:10010000757A0008757A0008757A0008757A000813
:10011000757A0008757A0008757A0008613500085C
:10012000757A0008757A0008753A0008757A000833
:10013000757A0008757A0008757A0008757A0008E3
:10014000757A000871350008757A0008757A00081C
:10015000757A0008757A0008757A0008757A0008C3
:10016000757A0008757A0008757A000881350008EC
:10017000757A0008757A0008000000000000000091
:10018000757A0008757A0008757A0008757A000893
:10019000757A0008757A000800000000757A00087A
:1001A000757A0008757A0008000000000000000061
:1001B000757A00080000000000000000757A000851
:1001C000757A0008757A0008757A0008757A000853
:0801D000757A0008757A000839
:1001E000044B05481B1A062B02D9044B03B11847D0
:1001F000704700BF7F0000207C000020000000004E
:1002000005490648091A891001EBD171491002D03D
:10021000034B03B1184770477C0000207C0000208E
:100220000000000010B5064C237843B9FFF7D8FF53
:10023000044B13B10448AFF300800123237010BDB9
:100240007C00002000000000787A000808B5084B08
:100250001BB108490848AFF300800848036813B988
:10026000BDE80840CCE7064B002BF9D09847F7E7EC
:100270000000000080000020787A00087C00002048
:100280000000000070B50F4E0F4D761BB61018BF62
:10029000002405D0013455F8043B9847A642F9D113
:1002A0000A4E0B4D761B07F0E7FBB61018BF002473
:1002B00006D0013455F8043B9847A642F9D170BDE9
:1002C00070BD00BFE07D0008E07D0008E47D00080F
:1002D000E07D0008844641EA000313F003036DD17A
:1002E000403A41D351F8043B40F8043B51F8043BF9
:1002F00040F8043B51F8043B40F8043B51F8043B00
:1003000040F8043B51F8043B40F8043B51F8043BEF
:1003100040F8043B51F8043B40F8043B51F8043BDF
:1003200040F8043B51F8043B40F8043B51F8043BCF
:1003300040F8043B51F8043B40F8043B51F8043BBF
:1003400040F8043B51F8043B40F8043B51F8043BAF
:1003500040F8043B51F8043B40F8043B51F8043B9F
:1003600040F8043B403ABDD2303211D351F8043B3F
:1003700040F8043B51F8043B40F8043B51F8043B7F
:1003800040F8043B51F8043B40F8043B103AEDD2EE
:100390000C3205D351F8043B40F8043B043AF9D23F
:1003A000043208D0D2071CBF11F8013B00F8013B12
:1003B00001D30B8803806046704700BF082A13D31F
:1003C0008B078DD010F003038AD0C3F10403D21A37
:1003D000DB071CBF11F8013B00F8013B80D331F86B
:1003E000023B20F8023B7BE7043AD9D3013A11F8EB
:1003F000013B00F8013BF9D20B7803704B78437056
:100400008B7883706046704770B4860746D0541E60
:10041000002A41D0CAB2034602E014F1FF343BD3B4
:1004200003F8012B9D07F8D1032C2ED9CDB245EA54
:1004300005250F2C45EA054519D903F1100226467A
:10044000103E0F2E42F8105C42F80C5C42F8085C3B
:1004500042F8045C02F11002F2D8A4F1100222F07A
:100460000F0204F00F041032032C13440DD91E4662
:100470002246043A032A46F8045BFAD8221F22F0E7
:1004800003020432134404F003042CB1C9B21C4427
:1004900003F8011B9C42FBD170BC70471446034615
:1004A000C2E700BF00000000F8B5144B1C68A36B46
:1004B00005461BB100221D615A61F8BD182000F0ED
:1004C00065F801220023A063C0E9042343F20E3340
:1004D00003800B2383810522034642814AF6CD37F0
:1004E00041F234264EF26D644DF6EC6100224780F5
:1004F0008680C48001811D615A61F8BD0000002022
:10050000F8B51F4B1C68A16B91B10A691D484B6976
:100510001D4C00FB02F004FB0300A2FB042301328C
:10052000034443F1000323F00040C1E90423F8BD74
:10053000182000F02BF810A3D3E900230146A06394
:100540000126002743F20E354AF6CD34C0E9046790
:1005500041F234204EF26D674DF6EC660D804C8012
:1005600005250B248880CF8006480E814D818C8123
:10057000C1E90423F8BD00BF2E7F954C2DF45158DE
:10058000000000202DF451582D7F954C024B014660
:10059000186800F053B800BF00000020024B01466D
:1005A000186800F003B800BF0000002091B151F8B6
:1005B000043C0439002BB8BFC9181F4B1A68FAB1A4
:1005C0008A4230B40AD908680C18A24226D04A6080
:1005D000196030BC70478B4203D81A465368002B11
:1005E000F9D1146815198D420DD006D808680C1879
:1005F0009C4219D04B605160EBE70C230360E8E7A5
:100600004A601960704709680C44111999421460D6
:10061000DFD10ACB0C4453601460DAE714685268E7
:100620004A6020440860D3E71C685B684B60204444
:1006300008605160CDE700BF9800002070B5CC1C69
:1006400024F0030408340C2C38BF0C24002C06467C
:100650003BDBA14239D8274D296851B10A68121BEA
:1006600004D436E01A68121B1AD519464B68002BC1
:10067000F8D16968002937D02146304600F03CF8AF
:10068000431C22D0C31C23F00305A84205D0291A1D
:10069000304600F031F8013017D02C602B4604E0D2
:1006A0000B2A0DD91A6013441C6003F10B0020F0D3
:1006B00007001A1D821A02D05142995070BD70BDB8
:1006C0008B420ED05A684A60EFE70C23336000205B
:1006D00070BD0B2A03D84A680B462A60E5E70B4633
:1006E000E0E70A460B46F8E7304600F005F8686098
:1006F000C2E700BF9800002038B5074C002305462C
:100700000846236000F00AF8431C00D038BD236877
:10071000002BFBD02B6038BDCC530020044A054988
:100720001368002B08BF0B4618441060184670472A
:10073000A0000020D053002081F0004102E000BF63
:1007400083F0004330B54FEA41044FEA430594EA91
:10075000050F08BF90EA020F1FBF54EA000C55EACC
:10076000020C7FEA645C7FEA655C00F0E2804FEA9D
:100770005454D4EB5555B8BF6D420CDD2C4480EA7F
:10078000020281EA030382EA000083EA010180EAAF
:10079000020281EA0303362D88BF30BD11F0004FFD
:1007A0004FEA01314FF4801C4CEA113102D0404233
:1007B00061EB410113F0004F4FEA03334CEA13336E
:1007C00002D0524263EB430394EA050F00F0A78086
:1007D000A4F10104D5F1200E0DDB02FA0EFC22FA81
:1007E00005F2801841F1000103FA0EF2801843FA75
:1007F00005F359410EE0A5F120050EF1200E012A66
:1008000003FA0EFC28BF4CF0020C43FA05F3C018A3
:1008100051EBE37101F0004507D54FF0000EDCF11C
:10082000000C7EEB00006EEB0101B1F5801F1BD3C5
:10083000B1F5001F0CD349085FEA30004FEA3C0CC9
:1008400004F101044FEA445212F5800F80F09A80BF
:10085000BCF1004F08BF5FEA500C50F1000041EBC3
:10086000045141EA050130BD5FEA4C0C404141EBC7
:10087000010111F4801FA4F10104E9D191F0000FEE
:1008800004BF01460020B1FA81F308BF2033A3F171
:100890000B03B3F120020CDA0C3208DD02F1140C68
:1008A000C2F10C0201FA0CF021FA02F10CE002F1A3
:1008B0001402D8BFC2F1200C01FA02F120FA0CFC9C
:1008C000DCBF41EA0C019040E41AA2BF01EB0451E5
:1008D000294330BD6FEA04041F3C1CDA0C340EDCE3
:1008E00004F11404C4F1200220FA04F001FA02F326
:1008F00040EA030021FA04F345EA030130BDC4F1E4
:100900000C04C4F1200220FA02F001FA04F340EAD8
:100910000300294630BD21FA04F0294630BD94F089
:10092000000F83F4801306BF81F480110134013D70
:100930004EE77FEA645C18BF7FEA655C29D094EAE1
:10094000050F08BF90EA020F05D054EA000C04BF5F
:100950001946104630BD91EA030F1EBF002100204A
:1009600030BD5FEA545C05D14000494128BF41F0E9
:10097000004130BD14F580043CBF01F5801130BD4D
:1009800001F0004545F0FE4141F470014FF00000D8
:1009900030BD7FEA645C1ABF194610467FEA655C89
:1009A0001CBF0B46024650EA013406BF52EA03352B
:1009B00091EA030F41F4002130BD00BF90F0000F19
:1009C00004BF0021704730B54FF4806404F1320455
:1009D0004FF000054FF0000150E700BF90F0000F0E
:1009E00004BF0021704730B54FF4806404F1320435
:1009F00010F0004548BF40424FF000013EE700BF05
:100A000042004FEAE2014FEA31014FEA02701FBF94
:100A100012F07F4393F07F4F81F06051704792F066
:100A2000000F14BF93F07F4F704730B54FF46074E0
:100A300001F0004521F0004120E700BF50EA01022B
:100A400008BF704730B54FF000050AE050EA0102D8
:100A500008BF704730B511F0004502D5404261EB48
:100A600041014FF4806404F132045FEA915C3FF489
:100A7000DCAE4FF003025FEADC0C18BF03325FEA22
:100A8000DC0C18BF033202EBDC02C2F1200300FAD7
:100A900003FC20FA02F001FA03FE40EA0E0021FAFC
:100AA00002F11444C1E600BF70B54FF0FF0C4CF4E6
:100AB000E06C1CEA11541DBF1CEA135594EA0C0F9C
:100AC00095EA0C0F00F0DEF82C4481EA030621EAD7
:100AD0004C5123EA4C5350EA013518BF52EA033512
:100AE00041F4801143F4801338D0A0FB02CE4FF0C4
:100AF0000005E1FB02E506F00042E0FB03E54FF0F4
:100B00000006E1FB03569CF0000F18BF4EF0010EEB
:100B1000A4F1FF04B6F5007F64F5407404D25FEAE7
:100B20004E0E6D4146EB060642EAC62141EA55519A
:100B30004FEAC52040EA5E504FEACE2EB4F1FD0CDC
:100B400088BFBCF5E06F1ED8BEF1004F08BF5FEA5A
:100B5000500E50F1000041EB045170BD06F000460C
:100B600046EA010140EA020081EA0301B4EB5C04B9
:100B7000C2BFD4EB0C0541EA045170BD41F48011B1
:100B80004FF0000E013C00F3AB8014F1360FDEBFD6
:100B9000002001F0004170BDC4F10004203C35DAB2
:100BA0000C341BDC04F11404C4F1200500FA05F335
:100BB00020FA04F001FA05F240EA020001F00042D6
:100BC00021F0004110EBD37021FA04F642EB06014C
:100BD0005EEA430E08BF20EAD37070BDC4F10C0476
:100BE000C4F1200500FA04F320FA05F001FA04F23A
:100BF00040EA020001F0004110EBD37041F1000126
:100C00005EEA430E08BF20EAD37070BDC4F1200530
:100C100000FA05F24EEA020E20FA04F301FA05F298
:100C200043EA020321FA04F001F0004121FA04F240
:100C300020EA020000EBD3705EEA430E08BF20EA10
:100C4000D37070BD94F0000F0FD101F0004640004A
:100C500041EB010111F4801F08BF013CF7D041EACC
:100C6000060195F0000F18BF704703F000465200D0
:100C700043EB030313F4801F08BF013DF7D043EAA1
:100C80000603704794EA0C0F0CEA135518BF95EA57
:100C90000C0F0CD050EA410618BF52EA4306D1D1DE
:100CA00081EA030101F000414FF0000070BD50EAFD
:100CB000410606BF1046194652EA430619D094EA87
:100CC0000C0F02D150EA013613D195EA0C0F05D171
:100CD00052EA03361CBF104619460AD181EA0301C5
:100CE00001F0004141F0FE4141F470014FF000007D
:100CF00070BD41F0FE4141F4780170BD70B54FF018
:100D0000FF0C4CF4E06C1CEA11541DBF1CEA135597
:100D100094EA0C0F95EA0C0F00F0A7F8A4EB050479
:100D200081EA030E52EA03354FEA013100F0888070
:100D30004FEA03334FF0805545EA131343EA126339
:100D40004FEA022245EA111545EA10654FEA0026EE
:100D50000EF000419D4208BF964244F1FD0404F5A7
:100D6000407402D25B084FEA3202B61A65EB030503
:100D70005B084FEA32024FF480104FF4002CB6EBC0
:100D8000020E75EB030E22BFB61A754640EA0C0040
:100D90005B084FEA3202B6EB020E75EB030E22BF80
:100DA000B61A754640EA5C005B084FEA3202B6EBC1
:100DB000020E75EB030E22BFB61A754640EA9C0080
:100DC0005B084FEA3202B6EB020E75EB030E22BF50
:100DD000B61A754640EADC0055EA060E18D04FEA0E
:100DE000051545EA16754FEA06164FEAC30343EAAE
:100DF00052734FEAC2025FEA1C1CC0D111F4801F7B
:100E00000BD141EA00014FF000004FF0004CB6E773
:100E100011F4801F04BF01430020B4F1FD0C88BF12
:100E2000BCF5E06F3FF6AFAEB5EB030C04BFB6EB1D
:100E3000020C5FEA500C50F1000041EB045170BD10
:100E40000EF0004E4EEA113114EB5C04C2BFD4EB3D
:100E50000C0541EA045170BD41F480114FF0000EC1
:100E6000013C90E645EA060E8DE60CEA135594EA3D
:100E70000C0F08BF95EA0C0F3FF43BAF94EA0C0F40
:100E80000AD150EA01347FF434AF95EA0C0F7FF4B5
:100E900025AF104619462CE795EA0C0F06D152EA09
:100EA00003353FF4FDAE1046194622E750EA4106ED
:100EB00018BF52EA43067FF4C5AE50EA41047FF4FE
:100EC0000DAF52EA43057FF4EBAE12E74A0011D2B0
:100ED00012F5001211D20DD56FF47873B3EB625294
:100EE0000ED44FEAC12343F0004343EA505323FAA0
:100EF00002F070474FF00000704750EA013002D115
:100F00004FF0FF3070474FF00000704753B94AB9B7
:100F1000002908BF00281CBF4FF0FF314FF0FF3001
:100F200000F07AB9ADF1080C6DE904CE00F006F8D6
:100F3000DDF804E0DDE9022304B070472DE9F04755
:100F40008C460D460446089E002B51D18A42174616
:100F50006DD9B2FA82FEBEF1000F0BD0CEF1200C9B
:100F600001FA0EF520FA0CFC02FA0EF74CEA050C19
:100F700000FA0EF44FEA174A250CBCFBFAF81FFAE8
:100F800087F90AFB18CC45EA0C4508FB09F3AB428C
:100F90000AD9ED1908F1FF3280F02381AB4240F20B
:100FA0002081A8F102083D44ED1AA4B2B5FBFAF085
:100FB0000AFB105544EA054400FB09F9A14509D98B
:100FC000E41900F1FF3380F00A81A14540F2078166
:100FD00002383C44A4EB090440EA08400021002EFA
:100FE00061D024FA0EF4002334607360BDE8F0870A
:100FF0008B4207D9002E54D0002186E821000846F4
:10100000BDE8F087B3FA83F1002940F08E80AB424F
:1010100002D3824200F2FA80841A65EB03050120B4
:10102000AC46002E3FD086E81010BDE8F08712B91C
:101030000127B7FBF2F7B7FA87FEBEF1000F34D1F4
:10104000EB1B3A0C1FFA87FC0121B3FBF2F8250CCD
:1010500002FB183345EA03450CFB08F3AB4207D902
:10106000ED1908F1FF3002D2AB4200F2D180804688
:10107000ED1AA3B2B5FBF2F002FB105543EA0544AA
:101080000CFB00FCA44507D9E41900F1FF3302D2A0
:10109000A44500F2B8801846A4EB0C0440EA0840CE
:1010A0009DE731463046BDE8F087CEF1200405FAD1
:1010B0000EF307FA0EF720FA04F83A0C25FA04F4B6
:1010C00048EA0308B4FBF2F14FEA184502FB114469
:1010D0001FFA87FC45EA044501FB0CF3AB4200FA1A
:1010E0000EF409D9ED1901F1FF3080F08A80AB428E
:1010F00040F2878002393D44EB1A1FFA88F5B3FBB2
:10110000F2F002FB103345EA034500FB0CF3AB425F
:1011100007D9ED1900F1FF386FD2AB426DD9023813
:101120003D44EB1A40EA01418FE7C1F1200722FA62
:1011300007F88B4005FA01F448EA030320FA07FE9A
:101140004FEA134CFD404EEA040EB5FBFCF94FEAA2
:101150001E440CFB19551FFA83F844EA054509FBA8
:1011600008F4AC4202FA01F200FA01FA08D9ED18CB
:1011700009F1FF3043D2AC4241D9A9F102091D4423
:101180002D1B1FFA8EFEB5FBFCF00CFB10554EEA32
:10119000054400FB08F8A04507D9E41800F1FF3525
:1011A00029D2A04527D902381C4440EA0940A4EBC3
:1011B0000804A0FB02894C45C6464D4615D312D003
:1011C00056B1BAEB0E0364EB050404FA07F7CB4003
:1011D0001F43CC40376074600021BDE8F08718469B
:1011E000F8E69046E0E6C245EAD2B8EB020E69EBBB
:1011F00003050138E4E72846D7E7404691E78146F2
:10120000BEE7014678E702383C4445E7084608E770
:10121000A8F102083D442BE7704700BFB0F8E62074
:1012200092B2A2F6485202EB82021301054A82FBF7
:101230000312DB17C3EB22230A33DBB280F8F3304F
:10124000704700BF91739F5D0023A0F8E43000E079
:1012500001335F2B0DD830F8131089B2B0F8E420B9
:1012600092B29142F4D930F8132092B2A0F8E4205F
:10127000EEE770470023A0F8EA3000E001330F2BBF
:1012800011D803F1600230F8121089B2B0F8EA20E8
:1012900092B29142F2D903F1600230F8122092B278
:1012A000A0F8EA20EAE7704744F62063A0F8EC30A3
:1012B000002300E001330F2B18D803F1600230F84F
:1012C000122092B2002AF5D003F1600230F8121019
:1012D00089B2B0F8EC2092B29142EBD203F16002F5
:1012E00030F8122092B2A0F8EC20E3E7704710B477
:1012F000002319461C4606E003F1600230F8122074
:1013000011FA82F101330F2B08D803F1600230F893
:10131000122092B2002AEFD10134EDE7C4F110049B
:1013200091FBF4F189B2A0F8EE105DF8044B704720
:10133000B0F8EA309BB2B0F8EC2092B29B1A9BB2A4
:10134000A0F8F0307047B0F8E4309BB2B0F8E2207B
:1013500092B29B1A9BB2A0F8E830704741F28833F2
:10136000A0F8E230002300E001335F2B0DD830F805
:10137000131089B2B0F8E22092B29142F4D230F860
:10138000132092B2A0F8E220EEE7704700231A463D
:1013900004E030F8131012FA81F201335F2BF8D910
:1013A000044981FB0231D317C3EB21139BB2A0F890
:1013B000E6307047ABAAAA2A00231A4604E030F8A8
:1013C000131012FA81F201335F2BF8D9034BA3FB00
:1013D0000223C3F3CF03A0F8E0307047CDCCCCCCD0
:1013E00010B400231C4600E001335F2B08D830F80E
:1013F000132092B2B2F5FA7FF6D90134A4B2F3E722
:10140000602C0CD0074A136801331360052B06DDEE
:10141000F622054B02FB0131042381F8F2305DF81E
:10142000044B7047A4000020B449002010B40021F0
:101430001BE0C1EB4113C1EB8303134400241E489E
:1014400020F8134001325F2AF3D900220AE0C1EBF1
:101450004113C1EB8303134460330024164820F882
:10146000134001320F2AF2D90131012919D8F6238C
:10147000114A03FB0123002283F8F220A3F8E8209D
:10148000A3F8EA2083F8F420A3F8E420A3F8E220EC
:10149000A3F8EC20A3F8E02083F8F320A3F8F020D1
:1014A000D1E70023054A1370054A1370054A1360FB
:1014B0005DF8044B704700BFB4490020104C002079
:1014C000DC4C0020A400002008B590F8F230DBB21C
:1014D000042B57D8DFE803F0030A564354000023D7
:1014E00080F8F430012380F8F23008BD002380F842
:1014F000F430B0F8E6309BB240F60A72934219D944
:10150000B0F8E4309BB2B0F8E22092B29B1A142BF0
:1015100003DD012380F8F5300FE0B0F8E4309BB232
:10152000B0F8E22092B29B1A052B06DC002380F86B
:10153000F53002E0002380F8F530B0F8E4309BB2DB
:1015400040F6B37293421DD8B0F8E2309BB240F639
:101550005432934216D9032380F8F23008BD002399
:1015600080F8F530012380F8F430B0F8E4309BB215
:1015700041F25402934205D9012380F8F23008BDAC
:1015800003F014F908BD000000B583B01E4B1B78B2
:10159000FBB940238DF8003000238DF80130202264
:1015A0008DF8022009228DF803208DF804308DF883
:1015B00005308DF806308DF807306A46082140F274
:1015C000056001F09DFA012002F082FC03B05DF895
:1015D00004FB40238DF8003000238DF801302022D9
:1015E0008DF8022009218DF803108DF804208DF864
:1015F00005308DF806308DF807306A46082140F234
:10160000056001F07DFADEE7DC4C002010B584B007
:101610002D4CB4F8E0308DF80830B4F8E030C3F366
:1016200007238DF80930B4F8EE308DF80A30B4F89D
:10163000EE30C3F307238DF80B30B4F8E8308DF8A3
:101640000C30B4F8E830C3F307238DF80D3094F86C
:10165000F3308DF80E3094F8F5308DF80F3002AA83
:1016600008214FF49C7001F04BFAB4F8D6318DF894
:101670000030B4F8D631C3F307238DF80130B4F845
:10168000E4318DF80230B4F8E431C3F307238DF868
:101690000330B4F8DE318DF80430B4F8DE31C3F332
:1016A00007238DF8053094F8E9318DF8063094F869
:1016B000EB318DF807306A46082140F2391001F00D
:1016C0001FFA04B010BD00BFB449002038B5002592
:1016D00026E0154BF62404FB05342046FFF76CFE8C
:1016E0002046FFF753FE2046FFF738FE2046FFF75F
:1016F000ABFD2046FFF727FE2046FFF7D5FD20462D
:10170000FFF7B8FD2046FFF7F2FD2046FFF710FE79
:1017100029462046FFF764FE2046FFF77FFD01358E
:10172000012DD6D938BD00BFB449002000B583B023
:1017300002238DF8043000238DF805308DF8063033
:1017400020B1012809D003B05DF804FB01AA0321F0
:101750004FF4007001F0B4F9F5E701AA03214FF44A
:10176000007001F0F5F9EEE790F8F53003B170473D
:1017700010B582B00C460846FFF7D8FF002305E0FD
:1017800002AA1A44002002F8080C0133072BF7D9EB
:101790001CB1012C08D0002313E06A4608214FF445
:1017A000407001F08DF9F6E76A4608214FF4407069
:1017B00001F0CEF9EFE702AA1A44002002F8080C63
:1017C0000133042BF7D91CB1012C08D002B010BD95
:1017D0006A4605214FF4447001F072F9F6E76A4653
:1017E00005214FF4447001F0B3F9EFE730B583B051
:1017F00004460D460846FFF799FF6DB1012D5ED0F6
:1018000003B030BD02AA1A44002102F8081C0133BB
:10181000072BF7D9002302E00023F9E701333D2B22
:1018200013D8B4F8E61089B234F8132092B291427A
:10183000F4D2474AD25C4749C95C02A8024412F874
:10184000080C014302F8081CE8E76A4608214FF437
:10185000407001F035F9002305E002AA1A44002186
:1018600002F8081C0133072BF7D93E2300E00133AF
:101870005F2B13D8B4F8E61089B234F8132092B273
:101880009142F4D2324AD25C3249C95C02A8024485
:1018900012F8080C014302F8081CE8E76A46052123
:1018A0004FF4447001F00CF9AAE702AA1A4400218F
:1018B00002F8081C0133072BF7D9002302E00023AC
:1018C000F9E701333D2B13D8B4F8E61089B234F8A8
:1018D000132092B29142F4D21D4AD25C1D49C95CD8
:1018E00002A8024412F8080C014302F8081CE8E7B9
:1018F0006A4608214FF4407001F02AF9002305E000
:1019000002AA1A44002102F8081C0133072BF7D958
:101910003E2300E001335F2B13D8B4F8E61089B200
:1019200034F8132092B29142F4D2094AD25C0949A8
:10193000C95C02A8024412F8080C014302F8081C12
:10194000E8E76A4605214FF4447001F001F957E7D2
:10195000907A0008F07A0008704700000F4B93F867
:10196000F43033B10D4B93F8EA3113B101220C4B33
:101970001A700B4B1B7883B1084B93F8F4301BB1F2
:10198000064B93F8EA3143B90022054B1A70034B1A
:10199000012283F8F22083F8E8217047B44900203F
:1019A000DC4C002038B5054614460B68A3F58C6363
:1019B0001E2B00F28286DFE813F01F008100030176
:1019C0008701090291021D038006A7033104BD04AB
:1019D00080064705AF05170680065000C200440187
:1019E000C8014C02D60262038006EC0376040205AD
:1019F00080067B05E3054D0623781B0203F4706324
:101A000060781844FEF7EAFF0022AE4BFFF74CF86F
:101A1000FFF75CFA80B22880A3781B0203F470639E
:101A2000E0781844FEF7DAFF0022A64BFFF73CF8F7
:101A3000FFF74CFA80B2688023791B0203F47063CD
:101A400060791844FEF7CAFF00229E4BFFF72CF87E
:101A5000FFF73CFA80B2A88038BD23781B0203F45C
:101A6000706360781844FEF7B9FF0022954BFFF7CA
:101A70001BF8FFF72BFA80B2E880A3781B0203F46F
:101A80007063E0781844FEF7A9FF00228D4BFFF742
:101A90000BF8FFF71BFA80B2288123791B0203F4AD
:101AA000706360791844FEF799FF0022854BFEF7BA
:101AB000FBFFFFF70BFA80B2688138BD23781B0269
:101AC00003F4706360781844FEF788FF00227D4BB2
:101AD000FEF7EAFFFFF7FAF980B2A881A3781B02AC
:101AE00003F47063E0781844FEF778FF0022754B2A
:101AF000FEF7DAFFFFF7EAF980B2E88123791B02EB
:101B000003F4706360791844FEF768FF00226D4BA0
:101B1000FEF7CAFFFFF7DAF980B22882A3791B0229
:101B200003F47063E0791844FEF758FF0022654B18
:101B3000FEF7BAFFFFF7CAF980B2688238BD237892
:101B40001B0203F4706360781844FEF747FF00221D
:101B50005C4BFEF7A9FFFFF7B9F980B2A882A37822
:101B60001B0203F47063E0781844FEF737FF00228D
:101B7000544BFEF799FFFFF7A9F980B2E882237969
:101B80001B0203F4706360791844FEF727FF0022FC
:101B90004C4BFEF789FFFFF799F980B22883A379B0
:101BA0001B0203F47063E0791844FEF717FF00226C
:101BB000444BFEF779FFFFF789F980B2688338BD9F
:101BC00023781B0203F4706360781844FEF706FF65
:101BD00000223C4BFEF768FFFFF778F980B2A8833C
:101BE000A3781B0203F47063E0781844FEF7F6FE56
:101BF0000022344BFEF758FFFFF768F980B2E88304
:101C000023791B0203F4706360791844FEF7E6FE43
:101C100000222C4BFEF748FFFFF758F980B22884CA
:101C2000A3791B0203F47063E0791844FEF7D6FE33
:101C30000022244BFEF738FFFFF748F980B2688492
:101C400038BD23781B0203F4706360781844FEF7F4
:101C5000C5FE00221B4BFEF727FFFFF737F980B2C6
:101C6000A884A3781B0203F47063E0781844FEF79D
:101C7000B5FE0022134BFEF717FFFFF727F980B2DE
:101C8000E88423791B0203F4706360791844FEF73B
:101C9000A5FE00220B4BFEF707FFFFF717F980B2F6
:101CA0002885A3791B0203F47063E0791844FEF7DA
:101CB00095FE0022034BFEF7F7FEFFF707F980B20F
:101CC000688538BD0000F43F23781B0203F470637D
:101CD00060781844FEF782FE0022C54BFEF7E4FE52
:101CE000FFF7F4F880B2A885A3781B0203F47063B1
:101CF000E0781844FEF772FE0022BD4BFEF7D4FEDA
:101D0000FFF7E4F880B2E88523791B0203F47063DF
:101D100060791844FEF762FE0022B54BFEF7C4FE60
:101D2000FFF7D4F880B22886A3791B0203F470630E
:101D3000E0791844FEF752FE0022AD4BFEF7B4FEE8
:101D4000FFF7C4F880B2688638BD23781B0203F41D
:101D5000706360781844FEF741FE0022A44BFEF742
:101D6000A3FEFFF7B3F880B2A886A3781B0203F4A2
:101D70007063E0781844FEF731FE00229C4BFEF7BA
:101D800093FEFFF7A3F880B2E88623791B0203F4E1
:101D9000706360791844FEF721FE0022944BFEF731
:101DA00083FEFFF793F880B22887A3791B0203F420
:101DB0007063E0791844FEF711FE00228C4BFEF7A9
:101DC00073FEFFF783F880B2688738BD23781B0263
:101DD00003F4706360781844FEF700FE0022844B21
:101DE000FEF762FEFFF772F880B2A887A3781B02A5
:101DF00003F47063E0781844FEF7F0FD00227C4B9A
:101E0000FEF752FEFFF762F880B2E88723791B02E3
:101E100003F4706360791844FEF7E0FD0022744B10
:101E2000FEF742FEFFF752F880B2A5F84000A37912
:101E30001B0203F47063E0791844FEF7CFFD002223
:101E40006B4BFEF731FEFFF741F880B2A5F8420078
:101E500038BD23781B0203F4706360781844FEF7E2
:101E6000BDFD0022624BFEF71FFEFFF72FF880B288
:101E7000A5F84400A3781B0203F47063E0781844CB
:101E8000FEF7ACFD00225A4BFEF70EFEFFF71EF8E0
:101E900080B2A5F8460023791B0203F470636079D1
:101EA0001844FEF79BFD0022514BFEF7FDFDFFF7A6
:101EB0000DF880B2A5F84800A3791B0203F4706303
:101EC000E0791844FEF78AFD0022494BFEF7ECFD4D
:101ED000FEF7FCFF80B2A5F84A0038BD23781B024C
:101EE00003F4706360781844FEF778FD0022404BDD
:101EF000FEF7DAFDFEF7EAFF80B2A5F84C00A37802
:101F00001B0203F47063E0781844FEF767FD0022BB
:101F1000374BFEF7C9FDFEF7D9FF80B2A5F84E009A
:101F200023791B0203F4706360791844FEF756FDB1
:101F300000222F4BFEF7B8FDFEF7C8FF80B2A5F8D0
:101F40005000A3791B0203F47063E0791844FEF794
:101F500045FD0022264BFEF7A7FDFEF7B7FF80B236
:101F6000A5F8520038BD23781B0203F47063607833
:101F70001844FEF733FD00221D4BFEF795FDFEF7DA
:101F8000A5FF80B2A5F85400A3781B0203F4706388
:101F9000E0781844FEF722FD0022154BFEF784FD81
:101FA000FEF794FF80B2A5F8560023791B0203F4D4
:101FB000706360791844FEF711FD00220C4BFEF7A8
:101FC00073FDFEF783FF80B2A5F85800A3791B02CA
:101FD00003F47063E0791844FEF700FD0022044B1F
:101FE000FEF762FDFEF772FF80B2A5F85A0038BD19
:101FF0000000F43F23781B0203F4706360781844F8
:10200000FEF7ECFC0022CA4BFEF74EFDFEF75EFF2A
:1020100080B2A5F85C00A3781B0203F47063E0783B
:102020001844FEF7DBFC0022C14BFEF73DFDFEF736
:102030004DFF80B2A5F85E0023791B0203F47063A4
:1020400060791844FEF7CAFC0022B94BFEF72CFD5C
:10205000FEF73CFF80B2A5F86000A3791B0203F4F1
:102060007063E0791844FEF7B9FC0022B04BFEF72C
:102070001BFDFEF72BFF80B2A5F8620038BD237868
:102080001B0203F4706360781844FEF7A7FC00227B
:10209000A74BFEF709FDFEF719FF80B2A5F8640013
:1020A000A3781B0203F47063E0781844FEF796FCF3
:1020B00000229F4BFEF7F8FCFEF708FF80B2A5F860
:1020C000660023791B0203F4706360791844FEF7FD
:1020D00085FC0022964BFEF7E7FCFEF7F7FE80B288
:1020E000A5F86800A3791B0203F47063E079184433
:1020F000FEF774FC00228E4BFEF7D6FCFEF7E6FEE0
:1021000080B2A5F86A0038BD23781B0203F470631F
:1021100060781844FEF762FC0022854BFEF7C4FC91
:10212000FEF7D4FE80B2A5F86C00A3781B0203F47E
:102130007063E0781844FEF751FC00227C4BFEF7F8
:10214000B3FCFEF7C3FE80B2A5F86E0023791B0234
:1021500003F4706360791844FEF740FC0022744B6E
:10216000FEF7A2FCFEF7B2FE80B2A5F87000A379DC
:102170001B0203F47063E0791844FEF72FFC002281
:102180006B4BFEF791FCFEF7A1FE80B2A5F8720042
:1021900038BD23781B0203F4706360781844FEF79F
:1021A0001DFC0022624BFEF77FFCFEF78FFE80B223
:1021B000A5F87400A3781B0203F47063E078184458
:1021C000FEF70CFC00225A4BFEF76EFCFEF77EFE7B
:1021D00080B2A5F8760023791B0203F4706360795E
:1021E0001844FEF7FBFB0022514BFEF75DFCFEF7A7
:1021F0006DFE80B2A5F87800A3791B0203F470632A
:10220000E0791844FEF7EAFB0022494BFEF74CFC4C
:10221000FEF75CFE80B2A5F87A0038BD23781B0279
:1022200003F4706360781844FEF7D8FB0022404B3B
:10223000FEF73AFCFEF74AFE80B2A5F87C00A378D0
:102240001B0203F47063E0781844FEF7C7FB00221A
:10225000374BFEF729FCFEF739FE80B2A5F87E0069
:1022600023791B0203F4706360791844FEF7B6FB10
:1022700000222F4BFEF718FCFEF728FE80B2A5F8CF
:102280008000A3791B0203F47063E0791844FEF721
:10229000A5FB0022264BFEF707FCFEF717FE80B2D7
:1022A000A5F8820038BD23781B0203F470636078C0
:1022B0001844FEF793FB00221D4BFEF7F5FBFEF7DB
:1022C00005FE80B2A5F88400A3781B0203F47063B6
:1022D000E0781844FEF782FB0022154BFEF7E4FB82
:1022E000FEF7F4FD80B2A5F8860023791B0203F403
:1022F000706360791844FEF771FB00220C4BFEF707
:10230000D3FBFEF7E3FD80B2A5F88800A3791B029A
:1023100003F47063E0791844FEF760FB0022044B7D
:10232000FEF7C2FBFEF7D2FD80B2A5F88A0038BDE9
:102330000000F43F23781B0203F4706360781844B4
:10234000FEF74CFB0022C24BFEF7AEFBFEF7BEFDD4
:1023500080B2A5F88C00A3781B0203F47063E078C8
:102360001844FEF73BFB0022B94BFEF79DFBFEF73E
:10237000ADFD80B2A5F88E0023791B0203F47063D3
:1023800060791844FEF72AFB0022B14BFEF78CFB64
:10239000FEF79CFD80B2A5F89000A3791B0203F420
:1023A0007063E0791844FEF719FB0022A84BFEF792
:1023B0007BFBFEF78BFD80B2A5F8920038BD237839
:1023C0001B0203F4706360781844FEF707FB0022D9
:1023D0009F4BFEF769FBFEF779FD80B2A5F89400EC
:1023E000A3781B0203F47063E0781844FEF7F6FA52
:1023F0000022974BFEF758FBFEF768FD80B2A5F868
:10240000960023791B0203F4706360791844FEF789
:10241000E5FA00228E4BFEF747FBFEF757FD80B230
:10242000A5F89800A3791B0203F47063E0791844BF
:10243000FEF7D4FA0022864BFEF736FBFEF746FD88
:1024400080B2A5F89A0038BD23781B0203F47063AC
:1024500060781844FEF7C2FA00227D4BFEF724FB99
:10246000FEF734FD80B2A5F89C00A3781B0203F4AC
:102470007063E0781844FEF7B1FA0022744BFEF75F
:1024800013FBFEF723FD80B2A5F89E0023791B0203
:1024900003F4706360791844FEF7A0FA00226C4BD5
:1024A000FEF702FBFEF712FD80B2A5F8A00038BDD2
:1024B00023781B0203F4706360781844FEF78EFAE9
:1024C0000022634BFEF7F0FAFEF700FD80B2A5F89C
:1024D000A200A3781B0203F47063E0781844FEF7AF
:1024E0007DFA00225A4BFEF7DFFAFEF7EFFC80B2CE
:1024F000A5F8A40023791B0203F4706360791844E3
:10250000FEF76CFA0022524BFEF7CEFAFEF7DEFC25
:1025100080B2A5F8A60038BD23781B0203F47063CF
:1025200060781844FEF75AFA0022494BFEF7BCFACD
:10253000FEF7CCFC80B2A5F8A800A3781B0203F438
:102540007063E0781844FEF749FA0022404BFEF72A
:10255000ABFAFEF7BBFC80B2A5F8AA0023791B02F8
:1025600003F4706360791844FEF738FA0022384BA0
:10257000FEF79AFAFEF7AAFC80B2A5F8AC0038BDC7
:1025800023781B0203F4706360781844FEF726FA80
:1025900000222F4BFEF788FAFEF798FC80B2A5F8D0
:1025A000AE00A3781B0203F47063E0781844FEF7D2
:1025B00015FA0022264BFEF777FAFEF787FC80B269
:1025C000A5F8B00023791B0203F470636079184406
:1025D000FEF704FA00221E4BFEF766FAFEF776FCC1
:1025E00080B2A5F8B20038BD23781B0203F47063F3
:1025F00060781844FEF7F2F90022154BFEF754FA02
:10260000FEF764FC80B2A5F8B400A3781B0203F4C3
:102610007063E0781844FEF7E1F900220C4BFEF7F6
:1026200043FAFEF753FC80B2A5F8B60023791B02EB
:1026300003F4706360791844FEF7D0F90022044B6C
:10264000FEF732FAFEF742FC80B2A5F8B80038BDBA
:102650000000F43F23781B0203F470636078184491
:10266000FEF7BCF90022154BFEF71EFAFEF72EFC12
:1026700080B2A5F8BA00A3781B0203F47063E07877
:102680001844FEF7ABF900220C4BFEF70DFAFEF7EB
:102690001DFC80B2A5F8BC0023791B0203F4706313
:1026A00060791844FEF79AF90022044BFEF7FCF912
:1026B000FEF70CFC80B2A5F8BE0038BD0000F43F68
:1026C0000B68A3F5FC630E2B00F29780DFE803F0A4
:1026D00008152232364353955764749578859200D5
:1026E0001178537803EB0123A3EBC30303F5E04315
:1026F0001C339BB2A0F8C03070471178537803EBBD
:102700000123A3EBC30303F5E0431C339BB2A0F802
:10271000C23070470023A0F8C4309178D37803EB1F
:102720000123A3EBC30303F5E0431C339BB2A0F8E2
:10273000C63070470023A0F8C8307047117853782E
:1027400003EB0123A3EBC30303F5E0431C339BB26C
:10275000A0F8CA3070470023A0F8CC309178D37825
:1027600003EB0123A3EBC30303F5E0431C339BB24C
:10277000A0F8CE3070470023A0F8D0307047117811
:10278000537803EB0123A3EBC30303F5E0431C33AE
:102790009BB2A0F8D23070470023A0F8D4309178D3
:1027A000D37803EB0123A3EBC30303F5E0431C330E
:1027B0009BB2A0F8D63070470023A0F8D8307047FD
:1027C0001178537803EB0123A3EBC30303F5E04334
:1027D0001C339BB2A0F8DA3070471178537803EBC2
:1027E0000123A3EBC30303F5E0431C339BB2A0F822
:1027F000DC3070470023A0F8DE307047F8B504469F
:1028000002681C4B9A4204D022681B4B9A4218D093
:10281000F8BD1A4B1A4A00211A4801F093FD68B915
:10282000164F174E184D3A4631462846FFF7BAF86C
:102830003A4631462846FFF743FFE5E700F0BAFA8B
:10284000EEE7124B124A0021124801F07BFD68B9F5
:102850000E4E0F4D104C324629462046FFF7A2F887
:10286000324629462046FFF72BFFD1E700F0A2FAB7
:10287000EEE700BF00640040006C0040A04D002067
:10288000384C0020504D0020B4490020F84D002065
:10289000A04B0020884C0020AA4A002070B50446B6
:1028A0000268174B9A4204D02268164B9A420FD006
:1028B00070BD154B154A0121154801F043FD20B9A3
:1028C00011491248FFF748F8EEE700F073FAF7E70E
:1028D000104B114A0121114801F034FD68B90D4E29
:1028E0000D4D0F4C324629462046FFF75BF8324625
:1028F00029462046FFF7E4FEDAE700F05BFAEEE750
:1029000000680040006C0040144C0020344D002052
:10291000B04C0020F84D0020A04B0020884C002037
:10292000AA4A00207047000008B50023574A1360E8
:10293000574A9360D3601375564A04219160D3605F
:10294000137555494B618B61CB614FF6FF724A603D
:1029500041F6FF720A60CB608B600B610E234B6205
:1029600001230B624D4801F06DFB002872D14B48EA
:1029700001F002FC002870D10221484801F07CFDE2
:1029800000286DD100220321132001F0CFFE132077
:1029900001F0FEFE424A00239360D3601375414A62
:1029A00004219160D36013753F490E224A618B6107
:1029B000CB614FF6FF70486041F6FF700860CB6056
:1029C0008B6001230B614A620B62384801F03AFBCD
:1029D000002848D1354801F0CFFB002846D110210E
:1029E000324801F049FD002843D1002203213F2055
:1029F00001F09CFE3F2001F0CBFE2D4A00239360A6
:102A0000D36013752B4A04219160D36013752A4952
:102A100001224A618B61CA614B600B60CB608B60A5
:102A20000B610E234B620A62244801F00BFB18BBBA
:102A3000224801F0A1FB10BB0221204801F01CFD3F
:102A400000BB002203214A2001F070FE4A2001F061
:102A50009FFE08BD00F0AEF989E700F0ABF98BE707
:102A600000F0A8F98EE700F0A5F9B3E700F0A2F9AD
:102A7000B5E700F09FF9B8E700F09CF9D8E700F05F
:102A800099F9D9E700F096F9DBE700BF0C4C00207C
:102A9000E04C0020184D0020E44B0020504D002059
:102AA000584C0020204C0020784D0020B04C0020D5
:102AB000704C0020FC4C0020D04D0020884C0020A1
:102AC00010B50B4C206021610A4B21460A4801F0E9
:102AD00081FB0A4B1A6801321A601B68022B00DC6A
:102AE00010BD012001F0F4F90022044B1A60F7E751
:102AF000E04C0020F84C0020504D0020304D0020CC
:102B000010B514460F4B186019610F4801F0FFFB18
:102B100050B10E4B22460B490B4801F05BFB80B1D4
:102B2000012001F0D5F910BD074C0121204601F02C
:102B3000C6FB0221204601F0C2FB0421204601F021
:102B4000BEFB10BD584C0020B04C0020D84C0020DB
:102B500010B50B4C206021610A4B21460A4801F058
:102B600039FB0A4B1A6801321A601B68022B00DC21
:102B700010BD012001F0ACF90022044B1A60F7E708
:102B8000704C00201C4C0020884C0020544C00202D
:102B900030B58BB0002405940694079408940994EA
:102BA0000194224B1A6B42F004021A631A6B02F072
:102BB00004020192019A02941A6B42F080021A6395
:102BC0001A6B02F080020292029A03941A6B42F08E
:102BD00001021A631A6B02F001020392039A049431
:102BE0001A6B42F002021A631B6B03F00203049398
:102BF000049B0F4D22464FF40051284602F030F955
:102C00004FF400530593012306930794089405A9F4
:102C1000284602F03BF8032305930694079405A980
:102C2000044802F033F80BB030BD00BF003802405A
:102C3000000802400000024010B582B00024019458
:102C4000114B1A6B42F400121A631B6B03F400134E
:102C50000193019B224605210C2001F067FD0C2009
:102C600001F096FD22460521102001F05FFD1020A5
:102C700001F08EFD22460521112001F057FD1120A3
:102C800001F086FD02B010BD0038024008B500F02A
:102C900065FD074C2046FEF717FC04F1F600FEF731
:102CA00013FC044802F007F90A2003F053F8EEE79A
:102CB000B4490020BC4E002008B5044802F0FBF8DF
:102CC0004FF4E17003F046F8F7E700BFBC4E002078
:102CD00008B5052003F03EF8FBE708B5FEF73EFE19
:102CE00041F2883003F036F8F8E7000008B514E048
:102CF00000211148FEF77AFD14E00F4C0021204618
:102D0000FEF732FD012104F1F600FEF72DFD0B4820
:102D100002F0D1F8C82003F01DF8074B93F8F53006
:102D2000002BE5D1044B93F8EB31002BE5D00121CA
:102D30000348FEF75BFDE0E7B4490020BC4E0020ED
:102D4000AA4A002008B5FEF7C1FCFEF75FFCFEF7BB
:102D50001BFC4FF47A7002F0FDFFF4E710B5026837
:102D60000F4B9A4204D002680E4B9A4215D010BD08
:102D70000D4C002363610A4A13600C4B1B68D96831
:102D800021F00101D9600A490968D162012151612C
:102D90006FF001021A612174E5E701F087F8E6E7B8
:102DA000000001400014004050500020644F0020FB
:102DB0004850002072B6FEE708B50D480D4B036081
:102DC0003023436000238360C3604FF4803202618C
:102DD0004FF4001242610376012242768376C37675
:102DE0000377437701F088F800B908BDFFF7E2FFE9
:102DF000504D00200064004008B50D480D4B0360A5
:102E00000923436000238360C3604FF440320261B2
:102E10004FF4001242610376012242768376C37634
:102E20000377437701F068F800B908BDFFF7C2FFE8
:102E3000B04C00200068004008B50D480D4B036001
:102E40003023436000238360C3604FF4803202610B
:102E50004FF4001242610376012242768376C376F4
:102E60000377437701F048F800B908BDFFF7A2FFE8
:102E7000884C0020006C004000B58BB00023089304
:102E80000993019302930393049305930693079385
:102E90001E484FF0804202600222426083601D2281
:102EA000C2600361836102F020FD20BB174802F07D
:102EB00035FD10BB00230893099308A9134802F0BD
:102EC00055FEE0B900220192082302930392059275
:102ED00001A90E4802F076FD98B9602301931123F1
:102EE000029304220DEB0201084802F09AFD50B94A
:102EF0000BB05DF804FBFFF75DFFFFF75BFFFFF72B
:102F000059FFFFF757FFFFF755FF00BF9450002010
:102F100000B58BB0002308930993019302930393A8
:102F200004930593069307931A481B4A0260436073
:102F300083604FF6FF72C2600361836102F0EEFCB2
:102F4000F8B900230893099308A9124802F00EFE6D
:102F5000C8B960230193002202920392059201A94D
:102F60000C4802F05EFD80B904220DEB0201094815
:102F700002F057FD58B9074800F05AFA0BB05DF857
:102F800004FBFFF717FFFFF715FFFFF713FFFFF72E
:102F900011FF00BF085000200004004008B507489A
:102FA000074B0360012343604FF4FA63836001F031
:102FB0005DFF00B908BDFFF7FDFE00BFBC4E00205D
:102FC0000030004000B595B03422002107A8FDF77D
:102FD0001BFA002302930393049305930693009333
:102FE0001F4A116C41F080511164126C02F0805242
:102FF0000092009A01931B4A116841F4404111600C
:10300000126802F440420192019A0A2207920122B8
:103010000A9210210B910C9202220D920E9308231A
:103020000F934823109311921292139207A802F063
:1030300097F880B90F230293022103910023049390
:103040004FF480520592069302A801F0A5FF20B923
:1030500015B05DF804FBFFF7ADFEFFF7ABFE00BF58
:10306000003802400070004008B500F005FFFFF78F
:10307000A9FFFFF78DFDFFF7DFFDFFF79DFEFFF7CF
:10308000BBFEFFF7D9FEFFF7F7FEFFF741FFFFF7A3
:1030900085FFFFF749FC00F03BFBFEF7C7F902F0A4
:1030A000ABFD1A4A0221102002F072FE184B186084
:1030B000184A0021184802F0E3FD184B1860184A1E
:1030C0000021184802F0DCFD174B1860174A002158
:1030D000174802F0D5FD174B1860174A0021174812
:1030E00002F0CEFD164B1860164A0021164802F079
:1030F000C7FD164B1860164A0021164802F0C0FDA5
:10310000154B186002F098FDFEE700BF747B0008C5
:103110008C500020B07B00088D2C0008044E00204D
:10312000787C0008DB2C0008684E0020507B0008EB
:10313000ED2C000890500020F87B0008452D000879
:10314000004E0020D47B0008B92C00084C50002011
:103150008C7B0008D12C0008A44F002000B583B060
:10316000002200920D4B596C41F480415964596C16
:1031700001F48041009100990192196C41F0805155
:1031800019641B6C03F080530193019B0F216FF0B6
:10319000010001F0CBFA03B05DF804FB00380240F7
:1031A00010B58CB000230793089309930A930B93EF
:1031B0000368474A934207D0464A934230D0464A72
:1031C000934259D00CB010BD00240194434B1A6CAB
:1031D00042F000721A641A6C02F000720192019AB5
:1031E00002941A6B42F002021A631B6B03F0020393
:1031F0000293029B4FF44073079302230893032327
:103200000A9308230B9307A9354801F03FFD224696
:103210000521142001F08AFA142001F0B9FAD1E74F
:10322000002403942D4B1A6C42F080621A641A6CCD
:1032300002F080620392039A04941A6B42F0020235
:103240001A631B6B03F002030493049B4FF4405377
:1032500007930223089303230A9309230B9307A9D7
:103260001F4801F013FD22460521412001F05EFABE
:10327000412001F08DFAA5E700240594174B1A6C44
:1032800042F000621A641A6C02F000620592059A1C
:1032900006941A6B42F002021A631B6B03F00203DE
:1032A0000693069B182307930223089303230A938C
:1032B0000B230B9307A90A4801F0E8FC22460521DD
:1032C0004B2001F033FA4B2001F062FA7AE700BF9D
:1032D0000064004000680040006C0040003802407C
:1032E000000402400368B3F1804F00D0704710B56E
:1032F00082B00446002301933A4A116C41F0010167
:103300001164126C02F001020192019A3648374AA8
:1033100002604FF0C062426040228260C36003617D
:103320004FF4805242614FF480428261C3614FF496
:1033300000320262436201F0C7FA002849D12A4BE9
:1033400063629C632A482B4B03604FF0C063436069
:10335000402383600023C3604FF4806202614FF416
:10336000805242614FF480428261C3614FF4003267
:103370000262436201F0A8FA00282DD11C4BA3621F
:1033800023639C631C481D4B03604FF0C063436084
:10339000402383600023C36003614FF48052426185
:1033A0004FF480428261C3614FF400320262436293
:1033B00001F08AFA98B9104B2362E3629C63002201
:1033C00005211C2001F0B2F91C2001F0E1F902B046
:1033D00010BDFFF7EFFCB2E7FFF7ECFCCEE7FFF71D
:1033E000E9FCE8E700380240084E0020886002400F
:1033F000044F0020A0600240A84F00202860024037
:103400000268094B9A4200D0704782B000230193B2
:10341000064B1A6C42F002021A641B6C03F00203A2
:103420000193019B02B0EFE7000400400038024026
:1034300000B587B00023019302930393049305938F
:1034400002680E4B9A4202D007B05DF804FB0023DD
:1034500000930B4B1A6B42F004021A631B6B03F0D0
:1034600004030093009BC02301930223029305935E
:1034700001A9044801F00AFCE6E700BF000400408F
:10348000003802400008024010B588B00022014612
:10349000372001F04BF9372001F07AF9002401942C
:1034A000144B1A6C42F020021A641B6C03F02003C8
:1034B0000193019B02A903A801F034FE01F022FE52
:1034C00043000D48A0FB03239B0C013B0B480C4A17
:1034D000026040F2E732C26043600461846002F03F
:1034E000EBF910B1012008B010BD044802F0ABF8B0
:1034F000F9E700BF0038024083DE1B43D4500020B0
:1035000000140040FEE7FEE7FEE7FEE7FEE7704737
:1035100008B5024801F0CCFA08BD00BFA84F002052
:1035200008B5024801F0C4FA08BD00BF084E0020EB
:1035300008B5024801F0BCFA08BD00BF044F0020E6
:1035400008B5024800F0B4FF08BD00BF504D002090
:1035500008B5024802F08CF808BD00BF9450002066
:1035600008B5024802F084F808BD00BFD45000201E
:1035700008B5024800F09CFF08BD00BFB04C002019
:1035800008B5024800F094FF08BD00BF884C002039
:10359000054BD3F8882042F47002C3F888204FF01E
:1035A00000629A60704700BF00ED00E0C043C0B207
:1035B00054280CD9A92812D95630C3B203EB4302C0
:1035C000A3EB8300FF30000240EA02407047A0EB0B
:1035D0008003FF3300EB400040EA0340704755385A
:1035E000C0B200EB4003A0EB8000FF3040EA0320B4
:1035F000704700002DE9F04105460F469046104BFC
:103600001E780136F6B21E70002410E02002B0FBD6
:10361000F8F03044C0B2FFF7C9FF04EB4403E854AC
:103620005A1C010AA9540233000CE8540134054B1A
:10363000A3FB0723B4EB530FE8D3BDE8F08100BF31
:10364000AC000020ABAAAAAA2DE9F04104468846A6
:1036500017461E46002508E00022E25423E000221F
:10366000625428E00022E2540135184BA3FB0823E2
:10367000B5EB530F28D2FCF743FFB0FBF7F307FB82
:10368000130038B905EB4503FF22E254591C62547C
:103690000233E25405EB4503E25CB242DCD9B2FBF3
:1036A000F6F1521AE254591C625C9642D7D2B2FB30
:1036B000F6F0121A62540233E25C9642D2D2B2FBA6
:1036C000F6F1521AE254CFE7BDE8F081ABAAAAAAFC
:1036D00008B500F0F7FB0B4B1B68C01A192800D87F
:1036E00008BD00F0EFFB074B18600F22B42106481D
:1036F000FFF780FF282332223C210448FFF7A4FF74
:10370000EEE700BFA8000020505100201451002017
:1037100010B5002313B100F093FB10BD0C4A02EB6F
:1037200003120D21117313F0010F09D108491A0179
:103730008818084C8C50B42242600133DBB2E9E7B0
:1037400003491A018818044C8C503C224260F4E76B
:1037500050500020505100201451002008B5064B55
:103760001B7C03B908BDFFF7B3FF0122024B5A745B
:1037700000F074FBF6E700BF5050002082B0002339
:103780000193019B0133019302B07047F0B589B0FA
:1037900000250195194C236B43F004032363236B2D
:1037A00003F004030193019B4FF400560396012795
:1037B00004970595069503A9114801F067FA02954B
:1037C000236B43F008032363236B03F00803029386
:1037D000029B04970595022306934FF4004303933D
:1037E000A4F5305403A9204601F050FA039603A92A
:1037F000204601F04BFA09B0F0BD00BF003802408E
:10380000000802402DE9F04F83B000250195464B9A
:103810001A6B42F480021A631B6B03F4800301935A
:10382000019B424C4FF0400AC4F808A0E5602561B6
:103830004FF4805BC4F814B04FF48043A3614FF49D
:103840008079C4F81C904FF44038C4F820804FF0C1
:103850004067676065620326A662E5622563344BB4
:103860002360204601F098F8204601F02DF830231F
:10387000304A3149204601F0C2F8304CC4F808A063
:10388000E5604FF4806323614FF4006363614FF49C
:103890000053A361C4F81C90C4F82080676065627F
:1038A000A662E5622563264B2360204601F074F88A
:1038B000204601F009F83023224A2349204601F02E
:1038C0009EF8224CC4F808A0E5602561C4F814B045
:1038D0004FF48043A361C4F81C90C4F82080676053
:1038E0006562A662E5622563194B2360204601F0FC
:1038F00053F8184BE363184B2364184BE3642046DA
:1039000000F0E2FF2A4629463A2000F00FFF3A2055
:1039100000F03EFF3023074A1149204601F093F89A
:1039200003B0BDE8F08F00BF0038024028530020EC
:103930008864024018080240680000206452002099
:10394000286402401A080240C85200200452002095
:1039500040640240A13B0008FD3D00087D3700089F
:103960006C0000202DE9F04182B000240194354B19
:103970005A6C42F001025A645B6C03F0010301933C
:10398000019B314B1A68130A3049A1FB03131B0931
:103990002F490B602F49A1FB0212D20A2E490A605F
:1039A00003EB83014A002D49A1FB0201CF082C49FA
:1039B000A1FB0212D6082B4D2B4A2A60EB606C61EA
:1039C0006C602C61AC60284601F0A8FF22462146BD
:1039D000192000F0ABFE192000F0DAFE23494FF069
:1039E0006008C1F800808C604F60CC600C6122469A
:1039F000284602F016F81E49C1F800808C604E601F
:103A0000CC600C614C618C610422284602F009F8FC
:103A1000284601F006FE2146284602F081F82B6870
:103A2000196A41F21112114208D1196A40F2444256
:103A3000114203D11A6822F001021A6002B0BDE8F7
:103A4000F08100BF0038024064000020598B4F0114
:103A500048500020B5814E1BE44E0020398EE338DB
:103A600089888888644F002000000140E84E0020CB
:103A7000C84E002010B5054C4FF40043A361044824
:103A800001F016F84FF00043A36110BD000C024096
:103A90000452002010B5054C4FF40053A3610448B4
:103AA00001F0E6FD4FF00053A36110BD000C024091
:103AB000644F00202DE9F0472A4C14F802C014F896
:103AC00003E09DF82030E75C01EB4101CE006FEA96
:103AD0000C0C6FEA0E0EFF43044601258540ED43B2
:103AE00000223AE002EB0609A9B21F4B33F8190095
:103AF000084023F8190009F1080833F818000840B5
:103B000023F8180009F1100033F810A001EA0A01A7
:103B100023F810100EFA02F1C1F3C011A14033F8DE
:103B200019A041EA0A0123F819100CFA02F1C1F3B5
:103B3000C011A14033F8189041EA090123F8181088
:103B400007FA02F1C1F3C011A14033F8108041EA35
:103B5000080123F810100132D2B2072AC2D9BDE8F9
:103B6000F08700BFB47C0008C852002070B582B056
:103B700005688268531C8360AA5C5C1C8460EB5CF3
:103B8000661C86602C5D4568AE4206D0007B0094C2
:103B900089B2FFF78FFF02B070BD00258560F5E7A1
:103BA0004FF400522E4B9A612E4B9B69042B02D08E
:103BB00010B5002448E000202A4B98612A4A136877
:103BC00023F001031360294B19680B6823F00103EC
:103BD0000B60274B19680B6823F001030B60254B22
:103BE00019680B6823F001030B60234B1B68D9682D
:103BF00021F48071D960D96821F40071D960D96845
:103C000021F48061D9601D490968D16250620121A7
:103C100051616FF001011961D96841F00101D9606A
:103C2000136843F001031360154B1A68154B9A6132
:103C30004FF000520A4B9A6170470121094800EB8E
:103C40000410FFF793FF0134002CF6D0054A936966
:103C5000013393614FF00052014B9A6110BD00BFD8
:103C6000000C02405050002000000140285300206A
:103C70006452002004520020644F0020E44E0020D3
:103C80006C0000200008024038B500244F4B1C7423
:103C90000CB34F4B1B684F4A93422AD94FF46062D2
:103CA0004D4BDA604D4B1B684A4A934236D94FF46C
:103CB0006062494BDA604A4B1B68464A934242D8DD
:103CC000484A934277D8484A934279D84FF46012D1
:103CD000464B9A603BE03D4D05EB04150021A96081
:103CE0002846FFF743FF01212846FFF73FFF013435
:103CF000CEE73C4A934204D94FF46062364B9A6057
:103D0000D0E7394A934204D94FF46062374BDA6006
:103D1000C8E74FF46062354B9A60C3E7314A93427B
:103D200004D94FF460622C4B9A60C4E72E4A934248
:103D300004D94FF460622D4BDA60BCE74FF4606247
:103D40002A4B9A60B7E74FF46012234BDA60204B9E
:103D50001B6830225A60214C21684A602048016863
:103D60004A6023490A686FF01F0515611A6842F01E
:103D700001021A602268136843F0010313600268AD
:103D8000136843F0010313600B68DA6842F4807231
:103D9000DA60DA6842F40072DA60DA6842F480626B
:103DA000DA60144A1268013A13494A621A6842F00A
:103DB00001021A6038BD4FF46012074B9A60C6E7E3
:103DC0004FF46012094BDA60C1E700BF5050002089
:103DD00028530020586402400064024064520020CE
:103DE00004520020B8600240586002400060024067
:103DF000644F0020485000200000014010B582B000
:103E00000E4B9B69042B01D000240EE00020009093
:103E1000034602460146FFF74DFE0CE0002107482D
:103E200000EB0410FFF7A2FE0134002CF6D0034A89
:103E300093690133936102B010BD00BF5050002060
:103E400008B5FFF7A3FCFFF7DDFCFFF78BFD0122B0
:103E5000014B1A7408BD00BF5050002008B5054B37
:103E60005B7C03B908BD0022024B5A74FFF70CFFBC
:103E7000F8E700BF5050002008B50B4B1A6842F419
:103E800000721A601A6842F480621A601A6842F47A
:103E900080721A60032000F037FC0020FFF7F4FA6C
:103EA000FFF75CF9002008BD003C0240034A11689E
:103EB000034B1B780B441360704700BF88530020EE
:103EC00070000020014B1868704700BF8853002025
:103ED00038B50446FFF7F6FF0546B4F1FF3F02D0C0
:103EE000044B1B781C44FFF7EDFF401B8442FAD8BB
:103EF00038BD00BF70000020002800F0A18038B558
:103F0000044690F82030D3B12268136823F00203EE
:103F10001360FFF7D7FF054623685A6812F0020FB7
:103F200010D0FFF7CFFF401B0A28F5D9636A43F48E
:103F300000336362052384F82030012038BDFFF789
:103F40002FF9E1E71A6842F001021A60FFF7BAFFA1
:103F5000054623685A6812F0010F0DD1FFF7B2FF32
:103F6000401B0A28F5D9636A43F4003363620523D2
:103F700084F82030012038BD227E012A3DD01A6805
:103F800022F080021A60637E012B3BD02268136806
:103F900023F040031360A37E012B39D022681368FD
:103FA00023F020031360E37E012B37D022681368CF
:103FB00043F010031360237F012B35D02268136870
:103FC00023F008031360637F012B33D0226813684A
:103FD00023F0040313602168A368E2681343226995
:103FE0001343626913436268013A1343CB610020B3
:103FF0006062012384F8203038BD1A6842F08002E4
:104000001A60C0E72268136843F040031360C2E7F8
:104010002268136843F020031360C4E72268136822
:1040200023F010031360C6E72268136843F0080307
:104030001360C8E72268136843F004031360CAE7FB
:1040400001207047026890F82030013BDBB2012B61
:1040500005D9436A43F4802343620120704770B45A
:10406000434B9A4200D0434AD2F8003243F0010356
:10407000C2F800323F4B9A4242D04B6903F01F0313
:10408000012000FA03F3D2F81C42D8430440C2F8DE
:104090001C42CC69ACB9D2F80C420440C2F80C42C4
:1040A0004C69CE688D8845EA0645483442F834505C
:1040B0004C698E680D8845EA0645483402EBC40415
:1040C0006560CC69012C29D08C69002C3DD1D2F8D7
:1040D00004420440C2F804420C69002C3BD1D2F8DF
:1040E00014422040C2F81402096A012939D0D2F8DA
:1040F000003223F00103C2F80032002070BC704788
:10410000D2F8003223F47C53C2F80032D2F80032E5
:10411000486A43EA0023C2F80032AEE7D2F80C4204
:104120001C43C2F80C424C690E688D8845EA06456E
:10413000483442F834504C698E688D8945EA06450A
:10414000483402EBC4046560BEE7D2F804421C4365
:10415000C2F80442C0E7D2F814021843C2F81402AD
:10416000C2E7D2F81C120B43C2F81C32BFE700BFF3
:10417000006C00400064004038B590F82030DBB29D
:10418000012B05D0436A43F400234362012038BD6C
:104190000446022380F820300268136823F00103EC
:1041A0001360FFF78FFE054623685B6813F0010F6D
:1041B0000DD0FFF787FE401B0A28F5D9636A43F448
:1041C00000336362052384F82030012038BD0020CD
:1041D000606238BD70B490F820400568AD68013C5D
:1041E000E4B2012C06D9436A43F4802343620120E0
:1041F00070BC704715F0E05F5BD0C5F30165022D20
:104200003ED80124AC401C608B68002B3ED1046872
:104210000E68CB6843EA465605F118031B01E650C9
:1042200003680C6905F1180603EB06135C600B7D4F
:10423000012B36D00468D17993791B0443EA0163DA
:10424000517943EA012311790B432E013444C4F818
:104250008C310168D47893781B0443EA0463547862
:1042600043EA0423127813433144C1F888310268C9
:1042700018352D01535943F0010353510020B7E77E
:10428000436A43F4000343620120B1E704684E68C7
:1042900043EAC603CE68334305F118063601A3513D
:1042A000BEE7036803EB0613596841F48071596057
:1042B000C0E7436A43F400134362012098E790F893
:1042C0002030013BDBB2012B05D9436A43F4802344
:1042D00043620120704711F0010F04D00268936817
:1042E00043F08003936011F0020F04D002689368DA
:1042F00043F40043936011F0040F06D00268936802
:1043000043F400039360002070470020704790F84A
:104310002030013BDBB2012B01D90020704703683C
:104320009A6812F0806F0BD100209A6812F0006F2B
:1043300000D001309B6813F0805FEFD001307047F0
:104340000120F2E730B490F82040013CE4B2012CA7
:1043500006D9436A43F480234362012030BC70478E
:1043600000296FD10468E46814F0030F64D0056875
:1043700001F11B0424012C5904F004049460002C66
:104380006BD1056801F11B0424012C59640D1460E4
:10439000056801F11B0424012D5905F00205D560C3
:1043A000056825446D6805F00F051561056825440D
:1043B0006D68C5F30725956105682C446468240C75
:1043C000546104680A011444D4F8B8411C700468AC
:1043D0001444D4F8B841C4F307245C70046814444E
:1043E000D4F8B841C4F307449C7004681444D4F86A
:1043F000B841240EDC7004681444D4F8BC411C712C
:1044000004681444D4F8BC41C4F307245C71046804
:104410001444D4F8BC41C4F307449C71046822449A
:10442000D2F8BC21120EDA71F9B90268D36843F0F0
:104430002003D360002091E7436A43F400134362F2
:1044400001208BE70468246914F0030F8FD1436ABD
:1044500043F400134362012080E7056801F11B0467
:1044600024012C59E408546092E70268136943F070
:1044700020031361002071E790F82030013BDBB28C
:10448000012B05D9436A43F480234362012070471E
:1044900002685369194351610020704770477047A3
:1044A0007047704770477047704770477047704754
:1044B0002DE9F84F054603685C695F689E68D3F88C
:1044C0000C90D3F81080D3F818A014F0010F5AD034
:1044D00016F0010F17D001229A6016F0020F08D1D2
:1044E00016F0040F30D116F0080F07D04FF4805BA0
:1044F0000BE0FFF7D3FF4FF0000B06E0FFF7D1FF13
:104500004FF0000B01E04FF0000B16F4807F0BD052
:104510002B684FF480729A6016F4007F17D116F45E
:10452000806F18D04BF4005B16F4803F2DD02B68C1
:104530004FF480329A6016F4003F16D116F4802FA3
:1045400017D04BF4004B20E04FF4006BDDE728461A
:10455000FFF7A5FFE8E716F4006F02D04BF4804B9D
:10456000E2E72846FFF79EFFDEE72846FFF798FFC1
:104570000BE016F4002F02D04BF4803B05E02846F8
:10458000FFF791FF01E04FF0000B14F0080F07D088
:1045900019F0100F04D04BF4007B2B681022DA6066
:1045A00014F0040F02D019F0080F60D114F0020FBC
:1045B00004D02B68DB6813F0030F5FD114F0400FB9
:1045C00007D018F0100F04D04BF4806B2B6810222A
:1045D0001A6114F0200F02D018F0080F52D114F015
:1045E000100F04D02B681B6913F0030F51D114F482
:1045F000003F02D017F0100F4FD114F4803F02D0CB
:1046000017F0080F50D114F4004F67D017F0040FC3
:1046100061D014F4807F04D01AF0010F01D04BF068
:10462000010B14F4007F04D01AF0020F01D04BF0FC
:10463000020B14F4806F04D01AF0040F01D04BF079
:10464000040B14F4006F46D01AF0700A43D0BAF18C
:10465000300F48D02FD9BAF1500F47D0BAF1600FC0
:1046600047D0BAF1400F31D14BF0400B2EE02B6810
:104670000822DA602846FFF717FF97E72846FEF77B
:10468000BDF89BE72B6808221A612846FFF70DFF4B
:10469000A5E72846FEF702F9A9E72B6810225A6021
:1046A0002846FFF703FFA8E72B6808225A60284630
:1046B000FFF7FDFEA7E7BAF1100F05D0BAF1200F02
:1046C00004D14BF0100B01E04BF0080B2A68936902
:1046D00023F0700393612B6804225A60BBF1000F32
:1046E0000AD1BDE8F88F4BF0200BEFE74BF0800BC1
:1046F000ECE74BF4807BE9E76B6A4BEA03036B6200
:104700002846FEF70FF9ECE7074AD36823F4E06385
:104710001B041B0C000200F4E060184340F0BF6073
:1047200040F40030D060704700ED00E030B4164B2C
:10473000DB68C3F30223C3F10704042C28BF04245D
:104740001D1D062D17D9033B012505FA04F4013C74
:104750002140994005FA03F3013B13401943002817
:104760000BDB0901C9B200F1604000F5614080F83F
:10477000001330BC70470023E6E700F00F0009018A
:10478000C9B2024B1954F4E700ED00E014ED00E06B
:10479000002808DB420900F01F00012303FA00F0A3
:1047A000014B43F82200704700E100E0BFF34F8F58
:1047B0000549CA6802F4E062044B1343CB60BFF3BF
:1047C0004F8F00BFFDE700BF00ED00E00400FA05D9
:1047D00030B405682C6824F480242C60046863607D
:1047E0008368402B05D0036899600368DA6030BCA9
:1047F000704703689A600368D960F8E70268D3B22B
:10480000103B0B49A1FB03131B090A49C95CC16595
:10481000032B06D822F47F7222F003028265806D9A
:10482000704722F47F7222F0030204328265F6E7B9
:10483000ABAAAAAAB47D0008836A826992B9012B47
:104840000AD01BB1022B01D000207047C36A13F0BD
:10485000807F2CD100207047C36AB3F1C07F28D07D
:1048600000207047B2F5005F05D0022B29D9032B39
:1048700015D000207047032B03D8DFE803F01C0499
:104880001C0A00207047C36A13F0807F15D10020F6
:104890007047C36AB3F1C07F11D000207047C36A6C
:1048A00013F0807F01D00120704700207047012065
:1048B0007047012070470120704701207047012098
:1048C000704701207047000070B50446FFF7FAFA00
:1048D000002C5DD00546002384F83430022384F890
:1048E00035302268136823F00103136023681A68C7
:1048F00012F0010F0AD0FFF7E5FA401B0528F5D9A1
:1049000020236365032084F8350070BD1A682149AF
:1049100011406268A0680243E068024320690243D4
:1049200060690243A0690243E0690243206A0243CE
:104930000A43616A042916D01A602668756925F051
:104940000705636A1D43042B12D075612046FFF7EB
:1049500055FFE26D3F239340836000206065012393
:1049600084F8353070BDE16A206B01430A43E3E708
:10497000A36A1D43E36A002BE7D02046FFF75CFFE4
:104980000028E2D040236365012084F8350070BD23
:10499000012070BD3F8010E000282ED038B50446BD
:1049A00090F83530DBB2022B01D1022038BD02680D
:1049B000136823F001031360036800251D6003687A
:1049C0005D6003689D600368DD6003681D610368C6
:1049D00021225A61FFF712FFE56325646564A5642F
:1049E000E5642565E26D3F2393408360656584F847
:1049F000355084F83450284638BD0120704738B50A
:104A000090F83440012C1CD0012480F8344090F8F8
:104A10003540E4B2012C04D0002380F83430022069
:104A200038BD0546022085F8350000246C6528460F
:104A3000FFF7CEFE2A68136843F001031360204697
:104A400038BD022038BD38B5856D90F83440012C52
:104A50002CD0012480F8344090F83540E4B2012C89
:104A600004D0002380F83430022038BD04460220F0
:104A700084F83500002060652046FFF7A9FEE26D4E
:104A80003F239340AB602268136843F01603136022
:104A9000236C23B12268136843F008031360226873
:104AA000136843F001031360002038BD022038BDB5
:104AB000F0B583B0044600230193724B1D68724B1E
:104AC000A3FB0535AD0A876D3E68C26D0823934090
:104AD0001E4210D003681A6812F0040F0BD01A6837
:104AE00022F004021A60C26D08239340BB60436D3C
:104AF00043F001034365E26D012393401E4209D058
:104B00002268526912F0800F04D0BB60636D43F0DD
:104B100002036365E26D042393401E4209D02268BC
:104B2000126812F0020F04D0BB60636D43F00403FF
:104B30006365E26D102393401E4224D02268126800
:104B400012F0080F1FD0BB6023681A6812F4802F80
:104B50000DD01B6813F4002F04D1236C9BB12046A9
:104B6000984710E0A36C73B1204698470BE01A6891
:104B700012F4807F03D11A6822F008021A60236CB5
:104B80000BB120469847E26D202393401E4255D03A
:104B90002268126812F0100F50D0BB6094F83530C4
:104BA000DBB2052B0ED023681A6812F4802F33D0A5
:104BB0001B6813F4002F2AD1636C002B3ED02046D3
:104BC00098473BE02268136823F0160313602268BD
:104BD000536923F080035361236CA3B122681368E7
:104BE00023F008031360E26D3F239340BB60002372
:104BF00084F83430012384F83530236D002B3FD006
:104C0000204698473CE0A36C002BE7D1EBE7E36B31
:104C1000A3B12046984711E01A6812F4807F09D1A9
:104C20001A6822F010021A60002384F8343001233D
:104C300084F83530E36B0BB120469847636DFBB1C8
:104C4000636D13F0010F17D0052384F83530226807
:104C5000136823F001031360019B013301939D420C
:104C600004D323681B6813F0010FF5D1002384F8E7
:104C70003430012384F83530E36C0BB1204698477B
:104C800003B0F0BD64000020B5814E1B00230F2B44
:104C900000F2DA80F0B583B09EE085684FEA430EFB
:104CA000032707FA0EF725EA0705CE6806FA0EF67F
:104CB00035438560456825EA02024D68C5F3001555
:104CC0009D402A434260C6685F000322BA40D24337
:104CD00016408D68BD402E43C6604D68022D00F021
:104CE0008D80122D00F08A8005682A404D6805F0FD
:104CF0000305BD402A4302604A6812F0805F68D015
:104D000000220192514A556C45F480455564526C1D
:104D100002F480420192019A9A08961C4C4D55F873
:104D2000265003F003064FEA860E0F2606FA0EF60B
:104D300025EA0605474FB84278D0474EB04277D0B3
:104D400006F58066B04275D006F58066B04273D035
:104D500006F58066B04271D006F58066B0426FD02D
:104D600006F58066B0425FD0072606FA0EF6354398
:104D70000232374E46F82250384A1568E24305EAB7
:104D800002064F6817F4803F01D044EA0506334D10
:104D90002E606D6802EA05064F6817F4003F01D0E7
:104DA00044EA05062D4D6E60AD6802EA05064F68BF
:104DB00017F4801F01D044EA0506284DAE60ED6867
:104DC0002A404E6816F4001F01D044EA0502234C25
:104DD000E26001330F2B35D801229A400C68144051
:104DE000A242F6D14D686E1E012E7FF656AF112DF0
:104DF0003FF453AF122D7FF466AF4EE74FEAD30C6A
:104E00000CF1080C50F82C5003F0070E4FEA8E0EF0
:104E10000F2606FA0EF625EA06050E6906FA0EF6C4
:104E2000354340F82C505FE706269EE700269CE7B6
:104E300001269AE7022698E7032696E7042694E7D8
:104E4000052692E703B0F0BD704700BF003802406E
:104E5000003801400000024000040240003C0140D4
:104E600012B90904816170478161704708B338B590
:104E7000044603684CF6CC421A60036845F255526A
:104E80001A60036842685A60036882689A60FFF794
:104E900019F805462368DA6832B1FFF713F8401BAA
:104EA0003028F7D9032038BD4AF6AA221A6000201C
:104EB00038BD0120704703684AF6AA221A60002014
:104EC00070470000F8B5314B9B6803F00C03042BCE
:104ED00059D0082B01D02E48F8BD2C4B5A6802F04F
:104EE0003F025B6813F4800F2AD0284B5B68C3F342
:104EF00088131E4600275C010025E41A65EB0705B0
:104F0000A90141EA9461A001001B61EB0501CB00FE
:104F100043EA5073C400A01943EB07014B0243EA74
:104F2000D0534402204619460023FBF7EFFF174BEE
:104F30005B68C3F3014301335B00B0FBF3F0F8BDE2
:104F4000124B5B68C3F388131E4600275C010025E3
:104F5000E41A65EB0705A90141EA9461A001001B71
:104F600061EB0501CB0043EA5073C400A01943EB89
:104F700007018B0243EA905384022046194600231E
:104F8000FBF7C4FFD3E70348F8BD00BF0038024079
:104F90000024F40000127A00002800F09E8070B512
:104FA0000446504B1B6803F00F038B4209D2CBB26F
:104FB0004C4A1370136803F00F03994201D001208B
:104FC00070BD236813F0020F17D013F0040F04D044
:104FD000454A936843F4E0539360236813F0080F45
:104FE00004D0414A936843F4604393603E4A936817
:104FF00023F0F003A068034393600D46236813F089
:10500000010F32D06368012B21D09A1E012A25D9C5
:10501000354A126812F0020F61D033498A6822F0D3
:10502000030213438B60FEF74DFF06462E4B9B6831
:1050300003F00C036268B3EB820F16D0FEF742FF59
:10504000801B41F288339842F0D9032070BD264A74
:10505000126812F4003FE0D1012070BD224A1268AC
:1050600012F0007FD9D1012070BD1E4B1B6803F0E8
:105070000F039D4209D2EAB21A4B1A701B6803F063
:105080000F039D4201D0012070BD236813F0040F6F
:1050900006D0154A936823F4E053E1680B4393600C
:1050A000236813F0080F07D00F4A936823F4604376
:1050B000216943EAC1039360FFF704FF0A4B9B6831
:1050C000C3F30313094AD35CD840094B1860094B5A
:1050D0001868FEF7D9F9002070BD01207047012043
:1050E00070BD00BF003C0240003802409C7C0008BC
:1050F0006400002074000020014B1868704700BF56
:105100006400002008B5FFF7F7FF044B9B68C3F36A
:105110008223034AD35CD84008BD00BF0038024058
:10512000AC7C00080F2303600B4B9A6802F003026B
:1051300042609A6802F0F00282609A6802F4E052DB
:10514000C2609B68DB0803F4E0530361034B1B68F8
:1051500003F00F030B60704700380240003C024030
:1051600070B582B00446036813F0010F3BD0A74B23
:105170009B6803F00C03042B2CD0A44B9B6803F01A
:105180000C03082B21D06368B3F5803F4FD0B3F5F3
:10519000A02F52D09D4B1A6822F480321A601A68F0
:1051A00022F480221A606368002B50D0FEF78AFE3A
:1051B0000546964B1B6813F4003F14D1FEF782FEA0
:1051C000401B6428F5D903208AE1904B5B6813F4F7
:1051D000800FD8D08D4B1B6813F4003F03D0636859
:1051E000002B00F07A81236813F0020F55D0874B13
:1051F0009B6813F00C0F3ED0844B9B6803F00C03AC
:10520000082B33D0E368002B68D00122804B1A6052
:10521000FEF758FE05467D4B1B6813F0020F54D174
:10522000FEF750FE401B0228F5D9032058E1774ACB
:10523000136843F480331360B5E7744B1A6842F483
:1052400080221A601A6842F480321A60ABE7FEF7D7
:1052500039FE05466D4B1B6813F4003FC3D0FEF7C3
:1052600031FE401B6428F5D9032039E1674B5B68A8
:1052700013F4800FC6D1654B1B6813F0020F04D0E6
:10528000E368012B01D001202AE1604A136823F072
:10529000F803216943EAC1031360236813F0080F80
:1052A00040D0636963B301225A4B1A60FEF70AFECD
:1052B0000546564B5B6F13F0020F33D1FEF702FE2B
:1052C000401B0228F5D903200AE1504A136823F055
:1052D000F803216943EAC1031360DEE700224C4B67
:1052E0001A60FEF7EFFD0546484B1B6813F0020FEE
:1052F000D3D0FEF7E7FD401B0228F5D90320EFE0ED
:105300000022444B1A60FEF7DDFD05463F4B5B6F04
:1053100013F0020F06D0FEF7D5FD401B0228F5D989
:105320000320DDE0236813F0040F78D0374B1B6CAB
:1053300013F0805F33D100230193344B1A6C42F099
:1053400080521A641B6C03F080530193019B01256A
:10535000314B1B6813F4807F23D0A368012B34D01A
:10536000052B38D0294B1A6F22F001021A671A6FE9
:1053700022F004021A67A368002B36D0FEF7A2FDC4
:105380000646224B1B6F13F0020F47D1FEF79AFD22
:10539000801B41F288339842F3D90320A0E0002516
:1053A000D6E71D4A136843F480731360FEF78AFD45
:1053B0000646194B1B6813F4807FCED1FEF782FDA1
:1053C000801B0228F5D903208AE0104A136F43F0AE
:1053D00001031367CFE70D4B1A6F42F004021A67FF
:1053E0001A6F42F001021A67C5E7FEF76BFD064629
:1053F000064B1B6F13F0020F10D0FEF763FD801BEE
:1054000041F288339842F3D9032069E00038024022
:1054100000004742800E474200700040E5B9A36992
:10542000002B5CD0304A926802F00C02082A59D056
:10543000022B17D000222D4B1A60FEF743FD0446C5
:10544000294B1B6813F0007F45D0FEF73BFD001B86
:105450000228F5D9032043E0234A136C23F080533C
:105460001364DCE70022214B1A60FEF72BFD054692
:105470001D4B1B6813F0007F06D0FEF723FD401B79
:105480000228F5D903202BE0E369226A1343626AFC
:1054900043EA8213A26A5208013A43EA0243E26AEB
:1054A00043EA0263226B43EA02730F4A536001220C
:1054B0000E4B1A60FEF706FD04460B4B1B6813F0FB
:1054C000007F06D1FEF7FEFC001B0228F5D9032061
:1054D00006E0002004E0002002E0012000E00020BF
:1054E00002B070BD0120FBE7003802406000474277
:1054F00030B4036A23F001030362036A44688269DB
:1055000022F073020D682A4323F002038D682B43B7
:10551000114DA84211D005F58065A8420DD00E4D61
:10552000A84211D005F58065A8420DD04460826183
:105530004A684263036230BC704723F00803CD68B9
:105540002B4323F00403EAE724F440744D692C4311
:105550008D692C43EAE700BF0000014030B4036AC4
:1055600023F480730362036A4468C26922F0730201
:105570000D682A4323F400738D6843EA0523134D15
:10558000A84211D005F58065A8420DD00F4DA84264
:1055900012D005F58065A8420ED04460C2614A6809
:1055A000C263036230BC704723F40063CD6843EAF2
:1055B000052323F48063E9E724F440544D6944EA69
:1055C00005148D6944EA0514E7E700BF00000140B7
:1055D00030B4036A23F480530362036A4468C269E7
:1055E00022F4E6420D6842EA052223F400538D6856
:1055F00043EA0533094DA8420AD005F58065A84263
:1056000006D04460C2614A680264036230BC7047DD
:1056100024F480444D6944EA8514F2E70000014017
:105620007047022380F83D300268936803F0070357
:10563000062B03D0136843F001031360012380F8A5
:105640003D30002070470268D36843F00103D36007
:105650000268936803F00703062B03D0136843F036
:105660000103136000207047704770477047704710
:1056700010B5044603681A6912F0020F11D0DA68F7
:1056800012F0020F0DD06FF002021A6101230377AE
:1056900003689B6913F0030F70D0FFF7E6FF002348
:1056A000237723681A6912F0040F12D0DA6812F017
:1056B000040F0ED06FF004021A61022323772368CF
:1056C0009B6913F4407F5FD02046FFF7CEFF002395
:1056D000237723681A6912F0080F12D0DA6812F0E3
:1056E000080F0ED06FF008021A6104232377236895
:1056F000DB6913F0030F4ED02046FFF7B6FF0023FF
:10570000237723681A6912F0100F12D0DA6812F0AA
:10571000100F0ED06FF010021A6108232377236850
:10572000DB6913F4407F3DD02046FFF79EFF002346
:10573000237723681A6912F0010F03D0DA6812F098
:10574000010F36D123681A6912F0800F03D0DA688E
:1057500012F0800F34D123681A6912F0400F03D081
:10576000DA6812F0400F32D123681A6912F0200F64
:1057700003D0DA6812F0200F30D110BDFFF774FFAC
:105780002046FFF773FF8AE72046FFF76DFF2046AC
:10579000FFF76CFF9BE72046FFF766FF2046FFF709
:1057A00065FFACE72046FFF75FFF2046FFF75EFF8F
:1057B000BDE76FF001021A612046FDF7CFFAC1E79D
:1057C0006FF080021A61204600F015FAC3E76FF00F
:1057D00040021A612046FFF74AFFC5E76FF020023A
:1057E0001A61204600F006FAC7E700000368314A54
:1057F000904212D0B0F1804F0FD0A2F57C4290427F
:105800000BD002F58062904207D002F58062904290
:1058100003D002F57842904203D123F070034A6826
:105820001343244A90422AD0B0F1804F27D0A2F5EA
:105830007C42904223D002F5806290421FD002F554
:10584000806290421BD002F57842904217D002F558
:105850007052904213D002F5806290420FD002F550
:10586000806290420BD0A2F59832904207D002F5A8
:105870008062904203D002F58062904203D123F40B
:105880004073CA68134323F080034A6913430360DB
:105890008B68C3620B688362064B984206D003F59F
:1058A0008063984202D00123436170470B69036310
:1058B000F9E700BF00000140A8B110B5044690F818
:1058C0003D305BB1022384F83D30211D2068FFF795
:1058D0008DFF012384F83D30002010BD80F83C305E
:1058E000FFF79EFEEEE701207047A8B110B5044611
:1058F00090F83D305BB1022384F83D30211D2068D3
:10590000FFF774FF012384F83D30002010BD80F8BC
:105910003C30FDF7E7FCEEE701207047A8B110B579
:10592000044690F83D305BB1022384F83D30211DE0
:105930002068FFF75BFF012384F83D30002010BD95
:1059400080F83C30FDF75CFDEEE701207047000079
:1059500030B4036A23F010030362036A4468826967
:1059600022F4E6420D6842EA052223F020038D6806
:1059700043EA0513124DA84211D005F58065A842EF
:105980000DD00F4DA84212D005F58065A8420ED06B
:10599000446082614A688263036230BC704723F0CE
:1059A0008003CD6843EA051323F04003E9E724F4BC
:1059B00040644D6944EA85048D6944EA8504E7E75B
:1059C0000000014090F83C30012B28D010B504466F
:1059D000012380F83C30022380F83D300C2A0BD89C
:1059E000DFE802F0070A0A0A110A0A0A150A0A0A77
:1059F00019000068FFF77CFD012384F83D3000208A
:105A000084F83C0010BD0068FFF7A2FFF4E70068CF
:105A1000FFF7A4FDF0E70068FFF7DAFDECE70220EE
:105A2000704738B590F83C30012B66D00D460446DF
:105A3000012380F83C30022380F83D300C2A1AD82C
:105A4000DFE802F007191919201919193419191961
:105A500047000068FFF74CFD2268936943F0080394
:105A600093612268936923F0040393612268936928
:105A700029690B439361012384F83D30002084F8A9
:105A80003C0038BD0068FFF763FF2268936943F468
:105A9000006393612268936923F4806393612268B1
:105AA0009369296943EA01239361E4E70068FFF7FA
:105AB00055FD2268D36943F00803D3612268D36996
:105AC00023F00403D3612268D36929690B43D361AE
:105AD000D1E70068FFF77CFD2268D36943F40063D7
