:020000040800F2
:1000000000000520A5600008792900087B29000868
:100010007D2900087F2900088129000800000000D0
:1000200000000000000000000000000091460008F1
:1000300083290008000000003147000895470008A8
:10004000F5600008F5600008F5600008F56000083C
:10005000F5600008F5600008F5600008F56000082C
:10006000F5600008F5600008F5600008F56000081C
:10007000F5600008F5600008F560000885290008B3
:10008000F5600008F5600008F5600008F5600008FC
:1000900095290008F5600008F5600008F560000883
:1000A000F5600008F5600008F5600008F5600008DC
:1000B000F5600008F5600008F5600008F5600008CC
:1000C000F5600008F5600008F5600008F5600008BC
:1000D000F5600008F5600008F5600008F5600008AC
:1000E000F5600008F5600008F5600008F56000089C
:1000F000F5600008F5600008F5600008F56000088C
:10010000F5600008F5600008F5600008F56000087B
:10011000F5600008F5600008F5600008A5290008F2
:10012000F5600008F5600008F5600008F56000085B
:10013000F5600008F5600008F5600008F56000084B
:10014000F5600008B5290008F5600008F5600008B2
:10015000F5600008F5600008F5600008F56000082B
:10016000F5600008F5600008F5600008C529000882
:10017000F5600008F56000080000000000000000C5
:10018000F5600008F5600008F5600008F5600008FB
:10019000F5600008F560000800000000F560000848
:1001A000F5600008F5600008000000000000000095
:1001B000F56000080000000000000000F560000885
:1001C000F5600008F5600008F5600008F5600008BB
:0801D000F5600008F56000086D
:1001E000044B05481B1A062B02D9044B03B11847D0
:1001F000704700BF430400204004002000000000BE
:1002000005490648091A891001EBD171491002D03D
:10021000034B03B1184770474004002040040020FE
:100220000000000010B5064C237843B9FFF7D8FF53
:10023000044B13B10448AFF300800123237010BDB9
:1002400040040020000000000C61000808B5084BC5
:100250001BB108490848AFF300800848036813B988
:10026000BDE80840CCE7064B002BF9D09847F7E7EC
:1002700000000000440400200C610008400400203D
:1002800000000000002301461A46184600F02AB973
:1002900038B50A4C0A4D641BA4100AD004F18043FF
:1002A000013B05EB8305013C55F804399847002CC8
:1002B000F9D1BDE8384005F02FBF00BF3C6200080F
:1002C0003862000870B50F4E0F4D761BB61018BF80
:1002D000002405D0013455F8043B9847A642F9D1D3
:1002E0000A4E0B4D761B05F011FFB61018BF002407
:1002F00006D0013455F8043B9847A642F9D170BDA9
:1003000070BD00BF3062000830620008386200082B
:1003100030620008844641EA000313F003036DD104
:10032000403A41D351F8043B40F8043B51F8043BB8
:1003300040F8043B51F8043B40F8043B51F8043BBF
:1003400040F8043B51F8043B40F8043B51F8043BAF
:1003500040F8043B51F8043B40F8043B51F8043B9F
:1003600040F8043B51F8043B40F8043B51F8043B8F
:1003700040F8043B51F8043B40F8043B51F8043B7F
:1003800040F8043B51F8043B40F8043B51F8043B6F
:1003900040F8043B51F8043B40F8043B51F8043B5F
:1003A00040F8043B403ABDD2303211D351F8043BFF
:1003B00040F8043B51F8043B40F8043B51F8043B3F
:1003C00040F8043B51F8043B40F8043B103AEDD2AE
:1003D0000C3205D351F8043B40F8043B043AF9D2FF
:1003E000043208D0D2071CBF11F8013B00F8013BD2
:1003F00001D30B8803806046704700BF082A13D3DF
:100400008B078DD010F003038AD0C3F10403D21AF6
:10041000DB071CBF11F8013B00F8013B80D331F82A
:10042000023B20F8023B7BE7043AD9D3013A11F8AA
:10043000013B00F8013BF9D20B7803704B78437015
:100440008B7883706046704770B4860746D0541E20
:10045000002A41D0CAB2034602E014F1FF343BD374
:1004600003F8012B9D07F8D1032C2ED9CDB245EA14
:1004700005250F2C45EA054519D903F1100226463A
:10048000103E0F2E42F8105C42F80C5C42F8085CFB
:1004900042F8045C02F11002F2D8A4F1100222F03A
:1004A0000F0204F00F041032032C13440DD91E4622
:1004B0002246043A032A46F8045BFAD8221F22F0A7
:1004C00003020432134404F003042CB1C9B21C44E7
:1004D00003F8011B9C42FBD170BC704714460346D5
:1004E000C2E700BF2DE9F047254C2568D5F8484103
:1004F0000646884692469946C4B360681F2817DCB2
:10050000431C76B104EB80050122C5F888A0D4F81D
:10051000881182401143022EC4F88811C5F8089151
:100520001ED00230636044F820800020BDE8F087D0
:10053000144B03B34FF4C870AFF300800446D0B13E
:10054000D5F84831002780E88800C5F8484138468A
:100550000123C4F88871C4F88C71002EE1D0D1E772
:10056000D4F88C110A43C4F88C21DAE705F5A67497
:10057000C5F84841C1E74FF0FF30BDE8F08700BF44
:10058000246100080000000081F0004102E000BF8B
:1005900083F0004330B54FEA41044FEA430594EA43
:1005A000050F08BF90EA020F1FBF54EA000C55EA7E
:1005B000020C7FEA645C7FEA655C00F0E2804FEA4F
:1005C0005454D4EB5555B8BF6D420CDD2C4480EA31
:1005D000020281EA030382EA000083EA010180EA61
:1005E000020281EA0303362D88BF30BD11F0004FAF
:1005F0004FEA01314FF4801C4CEA113102D04042E5
:1006000061EB410113F0004F4FEA03334CEA13331F
:1006100002D0524263EB430394EA050F00F0A78037
:10062000A4F10104D5F1200E0DDB02FA0EFC22FA32
:1006300005F2801841F1000103FA0EF2801843FA26
:1006400005F359410EE0A5F120050EF1200E012A17
:1006500003FA0EFC28BF4CF0020C43FA05F3C01855
:1006600051EBE37101F0004507D54FF0000EDCF1CE
:10067000000C7EEB00006EEB0101B1F5801F1BD377
:10068000B1F5001F0CD349085FEA30004FEA3C0C7B
:1006900004F101044FEA445212F5800F80F09A8071
:1006A000BCF1004F08BF5FEA500C50F1000041EB75
:1006B000045141EA050130BD5FEA4C0C404141EB79
:1006C000010111F4801FA4F10104E9D191F0000FA0
:1006D00004BF01460020B1FA81F308BF2033A3F123
:1006E0000B03B3F120020CDA0C3208DD02F1140C1A
:1006F000C2F10C0201FA0CF021FA02F10CE002F155
:100700001402D8BFC2F1200C01FA02F120FA0CFC4D
:10071000DCBF41EA0C019040E41AA2BF01EB045196
:10072000294330BD6FEA04041F3C1CDA0C340EDC94
:1007300004F11404C4F1200220FA04F001FA02F3D7
:1007400040EA030021FA04F345EA030130BDC4F195
:100750000C04C4F1200220FA02F001FA04F340EA8A
:100760000300294630BD21FA04F0294630BD94F03B
:10077000000F83F4801306BF81F480110134013D22
:100780004EE77FEA645C18BF7FEA655C29D094EA93
:10079000050F08BF90EA020F05D054EA000C04BF11
:1007A0001946104630BD91EA030F1EBF00210020FC
:1007B00030BD5FEA545C05D14000494128BF41F09B
:1007C000004130BD14F580043CBF01F5801130BDFF
:1007D00001F0004545F0FE4141F470014FF000008A
:1007E00030BD7FEA645C1ABF194610467FEA655C3B
:1007F0001CBF0B46024650EA013406BF52EA0335DD
:1008000091EA030F41F4002130BD00BF90F0000FCA
:1008100004BF0021704730B54FF4806404F1320406
:100820004FF000054FF0000150E700BF90F0000FBF
:1008300004BF0021704730B54FF4806404F13204E6
:1008400010F0004548BF40424FF000013EE700BFB6
:1008500042004FEAE2014FEA31014FEA02701FBF46
:1008600012F07F4393F07F4F81F06051704792F018
:10087000000F14BF93F07F4F704730B54FF4607492
:1008800001F0004521F0004120E700BF50EA0102DD
:1008900008BF704730B54FF000050AE050EA01028A
:1008A00008BF704730B511F0004502D5404261EBFA
:1008B00041014FF4806404F132045FEA915C3FF43B
:1008C000DCAE4FF003025FEADC0C18BF03325FEAD4
:1008D000DC0C18BF033202EBDC02C2F1200300FA89
:1008E00003FC20FA02F001FA03FE40EA0E0021FAAE
:1008F00002F11444C1E600BF70B54FF0FF0C4CF498
:10090000E06C1CEA11541DBF1CEA135594EA0C0F4D
:1009100095EA0C0F00F0DEF82C4481EA030621EA88
:100920004C5123EA4C5350EA013518BF52EA0335C3
:1009300041F4801143F4801338D0A0FB02CE4FF075
:100940000005E1FB02E506F00042E0FB03E54FF0A5
:100950000006E1FB03569CF0000F18BF4EF0010E9D
:10096000A4F1FF04B6F5007F64F5407404D25FEA99
:100970004E0E6D4146EB060642EAC62141EA55514C
:100980004FEAC52040EA5E504FEACE2EB4F1FD0C8E
:1009900088BFBCF5E06F1ED8BEF1004F08BF5FEA0C
:1009A000500E50F1000041EB045170BD06F00046BE
:1009B00046EA010140EA020081EA0301B4EB5C046B
:1009C000C2BFD4EB0C0541EA045170BD41F4801163
:1009D0004FF0000E013C00F3AB8014F1360FDEBF88
:1009E000002001F0004170BDC4F10004203C35DA64
:1009F0000C341BDC04F11404C4F1200500FA05F3E7
:100A000020FA04F001FA05F240EA020001F0004287
:100A100021F0004110EBD37021FA04F642EB0601FD
:100A20005EEA430E08BF20EAD37070BDC4F10C0427
:100A3000C4F1200500FA04F320FA05F001FA04F2EB
:100A400040EA020001F0004110EBD37041F10001D7
:100A50005EEA430E08BF20EAD37070BDC4F12005E2
:100A600000FA05F24EEA020E20FA04F301FA05F24A
:100A700043EA020321FA04F001F0004121FA04F2F2
:100A800020EA020000EBD3705EEA430E08BF20EAC2
:100A9000D37070BD94F0000F0FD101F000464000FC
:100AA00041EB010111F4801F08BF013CF7D041EA7E
:100AB000060195F0000F18BF704703F00046520082
:100AC00043EB030313F4801F08BF013DF7D043EA53
:100AD0000603704794EA0C0F0CEA135518BF95EA09
:100AE0000C0F0CD050EA410618BF52EA4306D1D190
:100AF00081EA030101F000414FF0000070BD50EAAF
:100B0000410606BF1046194652EA430619D094EA38
:100B10000C0F02D150EA013613D195EA0C0F05D122
:100B200052EA03361CBF104619460AD181EA030176
:100B300001F0004141F0FE4141F470014FF000002E
:100B400070BD41F0FE4141F4780170BD70B54FF0C9
:100B5000FF0C4CF4E06C1CEA11541DBF1CEA135549
:100B600094EA0C0F95EA0C0F00F0A7F8A4EB05042B
:100B700081EA030E52EA03354FEA013100F0888022
:100B80004FEA03334FF0805545EA131343EA1263EB
:100B90004FEA022245EA111545EA10654FEA0026A0
:100BA0000EF000419D4208BF964244F1FD0404F559
:100BB000407402D25B084FEA3202B61A65EB0305B5
:100BC0005B084FEA32024FF480104FF4002CB6EB72
:100BD000020E75EB030E22BFB61A754640EA0C00F2
:100BE0005B084FEA3202B6EB020E75EB030E22BF32
:100BF000B61A754640EA5C005B084FEA3202B6EB73
:100C0000020E75EB030E22BFB61A754640EA9C0031
:100C10005B084FEA3202B6EB020E75EB030E22BF01
:100C2000B61A754640EADC0055EA060E18D04FEABF
:100C3000051545EA16754FEA06164FEAC30343EA5F
:100C400052734FEAC2025FEA1C1CC0D111F4801F2C
:100C50000BD141EA00014FF000004FF0004CB6E725
:100C600011F4801F04BF01430020B4F1FD0C88BFC4
:100C7000BCF5E06F3FF6AFAEB5EB030C04BFB6EBCF
:100C8000020C5FEA500C50F1000041EB045170BDC2
:100C90000EF0004E4EEA113114EB5C04C2BFD4EBEF
:100CA0000C0541EA045170BD41F480114FF0000E73
:100CB000013C90E645EA060E8DE60CEA135594EAEF
:100CC0000C0F08BF95EA0C0F3FF43BAF94EA0C0FF2
:100CD0000AD150EA01347FF434AF95EA0C0F7FF467
:100CE00025AF104619462CE795EA0C0F06D152EABB
:100CF00003353FF4FDAE1046194622E750EA41069F
:100D000018BF52EA43067FF4C5AE50EA41047FF4AF
:100D10000DAF52EA43057FF4EBAE12E74A0011D261
:100D200012F5001211D20DD56FF47873B3EB625245
:100D30000ED44FEAC12343F0004343EA505323FA51
:100D400002F070474FF00000704750EA013002D1C6
:100D50004FF0FF3070474FF00000704753B94AB969
:100D6000002908BF00281CBF4FF0FF314FF0FF30B3
:100D700000F07AB9ADF1080C6DE904CE00F006F888
:100D8000DDF804E0DDE9022304B070472DE9F04707
:100D90008C460D460446089E002B51D18A421746C8
:100DA0006DD9B2FA82FEBEF1000F0BD0CEF1200C4D
:100DB00001FA0EF520FA0CFC02FA0EF74CEA050CCB
:100DC00000FA0EF44FEA174A250CBCFBFAF81FFA9A
:100DD00087F90AFB18CC45EA0C4508FB09F3AB423E
:100DE0000AD9ED1908F1FF3280F02381AB4240F2BD
:100DF0002081A8F102083D44ED1AA4B2B5FBFAF037
:100E00000AFB105544EA054400FB09F9A14509D93C
:100E1000E41900F1FF3380F00A81A14540F2078117
:100E200002383C44A4EB090440EA08400021002EAB
:100E300061D024FA0EF4002334607360BDE8F087BB
:100E40008B4207D9002E54D0002186E821000846A5
:100E5000BDE8F087B3FA83F1002940F08E80AB4201
:100E600002D3824200F2FA80841A65EB0305012066
:100E7000AC46002E3FD086E81010BDE8F08712B9CE
:100E80000127B7FBF2F7B7FA87FEBEF1000F34D1A6
:100E9000EB1B3A0C1FFA87FC0121B3FBF2F8250C7F
:100EA00002FB183345EA03450CFB08F3AB4207D9B4
:100EB000ED1908F1FF3002D2AB4200F2D18080463A
:100EC000ED1AA3B2B5FBF2F002FB105543EA05445C
:100ED0000CFB00FCA44507D9E41900F1FF3302D252
:100EE000A44500F2B8801846A4EB0C0440EA084080
:100EF0009DE731463046BDE8F087CEF1200405FA83
:100F00000EF307FA0EF720FA04F83A0C25FA04F467
:100F100048EA0308B4FBF2F14FEA184502FB11441A
:100F20001FFA87FC45EA044501FB0CF3AB4200FACB
:100F30000EF409D9ED1901F1FF3080F08A80AB423F
:100F400040F2878002393D44EB1A1FFA88F5B3FB63
:100F5000F2F002FB103345EA034500FB0CF3AB4211
:100F600007D9ED1900F1FF386FD2AB426DD90238C5
:100F70003D44EB1A40EA01418FE7C1F1200722FA14
:100F800007F88B4005FA01F448EA030320FA07FE4C
:100F90004FEA134CFD404EEA040EB5FBFCF94FEA54
:100FA0001E440CFB19551FFA83F844EA054509FB5A
:100FB00008F4AC4202FA01F200FA01FA08D9ED187D
:100FC00009F1FF3043D2AC4241D9A9F102091D44D5
:100FD0002D1B1FFA8EFEB5FBFCF00CFB10554EEAE4
:100FE000054400FB08F8A04507D9E41800F1FF35D7
:100FF00029D2A04527D902381C4440EA0940A4EB75
:101000000804A0FB02894C45C6464D4615D312D0B4
:1010100056B1BAEB0E0364EB050404FA07F7CB40B4
:101020001F43CC40376074600021BDE8F08718464C
:10103000F8E69046E0E6C245EAD2B8EB020E69EB6C
:1010400003050138E4E72846D7E7404691E78146A3
:10105000BEE7014678E702383C4445E7084608E722
:10106000A8F102083D442BE7704700BF0023A0F819
:10107000E43000E001335F2B08D830F81320B0F8DB
:10108000E4108A42F6D9A0F8E420F3E7B0F8E400CF
:1010900070470023A0F8EA3000E001330F2B0CD892
:1010A00003F1600230F81220B0F8EA108A42F4D955
:1010B000002AF2D0A0F8EA20EFE7B0F8EA00704783
:1010C0000023A0F8EC3000E001330F2B0AD803F125
:1010D000600230F81220B0F8EC108A42F4D9A0F87F
:1010E000EC20F1E7B0F8E200704710B40023194695
:1010F0001C4601E0114401330F2B07D803F16002B5
:1011000030F81220002AF5D10134F3E7C4F11004BD
:1011100091FBF4F189B2A0F8EE1008465DF8044B9B
:101120007047B0F8EA30B0F8EC209B1A9BB2A0F8F8
:10113000F03018467047B0F8E430B0F8E2209B1A5F
:101140009BB2A0F8E8301846704741F28833A0F807
:10115000E230002300E001335F2B08D830F8132081
:10116000B0F8E2108A42F6D2A0F8E220F3E7B0F835
:10117000E200704700231A4603E030F813100A44D7
:1011800001335F2BF9D9054981FB0231D317C3EB3A
:101190002113A0F8EE30B0F8E6007047ABAAAA2AF7
:1011A00000231A4603E030F813100A4401335F2B82
:1011B000F9D9044BA3FB0223C3F3CF03A0F8E0301B
:1011C00018467047CDCCCCCC38B500251FE0114B6C
:1011D000F22404FB05342046FFF7E2FF2046FFF728
:1011E000C9FF2046FFF7B1FF2046FFF73FFF20462B
:1011F000FFF7A1FF2046FFF763FF2046FFF749FFF7
:101200002046FFF772FF2046FFF78BFF0135012DC7
:10121000DDD938BD604D0020F8B50C484FF400779B
:101220000760032606610A4902250D7000244C70F0
:101230008C7001F063F807480760066106490D707D
:101240004C708C7001F076F8F8BD00BF7C50002027
:10125000B84F0020105000201C51002038B5054622
:1012600014460B68A3F58C631E2B00F22186DFE881
:1012700013F01F007B00F5006F01EC016C02EE0221
:101280001F067203F40376041F06FA045C05BE050C
:101290001F064D00B8003201AF012B02AD02310331
:1012A0001F06B3033504B9041F062B058D05EF0592
:1012B00023781B0203F4706360781844FFF7B6FAD2
:1012C0000022C24BFFF718FBFFF728FD2880A37808
:1012D0001B0203F47063E0781844FFF7A7FA0022BA
:1012E000BA4BFFF709FBFFF719FD688023791B0252
:1012F00003F4706360791844FFF798FA0022B34B47
:10130000FFF7FAFAFFF70AFDA88038BD23781B0221
:1013100003F4706360781844FFF788FA0022AB4B3F
:10132000FFF7EAFAFFF7FAFCE880A3781B0203F460
:101330007063E0781844FFF779FA0022A34BFFF7B7
:10134000DBFAFFF7EBFC288123791B0203F47063BF
:1013500060791844FFF76AFA00229C4BFFF7CCFA39
:10136000FFF7DCFC688138BD23781B0203F470634F
:1013700060781844FFF75AFA0022944BFFF7BCFA42
:10138000FFF7CCFCA881A3781B0203F47063E0781C
:101390001844FFF74BFA00228C4BFFF7ADFAFFF72A
:1013A000BDFCE88123791B0203F470636079184463
:1013B000FFF73CFA0022854BFFF79EFAFFF7AEFCE1
:1013C0002882A3791B0203F47063E0791844FFF7C5
:1013D0002DFA00227D4BFFF78FFAFFF79FFC688202
:1013E00038BD23781B0203F4706360781844FFF75C
:1013F0001DFA0022754BFFF77FFAFFF78FFCA882DA
:10140000A3781B0203F47063E0781844FFF70EFA28
:1014100000226E4BFFF770FAFFF780FCE882237919
:101420001B0203F4706360791844FFF7FFF9002290
:10143000664BFFF761FAFFF771FC2883A3791B0263
:1014400003F47063E0791844FFF7F0F900225F4B72
:10145000FFF752FAFFF762FC688338BD23781B025E
:1014600003F4706360781844FFF7E0F90022574BEB
:10147000FFF742FAFFF752FCA883A3781B0203F49C
:101480007063E0781844FFF7D1F900224F4BFFF763
:1014900033FAFFF743FCE88323791B0203F47063FC
:1014A00060791844FFF7C2F90022484BFFF724FA8D
:1014B000FFF734FC2884A3791B0203F47063E079FE
:1014C0001844FFF7B3F90022404BFFF715FAFFF776
:1014D00025FC688438BD23781B0203F470636078B0
:1014E0001844FFF7A3F90022384BFFF705FAFFF77E
:1014F00015FCA884A3781B0203F47063E0781844F9
:10150000FFF794F90022314BFFF7F6F9FFF706FCDD
:10151000E88423791B0203F4706360791844FFF7B1
:1015200085F90022294BFFF7E7F9FFF7F7FB28853C
:10153000A3791B0203F47063E0791844FFF776F98E
:101540000022224BFFF7D8F9FFF7E8FB688538BD8A
:1015500023781B0203F4706360781844FFF766F980
:1015600000221A4BFFF7C8F9FFF7D8FBA885A3782C
:101570001B0203F47063E0781844FFF757F9002268
:10158000124BFFF7B9F9FFF7C9FBE88523791B0276
:1015900003F4706360791844FFF748F900220B4B9D
:1015A000FFF7AAF9FFF7BAFB2886A3791B0203F419
:1015B0007063E0791844FFF739F90022034BFFF715
:1015C0009BF9FFF7ABFB688638BD00BF0000F43F16
:1015D00023781B0203F4706360781844FFF726F940
:1015E0000022BB4BFFF788F9FFF798FBA886A3788A
:1015F0001B0203F47063E0781844FFF717F9002228
:10160000B34BFFF779F9FFF789FBE88623791B02D3
:1016100003F4706360791844FFF708F90022AC4BBB
:10162000FFF76AF9FFF77AFB2887A3791B0203F417
:101630007063E0791844FFF7F9F80022A44BFFF734
:101640005BF9FFF76BFB688738BD23781B0203F457
:10165000706360781844FFF7E9F800229C4BFFF7AD
:101660004BF9FFF75BFBA887A3781B0203F47063B9
:10167000E0781844FFF7DAF80022954BFFF73CF9C1
:10168000FFF74CFBE88723791B0203F47063607952
:101690001844FFF7CBF800228D4BFFF72DF9FFF729
:1016A0003DFBA5F84000A3791B0203F47063E079C9
:1016B0001844FFF7BBF80022854BFFF71DF9FFF731
:1016C0002DFBA5F8420038BD23781B0203F470639C
:1016D00060781844FFF7AAF800227D4BFFF70CF959
:1016E000FFF71CFBA5F84400A3781B0203F470630A
:1016F000E0781844FFF79AF80022754BFFF7FCF8E2
:10170000FFF70CFBA5F8460023791B0203F4706376
:1017100060791844FFF78AF800226D4BFFF7ECF868
:10172000FFF7FCFAA5F84800A3791B0203F47063E5
:10173000E0791844FFF77AF80022654BFFF7DCF8F0
:10174000FFF7ECFAA5F84A0038BD23781B0203F432
:10175000706360781844FFF769F800225C4BFFF76C
:10176000CBF8FFF7DBFAA5F84C00A3781B0203F4D3
:101770007063E0781844FFF759F80022544BFFF7E4
:10178000BBF8FFF7CBFAA5F84E0023791B0203F450
:10179000706360791844FFF749F800224C4BFFF75B
:1017A000ABF8FFF7BBFAA5F85000A3791B0203F4CE
:1017B0007063E0791844FFF739F80022444BFFF7D3
:1017C0009BF8FFF7ABFAA5F8520038BD23781B024F
:1017D00003F4706360781844FFF728F800223C4B4C
:1017E000FFF78AF8FFF79AFAA5F85400A3781B02CE
:1017F00003F47063E0781844FFF718F80022344BC4
:10180000FFF77AF8FFF78AFAA5F8560023791B024A
:1018100003F4706360791844FFF708F800222C4B3A
:10182000FFF76AF8FFF77AFAA5F85800A3791B02C8
:1018300003F47063E0791844FEF7F8FF0022244BAC
:10184000FFF75AF8FFF76AFAA5F85A0038BD23786F
:101850001B0203F4706360781844FEF7E7FF002270
:101860001B4BFFF749F8FFF759FAA5F85C00A3787E
:101870001B0203F47063E0781844FEF7D7FF0022E0
:10188000134BFFF739F8FFF749FAA5F85E00237903
:101890001B0203F4706360791844FEF7C7FF00224F
:1018A0000B4BFFF729F8FFF739FAA5F86000A37989
:1018B0001B0203F47063E0791844FEF7B7FF0022BF
:1018C000034BFFF719F8FFF729FAA5F8620038BDB6
:1018D0000000F43F23781B0203F47063607818441F
:1018E000FEF7A4FF0022BE4BFFF706F8FFF716FA3B
:1018F000A5F86400A3781B0203F47063E078184431
:10190000FEF794FF0022B64BFEF7F6FFFFF706FA4C
:10191000A5F8660023791B0203F47063607918440C
:10192000FEF784FF0022AE4BFEF7E6FFFFF7F6F965
:10193000A5F86800A3791B0203F47063E0791844EA
:10194000FEF774FF0022A64BFEF7D6FFFFF7E6F97D
:10195000A5F86A0038BD23781B0203F47063607831
:101960001844FEF763FF00229D4BFEF7C5FFFFF70B
:10197000D5F9A5F86C00A3781B0203F47063E07836
:101980001844FEF753FF0022954BFEF7B5FFFFF713
:10199000C5F9A5F86E0023791B0203F47063607922
:1019A0001844FEF743FF00228D4BFEF7A5FFFFF71B
:1019B000B5F9A5F87000A3791B0203F47063E07910
:1019C0001844FEF733FF0022854BFEF795FFFFF723
:1019D000A5F9A5F8720038BD23781B0203F47063E3
:1019E00060781844FEF722FF00227D4BFEF784FF4B
:1019F000FFF794F9A5F87400A3781B0203F4706351
:101A0000E0781844FEF712FF0022754BFEF774FFD2
:101A1000FFF784F9A5F8760023791B0203F47063BD
:101A200060791844FEF702FF00226D4BFEF764FF59
:101A3000FFF774F9A5F87800A3791B0203F470632B
:101A4000E0791844FEF7F2FE0022654BFEF754FFE2
:101A5000FFF764F9A5F87A0038BD23781B0203F478
:101A6000706360781844FEF7E1FE00225C4BFEF7DD
:101A700043FFFFF753F9A5F87C00A3781B0203F49A
:101A80007063E0781844FEF7D1FE0022544BFEF755
:101A900033FFFFF743F9A5F87E0023791B0203F417
:101AA000706360791844FEF7C1FE00224C4BFEF7CC
:101AB00023FFFFF733F9A5F88000A3791B0203F495
:101AC0007063E0791844FEF7B1FE0022444BFEF744
:101AD00013FFFFF723F9A5F8820038BD23781B0216
:101AE00003F4706360781844FEF7A0FE00223C4BBC
:101AF000FEF702FFFFF712F9A5F88400A3781B0296
:101B000003F47063E0781844FEF790FE0022344B33
:101B1000FEF7F2FEFFF702F9A5F8860023791B0213
:101B200003F4706360791844FEF780FE00222C4BAA
:101B3000FEF7E2FEFFF7F2F8A5F88800A3791B0292
:101B400003F47063E0791844FEF770FE0022244B22
:101B5000FEF7D2FEFFF7E2F8A5F88A0038BD237839
:101B60001B0203F4706360781844FEF75FFE0022E6
:101B70001B4BFEF7C1FEFFF7D1F8A5F88C00A37848
:101B80001B0203F47063E0781844FEF74FFE002256
:101B9000134BFEF7B1FEFFF7C1F8A5F88E002379CD
:101BA0001B0203F4706360791844FEF73FFE0022C5
:101BB0000B4BFEF7A1FEFFF7B1F8A5F89000A37953
:101BC0001B0203F47063E0791844FEF72FFE002235
:101BD000034BFEF791FEFFF7A1F8A5F8920038BD80
:101BE0000000F43F23781B0203F47063607818440C
:101BF000FEF71CFE0022AF4BFEF77EFEFFF78EF8CD
:101C0000A5F89400A3781B0203F47063E0781844ED
:101C1000FEF70CFE0022A74BFEF76EFEFFF77EF8E4
:101C2000A5F8960023791B0203F4706360791844C9
:101C3000FEF7FCFD00229F4BFEF75EFEFFF76EF8FD
:101C4000A5F89800A3791B0203F47063E0791844A7
:101C5000FEF7ECFD0022974BFEF74EFEFFF75EF815
:101C6000A5F89A0038BD23781B0203F470636078EE
:101C70001844FEF7DBFD00228E4BFEF73DFEFFF71A
:101C80004DF8A5F89C00A3781B0203F47063E0787C
:101C90001844FEF7CBFD0022864BFEF72DFEFFF722
:101CA0003DF8A5F89E0023791B0203F47063607968
:101CB0001844FEF7BBFD00227E4BFEF71DFEFFF72A
:101CC0002DF8A5F8A00038BD23781B0203F470633B
:101CD00060781844FEF7AAFD0022764BFEF70CFE52
:101CE000FFF71CF8A5F8A200A3781B0203F47063A9
:101CF000E0781844FEF79AFD00226E4BFEF7FCFDDB
:101D0000FFF70CF8A5F8A40023791B0203F4706315
:101D100060791844FEF78AFD0022664BFEF7ECFD61
:101D2000FEF7FCFFA5F8A60038BD23781B0203F4DC
:101D3000706360781844FEF779FD00225D4BFEF772
:101D4000DBFDFEF7EBFFA5F8A800A3781B0203F468
:101D50007063E0781844FEF769FD0022554BFEF7EA
:101D6000CBFDFEF7DBFFA5F8AA0023791B0203F4E5
:101D7000706360791844FEF759FD00224D4BFEF761
:101D8000BBFDFEF7CBFFA5F8AC0038BD23781B02E6
:101D900003F4706360781844FEF748FD0022454B59
:101DA000FEF7AAFDFEF7BAFFA5F8AE00A3781B0266
:101DB00003F47063E0781844FEF738FD00223D4BD1
:101DC000FEF79AFDFEF7AAFFA5F8B00023791B02E3
:101DD00003F4706360791844FEF728FD0022354B48
:101DE000FEF78AFDFEF79AFFA5F8B20038BD23780A
:101DF0001B0203F4706360781844FEF717FD00229D
:101E00002C4BFEF779FDFEF789FFA5F8B400A37807
:101E10001B0203F47063E0781844FEF707FD00220C
:101E2000244BFEF769FDFEF779FFA5F8B60023798C
:101E30001B0203F4706360791844FEF7F7FC00227C
:101E40001C4BFEF759FDFEF769FFA5F8B80038BD39
:101E500023781B0203F4706360781844FEF7E6FCF5
:101E60000022144BFEF748FDFEF758FFA5F8BA0014
:101E7000A3781B0203F47063E0781844FEF7D6FCE5
:101E800000220C4BFEF738FDFEF748FFA5F8BC001A
:101E900023791B0203F4706360791844FEF7C6FCD3
:101EA0000022044BFEF728FDFEF738FFA5F8BE0020
:101EB00038BD00BF0000F43F10B40B68A3F5FC630D
:101EC0000E2B14D8DFE803F008162237434F6413B3
:101ED000707C91139DA9B5001178537803EB012311
:101EE000A3EBC30303F5E0431C33A0F8C0305DF857
:101EF000044B70471178537803EB0123A3EBC30322
:101F000003F5E0431C33A0F8C230F0E711785378B2
:101F100003EB0123A3EBC30347F21C010B44A0F81E
:101F2000C4309478D37803EB0423A3EBC3030B44AE
:101F3000A0F8C630DBE71178537803EB0123A3EB5D
:101F4000C30303F5E0431C33A0F8C830CFE7117892
:101F5000537803EB0123A3EBC30303F5E0431C33E6
:101F6000A0F8CA30C3E71178537803EB0123A3EB41
:101F7000C30347F21C010B44A0F8CC309478D3780B
:101F800003EB0423A3EBC3030B44A0F8CE30AEE76E
:101F90001178537803EB0123A3EBC30303F5E0436C
:101FA0001C33A0F8D030A2E71178537803EB01235B
:101FB000A3EBC30303F5E0431C33A0F8D23096E74C
:101FC0001178537803EB0123A3EBC30347F21C0101
:101FD0000B44A0F8D4309478D37803EB0423A3EB1C
:101FE000C3030B44A0F8D63081E71178537803EB94
:101FF0000123A3EBC30303F5E0431C33A0F8D8305F
:1020000075E71178537803EB0123A3EBC30303F5C2
:10201000E0431C33A0F8DA3069E71178537803EB1A
:102020000123A3EBC30303F5E0431C33A0F8DC302A
:102030005DE71178537803EB0123A3EBC30303F5AA
:10204000E0431C33A0F8DE3051E70000F8B5044649
:1020500002681C4B9A4204D022681B4B9A4218D04B
:10206000F8BD1A4B1A4A00211A4800F0E4FE68B97C
:10207000164F174E184D3A4631462846FFF7EEF8F0
:102080003A4631462846FFF717FFE5E700F0FCF92E
:10209000EEE7124B124A0021124800F0CCFE68B95C
:1020A0000E4E0F4D104C324629462046FFF7D6F80B
:1020B000324629462046FFF7FFFED1E700F0E4F95B
:1020C000EEE700BF00640040006C00404C5100206F
:1020D000D84F0020F4500020604D0020A451002073
:1020E000444F002028500020524E002070B5044676
:1020F0000268154B9A4204D02268144B9A420BD0C6
:1021000070BD134B134A0121134800F094FE0028C0
:10211000F2D000F0B9F9EFE7104B114A0121114854
:1021200000F089FE68B90D4E0D4D0F4C3246294620
:102130002046FFF793F8324629462046FFF7BCFEBB
:10214000DEE700F0A1F9EEE700680040006C004017
:10215000B04F0020D850002050500020A451002043
:10216000444F002028500020524E002008B5574A06
:1021700000239360D3601375554A04219160D360A6
:10218000137554494B618B61CB614FF6FF724A6006
:1021900041F6FF720A60CB608B600B610E234B62CD
:1021A00001230B624C4800F009FD002872D14A4817
:1021B00000F09EFD002870D10221474800F0D5FEB6
:1021C00000286DD100220321132001F029F81320EB
:1021D00001F058F8414A00239360D3601375404AD8
:1021E00004219160D36013753E490E224A618B61D0
:1021F000CB614FF6FF70486041F6FF700860CB601E
:102200008B6001230B614A620B62374800F0D6FCF9
:10221000002848D1344800F06BFD002846D1102139
:10222000314800F0A2FE002843D1002203213F20C4
:1022300000F0F6FF3F2001F025F82C4A00239360C0
:10224000D36013752A4A04219160D360137529491C
:1022500001224A618B61CA614B600B60CB608B606D
:102260000B610E234B620A62234800F0A7FC18BBE7
:10227000214800F03DFD10BB02211F4800F075FE13
:1022800000BB002203214A2000F0CAFF4A2000F0D0
:10229000F9FF08BD00F0F8F889E700F0F5F88BE7E2
:1022A00000F0F2F88EE700F0EFF8B3E700F0ECF89A
:1022B000B5E700F0E9F8B8E700F0E6F8D8E700F095
:1022C000E3F8D9E700F0E0F8DBE700BF7C5000203E
:1022D000BC500020884F0020F4500020F84F002010
:1022E000C04F0020245100205050002010500020EA
:1022F000985000207C5100202850002008B50A4B3F
:102300000A460146094800F021FD094A13680133D5
:102310001360022B00DC08BD012000F095FB0022B9
:10232000034B1A60F7E700BF94500020F4500020E0
:10233000D450002008B50B4B0A4601460A4800F06D
:1023400005FD0A4A136801331360094B1B68022B11
:1023500000DC08BD012000F077FB0022044B1A606E
:10236000F7E700BF7850002028500020B050002030
:10237000F44F002030B58BB00024059406940794E8
:102380000894099401941E4B1A6B42F004021A63DC
:102390001A6B02F004020192019A02941A6B42F045
:1023A00080021A631A6B02F080020292029A03946E
:1023B0001A6B42F002021A631A6B02F002020392D5
:1023C000039A04941A6B42F001021A631B6B03F028
:1023D00001030493049B0B4D22464FF40051284601
:1023E00001F004FA4FF40053059301230693079478
:1023F000089405A9284601F00FF90BB030BD00BFC5
:10240000003802400008024000B583B0002201926B
:10241000094B196B41F4001119631B6B03F4001392
:102420000193019B05210F2000F0FAFE0F2000F020
:1024300029FF03B05DF804FB0038024008B5012015
:1024400002F052F8FBE708B543F6982002F04CF88A
:10245000FAE708B5FEF7E0FEC82002F045F8F9E714
:1024600008B5FEF7B1FE4FF47A7002F03DF8F8E7D8
:1024700008B50268034B9A4200D008BD00F0D2FABA
:10248000FBE700BF0014004072B6FEE708B50D4838
:102490000D4B03603023436000238360C3604FF41F
:1024A000803202614FF400124261037643768376F4
:1024B000C3760377437700F0DBFA00B908BDFFF776
:1024C000E3FF00BFF45000200064004008B50D4851
:1024D0000D4B03600C23436000238360C3604FF403
:1024E000803202614FF400124261037643768376B4
:1024F000C3760377437700F0BBFA00B908BDFFF756
:10250000C3FF00BF505000200068004008B50D48D0
:102510000D4B03603023436000238360C3604FF49E
:10252000803202614FF40012426103764376837673
:10253000C3760377437700F09BFA00B908BDFFF735
:10254000A3FF00BF28500020006C004000B58BB0F6
:102550000023089309930193029303930493059333
:10256000069307931448154A02605A22426083601A
:102570004FF6FF72C2600361836101F03EFEA0B9B5
:1025800000230893099308A90B4801F0B9FE70B91C
:102590000022019202920392059201A9064801F0DD
:1025A0007FFE30B90BB05DF804FBFFF76DFFFFF75E
:1025B0006BFFFFF769FF00BFB85100200004004027
:1025C00000B595B03422002107A8FDF73DFF002398
:1025D0000293039304930593069300931E4A116C90
:1025E00041F080511164126C02F080520092009A06
:1025F00001931A4A116841F440411160126802F4D3
:1026000040420192019A0222079201210A9110216F
:102610000B910D920E9308230F9348231093119260
:102620001292139207A801F035FA80B90F23029392
:1026300002210391002304934FF4805205920693E4
:1026400002A801F043F920B915B05DF804FBFFF7CB
:102650001BFFFFF719FF00BF003802400070004069
:1026600008B500F0C5F9FFF7ABFFFFF783FEFFF7F2
:10267000CBFEFFF70BFFFFF729FFFFF747FFFFF741
:1026800065FFFFF773FD01F081FE0F4A00210F483F
:1026900001F0C0FE0E4B18600E4A00210E4801F0FA
:1026A000B9FE0E4B18600E4A00210E4801F0B2FE32
:1026B0000D4B18600D4A00210D4801F0ABFE0D4B8B
:1026C000186001F083FEFEE74C6100083D2400081D
:1026D000B05100209461000853240008B451002038
:1026E0002861000847240008585200207061000843
:1026F00061240008AC51002000B583B00022009294
:102700000D4B596C41F480415964596C01F480417E
:10271000009100990192196C41F0805119641B6C71
:1027200003F080530193019B0F216FF0010000F033
:1027300077FD03B05DF804FB0038024010B58CB0A3
:1027400000230793089309930A930B930368474A5E
:10275000934207D0464A934230D0464A934259D0DA
:102760000CB010BD00240194434B1A6C42F000726F
:102770001A641A6C02F000720192019A02941A6BA8
:1027800042F002021A631B6B03F002030293029BE6
:102790004FF4407307930223089303230A930823FB
:1027A0000B9307A9354800F037FF22460521142076
:1027B00000F036FD142000F065FDD1E700240394FD
:1027C0002D4B1A6C42F080621A641A6C02F080621F
:1027D0000392039A04941A6B42F002021A631B6B71
:1027E00003F002030493049B4FF440530793022326
:1027F000089303230A9309230B9307A91F4800F0AA
:102800000BFF22460521412000F00AFD412000F087
:1028100039FDA5E700210591174B1A6C42F00062C3
:102820001A641A6C02F000620592059A06911A6BFE
:1028300042F002021A631B6B03F002030693069B2D
:10284000182307930224089403230A930B230B9362
:1028500007A90A4800F0E0FE224601214B2000F0C3
:10286000DFFC4B2000F00EFD7AE700BF0064004063
:1028700000680040006C0040003802400004024044
:1028800002681A4B9A4200D0704710B582B00446D5
:1028900000230193164A116C41F002011164126C7D
:1028A00002F002020192019A1248134A02604FF0AC
:1028B0002062426040228260C3604FF48062026105
:1028C0004FF4805242614FF480428261C3610362DF
:1028D000436200F04BFD28B9064B6362A3639C631F
:1028E00002B010BDFFF7D0FDF6E700BF00040040C6
:1028F00000380240F85100207060024010B588B0E6
:1029000000220146372000F08BFC372000F0BAFC93
:1029100000240194144B1A6C42F020021A641B6CC0
:1029200003F020030193019B02A903A801F094F88E
:1029300001F082F843000D48A0FB03239B0C013BF0
:102940000B480C4A026040F2E732C2604360046107
:10295000846001F039FC10B1012008B010BD0448BA
:1029600001F0F9FAF9E700BF0038024083DE1B43AB
:102970005C52002000140040FEE7FEE7FEE7FEE7A1
:10298000FEE7704708B5024800F058FD08BD00BFDB
:10299000F851002008B5024800F004FB08BD00BF54
:1029A000F450002008B5024801F0EAFA08BD00BF63
:1029B0005C52002008B5024800F0F4FA08BD00BFE0
:1029C0005050002008B5024800F0ECFA08BD00BFE6
:1029D00028500020054BD3F8882042F47002C3F839
:1029E00088204FF000629A60704700BF00ED00E061
:1029F00008B50B4B1A6842F400721A601A6842F468
:102A000080621A601A6842F480721A60032000F033
:102A1000F5FB0020FFF772FFFFF76EFE002008BDF8
:102A2000003C0240034A1168034B1B780B441360BF
:102A3000704700BF9C52002034040020014B1868EE
:102A4000704700BF9C52002038B50446FFF7F6FFE0
:102A50000546B4F1FF3F02D0044B1B781C44FFF73E
:102A6000EDFF401B8442FAD838BD00BF340400207B
:102A7000002800F0A18038B5044690F82030D3B18A
:102A80002268136823F002031360FFF7D7FF05469F
:102A900023685A6812F0020F10D0FFF7CFFF401BD7
:102AA0000A28F5D9636A43F400336362052384F886
:102AB0002030012038BDFFF741FEE1E71A6842F0FF
:102AC00001021A60FFF7BAFF054623685A6812F040
:102AD000010F0DD1FFF7B2FF401B0A28F5D9636A39
:102AE00043F400336362052384F82030012038BDAD
:102AF000227E012A3DD01A6822F080021A60637E8D
:102B0000012B3BD02268136823F040031360A37E9F
:102B1000012B39D02268136823F020031360E37E71
:102B2000012B37D02268136843F010031360237F12
:102B3000012B35D02268136823F008031360637FEC
:102B4000012B33D02268136823F00403136021683B
:102B5000A368E268134322691343626913436268FE
:102B6000013A1343CB6100206062012384F82030D6
:102B700038BD1A6842F080021A60C0E72268136804
:102B800043F040031360C2E72268136843F0200358
:102B90001360C4E72268136823F010031360C6E7CC
:102BA0002268136843F008031360C8E722681368BB
:102BB00043F004031360CAE701207047026890F8ED
:102BC0002030013BDBB2012B05D9436A43F480235B
:102BD00043620120704770B4434B9A4200D0434A8D
:102BE000D2F8003243F00103C2F800323F4B9A4260
:102BF00042D04B6903F01F03012000FA03F3D2F81F
:102C00001C42D8430440C2F81C42CC69ACB9D2F88B
:102C10000C420440C2F80C424C69CE688D8845EAEB
:102C20000645483442F834504C698E680D8845EAB0
:102C30000645483402EBC4046560CC69012C29D0F8
:102C40008C69002C3DD1D2F804420440C2F8044201
:102C50000C69002C3BD1D2F814422040C2F8140277
:102C6000096A012939D0D2F8003223F00103C2F8F1
:102C70000032002070BC7047D2F8003223F47C533D
:102C8000C2F80032D2F80032486A43EA0023C2F8A0
:102C90000032AEE7D2F80C421C43C2F80C424C6939
:102CA0000E688D8845EA0645483442F834504C6930
:102CB0008E688D8945EA0645483402EBC404656098
:102CC000BEE7D2F804421C43C2F80442C0E7D2F87F
:102CD00014021843C2F81402C2E7D2F81C120B43C4
:102CE000C2F81C32BFE700BF006C00400064004027
:102CF00038B590F82030DBB2012B05D0436A43F49D
:102D000000234362012038BD0446022380F82030AE
:102D10000268136823F001031360FFF78FFE054676
:102D200023685B6813F0010F0DD0FFF787FE401B8F
:102D30000A28F5D9636A43F400336362052384F8F3
:102D40002030012038BD0020606238BD70B490F89A
:102D500020400568AD68013CE4B2012C06D9436A05
:102D600043F480234362012070BC704715F0E05F9C
:102D70005BD0C5F30165022D3ED80124AC401C6038
:102D80008B68002B3ED104680E68CB6843EA465638
:102D900005F118031B01E65003680C6905F11806DC
:102DA00003EB06135C600B7D012B36D00468D179F0
:102DB00093791B0443EA0163517943EA01231179B2
:102DC0000B432E013444C4F88C310168D4789378D5
:102DD0001B0443EA0463547843EA04231278134340
:102DE0003144C1F88831026818352D01535943F038
:102DF000010353510020B7E7436A43F400034362E1
:102E00000120B1E704684E6843EAC603CE68334345
:102E100005F118063601A351BEE7036803EB06135C
:102E2000596841F480715960C0E7436A43F4001364
:102E30004362012098E730B490F82040013CE4B2AE
:102E4000012C06D9436A43F480234362012030BC3D
:102E5000704700296FD10468E46814F0030F64D050
:102E6000056801F11B0424012C5904F0040494604A
:102E7000002C6BD1056801F11B0424012C59640D51
:102E80001460056801F11B0424012D5905F00205A9
:102E9000D560056825446D6805F00F051561056866
:102EA00025446D68C5F30725956105682C44646861
:102EB000240C546104680A011444D4F8B8411C700D
:102EC00004681444D4F8B841C4F307245C7004685F
:102ED0001444D4F8B841C4F307449C700468144403
:102EE000D4F8B841240EDC7004681444D4F8BC4112
:102EF0001C7104681444D4F8BC41C4F307245C7109
:102F000004681444D4F8BC41C4F307449C710468B9
:102F10002244D2F8BC21120EDA71F9B90268D368E2
:102F200043F02003D360002091E7436A43F4001389
:102F3000436201208BE70468246914F0030F8FD1EA
:102F4000436A43F400134362012080E7056801F1FE
:102F50001B0424012C59E408546092E702681369A9
:102F600043F020031361002071E790F82030013B0B
:102F7000DBB2012B05D9436A43F48023436201206D
:102F800070470268536919435161002070477047C8
:102F90007047704770477047704770477047704779
:102FA000704770472DE9F84F054603685C695F6814
:102FB0009E68D3F80C90D3F81080D3F818A014F0C2
:102FC000010F5AD016F0010F17D001229A6016F0A7
:102FD000020F08D116F0040F30D116F0080F07D0F9
:102FE0004FF4805B0BE0FFF7D2FF4FF0000B06E0E1
:102FF000FFF7D0FF4FF0000B01E04FF0000B16F48D
:10300000807F0BD02B684FF480729A6016F4007F9B
:1030100017D116F4806F18D04BF4005B16F4803F84
:103020002DD02B684FF480329A6016F4003F16D1F1
:1030300016F4802F17D04BF4004B20E04FF4006BB8
:10304000DDE72846FFF7A4FFE8E716F4006F02D09B
:103050004BF4804BE2E72846FFF79DFFDEE728466A
:10306000FFF797FF0BE016F4002F02D04BF4803BE4
:1030700005E02846FFF790FF01E04FF0000B14F049
:10308000080F07D019F0100F04D04BF4007B2B6809
:103090001022DA6014F0040F02D019F0080F60D18A
:1030A00014F0020F04D02B68DB6813F0030F5FD11C
:1030B00014F0400F07D018F0100F04D04BF4806BC1
:1030C0002B6810221A6114F0200F02D018F0080F9C
:1030D00052D114F0100F04D02B681B6913F0030FAA
:1030E00051D114F4003F02D017F0100F4FD114F457
:1030F000803F02D017F0080F50D114F4004F67D072
:1031000017F0040F61D014F4807F04D01AF0010F7F
:1031100001D04BF0010B14F4007F04D01AF0020F21
:1031200001D04BF0020B14F4806F04D01AF0040F9E
:1031300001D04BF0040B14F4006F46D01AF0700A63
:1031400043D0BAF1300F48D02FD9BAF1500F47D041
:10315000BAF1600F47D0BAF1400F31D14BF0400BBC
:103160002EE02B680822DA602846FFF716FF97E763
:103170002846FEF76BFF9BE72B6808221A6128465A
:10318000FFF70CFFA5E72846FEF7B0FFA9E72B687D
:1031900010225A602846FFF702FFA8E72B68082292
:1031A0005A602846FFF7FCFEA7E7BAF1100F05D0DA
:1031B000BAF1200F04D14BF0100B01E04BF0080BDB
:1031C0002A68936923F0700393612B6804225A6084
:1031D000BBF1000F0AD1BDE8F88F4BF0200BEFE7F1
:1031E0004BF0800BECE74BF4807BE9E76B6A4BEA32
:1031F00003036B622846FFF7D4FEECE7074AD36867
:1032000023F4E0631B041B0C000200F4E06018438D
:1032100040F0BF6040F40030D060704700ED00E047
:1032200030B4164BDB68C3F30223C3F10704042C4C
:1032300028BF04241D1D062D17D9033B012505FABF
:1032400004F4013C2140994005FA03F3013B13408B
:10325000194300280BDB0901C9B200F1604000F5F9
:10326000614080F8001330BC70470023E6E700F0AF
:103270000F000901C9B2024B1954F4E700ED00E058
:1032800014ED00E0002808DB420900F01F000123D4
:1032900003FA00F0014B43F82200704700E100E020
:1032A0000268D3B2103B0B49A1FB03131B090A4967
:1032B000C95CC165032B06D822F47F7222F0030299
:1032C0008265806D704722F47F7222F0030204321F
:1032D0008265F6E7ABAAAAAA04620008836A82693B
:1032E00092B9012B0AD01BB1022B01D000207047EC
:1032F000C36A13F0807F2CD100207047C36AB3F1FA
:10330000C07F28D000207047B2F5005F05D0022BA7
:1033100029D9032B15D000207047032B03D8DFE8F1
:1033200003F01C041C0A00207047C36A13F0807F5E
:1033300015D100207047C36AB3F1C07F11D00020BF
:103340007047C36A13F0807F01D0012070470020CE
:10335000704701207047012070470120704701200D
:1033600070470120704701207047000070B5044687
:10337000FFF764FB002C5DD00546002384F8343051
:10338000022384F835302268136823F001031360A8
:1033900023681A6812F0010F0AD0FFF74FFB401B99
:1033A0000528F5D920236365032084F8350070BD16
:1033B0001A68214911406268A0680243E06802432C
:1033C0002069024360690243A0690243E069024345
:1033D000206A02430A43616A042916D01A602668EB
:1033E000756925F00705636A1D43042B12D07561CA
:1033F0002046FFF755FFE26D3F2393408360002096
:103400006065012384F8353070BDE16A206B0143AB
:103410000A43E3E7A36A1D43E36A002BE7D0204693
:10342000FFF75CFF0028E2D040236365012084F8A9
:10343000350070BD012070BD3F8010E0F0B583B055
:10344000044600230193724B1D68724BA3FB0535A4
:10345000AD0A876D3E68C26D082393401E4210D0AE
:1034600003681A6812F0040F0BD01A6822F00402E5
:103470001A60C26D08239340BB60436D43F00103A3
:103480004365E26D012393401E4209D022685269D0
:1034900012F0800F04D0BB60636D43F002036365DC
:1034A000E26D042393401E4209D02268126812F094
:1034B000020F04D0BB60636D43F004036365E26DEB
:1034C000102393401E4224D02268126812F0080F85
:1034D0001FD0BB6023681A6812F4802F0DD01B68C0
:1034E00013F4002F04D1236C9BB12046984710E0C1
:1034F000A36C73B1204698470BE01A6812F4807FE2
:1035000003D11A6822F008021A60236C0BB120461E
:103510009847E26D202393401E4255D022681268DE
:1035200012F0100F50D0BB6094F83530DBB2052B91
:103530000ED023681A6812F4802F33D01B6813F45E
:10354000002F2AD1636C002B3ED0204698473BE0E9
:103550002268136823F0160313602268536923F06E
:1035600080035361236CA3B12268136823F008031E
:103570001360E26D3F239340BB60002384F8343036
:10358000012384F83530236D002B3FD02046984727
:103590003CE0A36C002BE7D1EBE7E36BA3B1204643
:1035A000984711E01A6812F4807F09D11A6822F056
:1035B00010021A60002384F83430012384F8353077
:1035C000E36B0BB120469847636DFBB1636D13F05D
:1035D000010F17D0052384F835302268136823F0D3
:1035E00001031360019B013301939D4204D32368BF
:1035F0001B6813F0010FF5D1002384F83430012348
:1036000084F83530E36C0BB12046984703B0F0BD29
:1036100030040020B5814E1B00230F2B00F2DA800E
:10362000F0B583B09EE085684FEA430E032707FAA2
:103630000EF725EA0705CE6806FA0EF635438560D3
:10364000456825EA02024D68C5F300159D402A43EE
:103650004260C6685F000322BA40D24316408D68BC
:10366000BD402E43C6604D68022D00F08D80122DA6
:1036700000F08A8005682A404D6805F00305BD40CA
:103680002A4302604A6812F0805F68D000220192EB
:10369000514A556C45F480455564526C02F48042A1
:1036A0000192019A9A08961C4C4D55F8265003F049
:1036B00003064FEA860E0F2606FA0EF625EA0605E1
:1036C000474FB84278D0474EB04277D006F5806673
:1036D000B04275D006F58066B04273D006F58066BC
:1036E000B04271D006F58066B0426FD006F58066B4
:1036F000B0425FD0072606FA0EF635430232374E47
:1037000046F82250384A1568E24305EA02064F6837
:1037100017F4803F01D044EA0506334D2E606D68F2
:1037200002EA05064F6817F4003F01D044EA050697
:103730002D4D6E60AD6802EA05064F6817F4801FD4
:1037400001D044EA0506284DAE60ED682A404E6877
:1037500016F4001F01D044EA0502234CE260013355
:103760000F2B35D801229A400C681440A242F6D1A2
:103770004D686E1E012E7FF656AF112D3FF453AFEC
:10378000122D7FF466AF4EE74FEAD30C0CF1080C14
:1037900050F82C5003F0070E4FEA8E0E0F2606FA53
:1037A0000EF625EA06050E6906FA0EF6354340F8D0
:1037B0002C505FE706269EE700269CE701269AE745
:1037C000022698E7032696E7042694E7052692E763
:1037D00003B0F0BD704700BF003802400038014020
:1037E0000000024000040240003C014012B90904FC
:1037F0008161704781617047F8B5314B9B6803F078
:103800000C03042B59D0082B01D02E48F8BD2C4BAB
:103810005A6802F03F025B6813F4800F2AD0284BED
:103820005B68C3F388131E4600275C010025E41A79
:1038300065EB0705A90141EA9461A001001B61EB5A
:103840000501CB0043EA5073C400A01943EB070104
:103850004B0243EAD0534402204619460023FDF7A9
:103860007DFA174B5B68C3F3014301335B00B0FB88
:10387000F3F0F8BD124B5B68C3F388131E460027B4
:103880005C010025E41A65EB0705A90141EA946192
:10389000A001001B61EB0501CB0043EA5073C4009B
:1038A000A01943EB07018B0243EA905384022046A0
:1038B00019460023FDF752FAD3E70348F8BD00BFCD
:1038C000003802400024F40000127A00002800F0C2
:1038D0009E8070B50446504B1B6803F00F038B426B
:1038E00009D2CBB24C4A1370136803F00F0399420C
:1038F00001D0012070BD236813F0020F17D013F020
:10390000040F04D0454A936843F4E053936023685E
:1039100013F0080F04D0414A936843F46043936066
:103920003E4A936823F0F003A068034393600D467A
:10393000236813F0010F32D06368012B21D09A1E47
:10394000012A25D9354A126812F0020F61D0334995
:103950008A6822F0030213438B60FFF76FF8064674
:103960002E4B9B6803F00C036268B3EB820F16D0FA
:10397000FFF764F8801B41F288339842F0D90320A6
:1039800070BD264A126812F4003FE0D1012070BDDC
:10399000224A126812F0007FD9D1012070BD1E4B5F
:1039A0001B6803F00F039D4209D2EAB21A4B1A704A
:1039B0001B6803F00F039D4201D0012070BD2368F6
:1039C00013F0040F06D0154A936823F4E053E1681E
:1039D0000B439360236813F0080F07D00F4A9368D6
:1039E00023F46043216943EAC1039360FFF704FFB6
:1039F0000A4B9B68C3F30313094AD35CD840094BB5
:103A00001860094B1868FEF779FF002070BD01208F
:103A10007047012070BD00BF003C024000380240EA
:103A2000EC6100083004002038040020014B1868C5
:103A3000704700BF3004002008B5FFF7F7FF044BC4
:103A40009B68C3F38223034AD35CD84008BD00BF00
:103A500000380240FC6100080F2303600B4B9A689A
:103A600002F0030242609A6802F0F00282609A68F3
:103A700002F4E052C2609B68DB0803F4E053036188
:103A8000034B1B6803F00F030B60704700380240C4
:103A9000003C024070B582B00446036813F0010F89
:103AA0003BD0A74B9B6803F00C03042B2CD0A44BFA
:103AB0009B6803F00C03082B21D06368B3F5803FAB
:103AC0004FD0B3F5A02F52D09D4B1A6822F480320C
:103AD0001A601A6822F480221A606368002B50D0A2
:103AE000FEF7ACFF0546964B1B6813F4003F14D15C
:103AF000FEF7A4FF401B6428F5D903208AE1904B10
:103B00005B6813F4800FD8D08D4B1B6813F4003F13
:103B100003D06368002B00F07A81236813F0020F52
:103B200055D0874B9B6813F00C0F3ED0844B9B689D
:103B300003F00C03082B33D0E368002B68D001227C
:103B4000804B1A60FEF77AFF05467D4B1B6813F029
:103B5000020F54D1FEF772FF401B0228F5D9032053
:103B600058E1774A136843F480331360B5E7744B28
:103B70001A6842F480221A601A6842F480321A608D
:103B8000ABE7FEF75BFF05466D4B1B6813F4003F88
:103B9000C3D0FEF753FF401B6428F5D9032039E159
:103BA000674B5B6813F4800FC6D1654B1B6813F03D
:103BB000020F04D0E368012B01D001202AE1604A02
:103BC000136823F0F803216943EAC10313602368F3
:103BD00013F0080F40D0636963B301225A4B1A6097
:103BE000FEF72CFF0546564B5B6F13F0020F33D1E7
:103BF000FEF724FF401B0228F5D903200AE1504AB2
:103C0000136823F0F803216943EAC1031360DEE778
:103C100000224C4B1A60FEF711FF0546484B1B680B
:103C200013F0020FD3D0FEF709FF401B0228F5D98D
:103C30000320EFE00022444B1A60FEF7FFFE05462A
:103C40003F4B5B6F13F0020F06D0FEF7F7FE401BF1
:103C50000228F5D90320DDE0236813F0040F78D0A3
:103C6000374B1B6C13F0805F33D100230193344B2F
:103C70001A6C42F080521A641B6C03F0805301935B
:103C8000019B0125314B1B6813F4807F23D0A3686F
:103C9000012B34D0052B38D0294B1A6F22F00102AA
:103CA0001A671A6F22F004021A67A368002B36D035
:103CB000FEF7C4FE0646224B1B6F13F0020F47D1DE
:103CC000FEF7BCFE801B41F288339842F3D90320F3
:103CD000A0E00025D6E71D4A136843F48073136003
:103CE000FEF7ACFE0646194B1B6813F4807FCED15D
:103CF000FEF7A4FE801B0228F5D903208AE0104AB3
:103D0000136F43F001031367CFE70D4B1A6F42F0B7
:103D100004021A671A6F42F001021A67C5E7FEF73C
:103D20008DFE0646064B1B6F13F0020F10D0FEF7F8
:103D300085FE801B41F288339842F3D9032069E065
:103D40000038024000004742800E474200700040A9
:103D5000E5B9A369002B5CD0304A926802F00C02EE
:103D6000082A59D0022B17D000222D4B1A60FEF7DB
:103D700065FE0446294B1B6813F0007F45D0FEF713
:103D80005DFE001B0228F5D9032043E0234A136C93
:103D900023F080531364DCE70022214B1A60FEF706
:103DA0004DFE05461D4B1B6813F0007F06D0FEF745
:103DB00045FE401B0228F5D903202BE0E369226A67
:103DC0001343626A43EA8213A26A5208013A43EA41
:103DD0000243E26A43EA0263226B43EA02730F4A38
:103DE000536001220E4B1A60FEF728FE04460B4B6F
:103DF0001B6813F0007F06D1FEF720FE001B02288F
:103E0000F5D9032006E0002004E0002002E00120B4
:103E100000E0002002B070BD0120FBE70038024046
:103E20006000474230B4036A23F001030362036A6F
:103E30004468826922F073020D682A4323F002036A
:103E40008D682B43114DA84211D005F58065A8421D
:103E50000DD00E4DA84211D005F58065A8420DD0B9
:103E6000446082614A684263036230BC704723F059
:103E70000803CD682B4323F00403EAE724F44074DD
:103E80004D692C438D692C43EAE700BF00000140D7
:103E900030B4036A23F480730362036A4468C2691E
:103EA00022F073020D682A4323F400738D6843EAFD
:103EB0000523134DA84211D005F58065A8420DD009
:103EC0000F4DA84212D005F58065A8420ED044607F
:103ED000C2614A68C263036230BC704723F4006366
:103EE000CD6843EA052323F48063E9E724F44054D2
:103EF0004D6944EA05148D6944EA0514E7E700BFFB
:103F00000000014030B4036A23F480530362036A63
:103F10004468C26922F4E6420D6842EA052223F4AD
:103F200000538D6843EA0533094DA8420AD005F5D0
:103F30008065A84206D04460C2614A680264036298
:103F400030BC704724F480444D6944EA8514F2E79C
:103F50000000014070470268D36843F00103D3605A
:103F60000268936803F00703062B03D0136843F03D
:103F70000103136000207047704770477047704717
:103F800010B5044603681A6912F0020F11D0DA68FE
:103F900012F0020F0DD06FF002021A6101230377B5
:103FA00003689B6913F0030F70D0FFF7E6FF00234F
:103FB000237723681A6912F0040F12D0DA6812F01E
:103FC000040F0ED06FF004021A61022323772368D6
:103FD0009B6913F4407F5FD02046FFF7CEFF00239C
:103FE000237723681A6912F0080F12D0DA6812F0EA
:103FF000080F0ED06FF008021A610423237723689C
:10400000DB6913F0030F4ED02046FFF7B6FF002305
:10401000237723681A6912F0100F12D0DA6812F0B1
:10402000100F0ED06FF010021A6108232377236857
:10403000DB6913F4407F3DD02046FFF79EFF00234D
:10404000237723681A6912F0010F03D0DA6812F09F
:10405000010F36D123681A6912F0800F03D0DA6895
:1040600012F0800F34D123681A6912F0400F03D088
:10407000DA6812F0400F32D123681A6912F0200F6B
:1040800003D0DA6812F0200F30D110BDFFF774FFB3
:104090002046FFF773FF8AE72046FFF76DFF2046B3
:1040A000FFF76CFF9BE72046FFF766FF2046FFF710
:1040B00065FFACE72046FFF75FFF2046FFF75EFF96
:1040C000BDE76FF001021A612046FEF7D1F9C1E7A2
:1040D0006FF080021A61204600F057F9C3E76FF0D5
:1040E00040021A612046FFF74AFFC5E76FF0200241
:1040F0001A61204600F048F9C7E700000368314A1A
:10410000904212D0B0F1804F0FD0A2F57C42904285
:104110000BD002F58062904207D002F58062904297
:1041200003D002F57842904203D123F070034A682D
:104130001343244A90422AD0B0F1804F27D0A2F5F1
:104140007C42904223D002F5806290421FD002F55B
:10415000806290421BD002F57842904217D002F55F
:104160007052904213D002F5806290420FD002F557
:10417000806290420BD0A2F59832904207D002F5AF
:104180008062904203D002F58062904203D123F412
:104190004073CA68134323F080034A6913430360E2
:1041A0008B68C3620B688362064B984206D003F5A6
:1041B0008063984202D00123436170470B69036317
:1041C000F9E700BF00000140A8B110B5044690F81F
:1041D0003D305BB1022384F83D30211D2068FFF79C
:1041E0008DFF012384F83D30002010BD80F83C3065
:1041F000FFF7B0FEEEE701207047A8B110B5044606
:1042000090F83D305BB1022384F83D30211D2068D9
:10421000FFF774FF012384F83D30002010BD80F8C3
:104220003C30FEF72DFBEEE70120704730B4036A07
:1042300023F010030362036A4468826922F4E642B1
:104240000D6842EA052223F020038D6843EA051336
:10425000124DA84211D005F58065A8420DD00F4D32
:10426000A84212D005F58065A8420ED04460826154
:104270004A688263036230BC704723F08003CD68D4
:1042800043EA051323F04003E9E724F440644D6951
:1042900044EA85048D6944EA8504E7E700000140AB
:1042A00090F83C30012B28D010B50446012380F84B
:1042B0003C30022380F83D300C2A0BD8DFE802F0B6
:1042C000070A0A0A110A0A0A150A0A0A19000068E6
:1042D000FFF7A8FD012384F83D30002084F83C005E
:1042E00010BD0068FFF7A2FFF4E70068FFF7D0FDFC
:1042F000F0E70068FFF706FEECE7022070470000D9
:1043000090F83C30012B3BD030B4012380F83C3096
:10431000022380F83D3004686368A26823F07003CC
:104320000D682B4363600368164CA3421AD0B3F1A7
:10433000804F17D0A4F57C44A34213D004F58064C9
:10434000A3420FD004F58064A3420BD004F5784457
:10435000A34207D004F57054A34203D0A4F59434CB
:10436000A34204D122F0800249680A439A600123E3
:1043700080F83D30002380F83C30184630BC704750
:10438000022070470000014070477047EFF305833B
:104390008BB9EFF3108313B9EFF311831BB10A4B01
:1043A0001B68022B0AD0084B1B6853B90122064B2D
:1043B0001A60002070476FF0050070476FF005002D
:1043C00070474FF0FF307047B806002008B5EFF394
:1043D0000583A3B9EFF3108313B9EFF311831BB176
:1043E0000B4B1B68022B0DD0094B1B68012B0CD10A
:1043F0000222074B1A6001F023F9002008BD6FF07C
:10440000050008BD6FF0050008BD4FF0FF3008BD86
:10441000B8060020F0B587B000240594EFF30584BA
:1044200044BBEFF3108313B9EFF311831BB12D4B92
:104430001B68022B1ED0E8B14AB31668946904B910
:104440001824631E372B49D8536813F0010F47D146
:10445000536993B14FEA930E95682DB1D7685B2FDE
:1044600002D9176907B1C3B955B14FF0FF35012D16
:104470001AD02DB3059807B0F0BD4FF0800EEBE7D2
:10448000D36863B913696BB14FF0FF35EFE70025CF
:1044900018244FF0800E2E46E9E70125E7E74FF09C
:1044A000FF35E4E70025E2E7136992680292019381
:1044B00000940B467246314601F054F80590D9E756
:1044C00005AA019200940B461FFA8EF2314601F0C4
:1044D00083F80128CED000230593CBE70020CAE75C
:1044E0000020C8E7B806002008B5EFF3058383B9BC
:1044F000EFF3108313B9EFF311831BB1084B1B6863
:10450000022B09D008B9002008BD01F0FFF90020F6
:1045100008BD6FF0050008BD6FF0050008BD00BFC5
:10452000B8060020034B0360034B0B60802313602D
:10453000704700BF5C0600205C040020034B036052
:10454000034B0B604FF4807313607047BC0A00206C
:10455000BC06002000F1080343604FF0FF32826088
:10456000C360036100230360704700230361704749
:1045700043684B609A688A609A68516099600861E4
:10458000036801330360704730B40D68B5F1FF3F35
:1045900002D000F1080202E0026904E01A46536802
:1045A0001C68A542FAD253684B6099608A605160DA
:1045B000086103680133036030BC704703694268D7
:1045C000816891608268416851605A68904206D063
:1045D000002202611A68013A1A60186870478268FE
:1045E0005A60F5E782B0002301930D4B1B68B3F1CD
:1045F000FF3F08D04FF0500383F31188BFF36F8F54
:10460000BFF34F8FFEE74FF0500383F31188BFF3E2
:104610006F8FBFF34F8F019B002BFCD002B0704710
:104620003C04002008480068006880F308884FF0C8
:10463000000080F3148862B661B6BFF34F8FBFF3FA
:104640006F8F00DF00BF000008ED00E0DFF80C0016
:10465000016841F4700101607047000088ED00E0DE
:104660004FF0807340F8043C21F0010140F8081C31
:10467000054B40F80C3C40F8202C6FF0020340F84A
:10468000243C4438704700BFE545000800000000A6
:10469000074B19680868B0E8F04F80F30988BFF34A
:1046A0006F8F4FF0000080F311887047AFF30080E8
:1046B000384700204FF0500383F31188BFF36F8F0A
:1046C000BFF34F8F0A4A136801331360012B0DD1DA
:1046D000084B1B6813F0FF0F08D04FF0500383F313
:1046E0001188BFF36F8FBFF34F8FFEE7704700BF96
:1046F0003C04002004ED00E0094B1B6843B94FF077
:10470000500383F31188BFF36F8FBFF34F8FFEE722
:10471000013B034A13600BB983F31188704700BF54
:104720003C04002000000000000000000000000029
:10473000EFF30980BFF36F8F154B1A681EF0100F4F
:1047400008BF20ED108A20E9F04F10602DE9090024
:104750004FF0500080F31188BFF34F8FBFF36F8F7E
:1047600001F0FCF84FF0000080F3118809BC1968D3
:104770000868B0E8F04F1EF0100F08BFB0EC108AC8
:1047800080F30988BFF36F8F704700BFAFF30080DD
:104790003847002008B54FF0500383F31188BFF36A
:1047A0006F8FBFF34F8F00F0A7FF18B14FF080520B
:1047B000024B1A60002383F3118808BD04ED00E06A
:1047C000084A0023136008490B60084B1B6808491E
:1047D000A1FB03139B09013B06490B6007231360F0
:1047E000704700BF10E000E018E000E03004002057
:1047F000D34D621014E000E03A4B1A683A4B9A42EB
:1048000008D14FF0500383F31188BFF36F8FBFF3CC
:104810004F8FFEE7334B1A68344B9A4208D14FF062
:10482000500383F31188BFF36F8FBFF34F8FFEE701
:1048300010B582B02E4B1A78D2B20192FF221A70B4
:104840001B78DBB28DF803309DF8033003F0500382
:10485000284A13700722284B1A6009E0264A136879
:10486000013B13609DF803305B00DBB28DF8033031
:104870009DF8033013F0800FF0D11F4B1B68032B02
:1048800008D04FF0500383F31188BFF36F8FBFF34D
:104890004F8FFEE71B0203F4E063174A1360019B8E
:1048A000DBB2134A1370154B1A6842F470021A6097
:1048B0001A6842F070421A60FFF782FF0024104B22
:1048C0001C60FFF7C3FE0F4A136843F040431360B8
:1048D000FFF7A8FE01F042F8FFF784FE204602B081
:1048E00010BD00BF00ED00E071C20F4170C20F416A
:1048F00000E400E0180B00201C0B002020ED00E07D
:104900003C04002034EF00E0EFF305830F2B0FD9B8
:10491000104A9B5CDBB2104A1278934208D24FF0E7
:10492000500383F31188BFF36F8FBFF34F8FFEE700
:104930000A4B1B6803F4E063094A1268934208D9E2
:104940004FF0500383F31188BFF36F8FBFF34F8F86
:10495000FEE77047F0E300E0180B00200CED00E0EC
:104960001C0B0020124A12F0070F1ED0D11D21F09F
:104970000701C1F5705313440A460E480260002136
:1049800041601344083B23F007030B480360596060
:104990001960991A51601360084B1960084B19602F
:1049A0004FF00042074B1A6070474FF47053E4E732
:1049B000240B002030470020200B00202C47002033
:1049C000284700202447002010B4134B1A68824265
:1049D0001BD359685C18A04203D140680144596058
:1049E000184641684418A24213D10C4C2468A242D4
:1049F0000DD05268114441601A68126802609842F2
:104A000000D018605DF8044B70471346DEE7046081
:104A1000F5E70260F3E700BF30470020200B0020DD
:104A200070B5044600F05AFE3A4B1B68BBB13A4BD6
:104A30001B681C4263D1ACB1083414F0070F11D0CD
:104A400024F00704083404F007035BB14FF050036F
:104A500083F31188BFF36F8FBFF34F8FFEE7FFF72C
:104A600081FFE4E7002C4CD02C4B1B689C424AD8B9
:104A70002B4B1D6801E02B4615466A68944202D90B
:104A80002A68002AF7D1234A126895423DD01E6851
:104A900008362A681A606B681B1B102B10D928195E
:104AA00010F0070F08D04FF0500383F31188BFF3C5
:104AB0006F8FBFF34F8FFEE743606C60FFF784FF9B
:104AC0006A6816490B689B1A0B60164909688B4285
:104AD00001D214490B60104B1B6813436B60002319
:104AE0002B6000F095FE16F0070F10D04FF050032A
:104AF00083F31188BFF36F8FBFF34F8FFEE700265C
:104B0000EFE70026EDE70026EBE70026E9E7304671
:104B100070BD00BF200B0020244700202847002044
:104B2000304700202C47002080B338B50446A0F160
:104B3000080550F8042C164909680A4208D14FF0BC
:104B4000500383F31188BFF36F8FBFF34F8FFEE7DE
:104B500050F8080C40B14FF0500383F31188BFF3B5
:104B60006F8FBFF34F8FFEE722EA010244F8042C57
:104B700000F0B4FD54F8041C064A13680B4413609B
:104B80002846FFF721FF00F043FE38BD704700BF05
:104B9000244700202847002010B50446FFF78AFD6F
:104BA000A26BE36B9A4204D00024FFF7A5FD2046D8
:104BB00010BD0124F9E710B50446FFF77BFDA36B98
:104BC00023B10024FFF798FD204610BD0124F9E72A
:104BD00070B504461646856B026C4AB9036853BB30
:104BE000806800F0E5FF0023A3600135A56370BD78
:104BF0006EB94068FBF78EFB226C636813446360F8
:104C0000A268934219D3236863600020EDE7C0686F
:104C1000FBF780FB236C5B42E2681A44E260216888
:104C20008A4202D2A2681344E360022E07D145B142
:104C3000013D0020D9E70020D7E70020D5E700207C
:104C4000D3E70020D1E7026C72B110B50346C46807
:104C50001444C4608068844201D31868D860084650
:104C6000D968FBF757FB10BD704738B50546FFF70D
:104C700021FD95F8454064B201E0013C64B2002C8E
:104C80000ADD6B6A43B105F1240000F0E9FE00285B
:104C9000F3D000F077FFF0E7FF2385F84530FFF70A
:104CA0002BFDFFF707FD95F8444064B201E0013C9D
:104CB00064B2002C0ADD2B6943B105F1100000F04D
:104CC000CFFE0028F3D000F05DFFF0E7FF2385F86A
:104CD0004430FFF711FD38BD38B530B304460D46FA
:104CE000FFF7E8FC2168E26B236C03FB0210A06075
:104CF0000020A0636160013A02FB0313E360FF231D
:104D000084F8443084F84530C5B92369F3B104F11F
:104D1000100000F0A5FEC8B14FF080520D4B1A6094
:104D2000BFF34F8FBFF36F8F10E04FF0500383F34B
:104D30001188BFF36F8FBFF34F8FFEE704F11000B0
:104D4000FFF708FC04F12400FFF704FCFFF7D4FC94
:104D5000012038BD04ED00E038B51D46049C0B462B
:104D600049B12260E063236401212046FFF7B4FFCC
:104D700084F84C5038BD2460F4E740B94FF050033C
:104D800083F31188BFF36F8FBFF34F8FFEE710B52A
:104D900084B0044663B1A2B1A9B10120A8B94FF013
:104DA000500383F31188BFF36F8FBFF34F8FFEE77C
:104DB0004FF0500383F31188BFF36F8FBFF34F8F12
:104DC000FEE70120EAE70020E8E70AB901B1002088
:104DD00040B94FF0500383F31188BFF36F8FBFF3D7
:104DE0004F8FFEE7502003900398502808D04FF0D3
:104DF000500383F31188BFF36F8FBFF34F8FFEE72C
:104E000020461C46039B012384F8463000949DF8FD
:104E10001830FFF7A1FF204604B010BDF0B585B0F3
:104E2000019260B1044699B10125BDB94FF050031C
:104E300083F31188BFF36F8FBFF34F8FFEE74FF0FF
:104E4000500383F31188BFF36F8FBFF34F8FFEE7DB
:104E5000026C0AB90125E8E70025E6E7022B09D034
:104E60006DB94FF0500383F31188BFF36F8FBFF319
:104E70004F8FFEE7E26B012AF2D00025F0E71E46D5
:104E80000F4600F085FE10B9019B03B1002545B91E
:104E90004FF0500383F31188BFF36F8FBFF34F8F31
:104EA000FEE700252CE0324639462046FFF790FE0B
:104EB000636A8BB104F1240000F0D2FD38B14FF0E9
:104EC0008052374B1A60BFF34F8FBFF36F8FFFF7DE
:104ED00013FC012005B0F0BD0028F8D04FF080523F
:104EE0002F4B1A60BFF34F8FBFF36F8FEFE7FFF7C2
:104EF00003FC0020EEE72046FFF7B7FE00F088FC39
:104F0000FFF7D8FBA26BE36B9A42CCD3022ECAD038
:104F1000019B002BEBD01DB902A800F0E7FD012595
:104F2000FFF7EAFB00F0DAFBFFF7C4FB94F844302C
:104F30005BB2B3F1FF3F02D1002384F8443094F810
:104F400045305BB2B3F1FF3F02D1002384F8453016
:104F5000FFF7D2FB01A902A800F0D4FDC8B9204692
:104F6000FFF71AFE0028C6D0019904F1100000F0E6
:104F700043FD2046FFF779FE00F04AFC0028BFD130
:104F80004FF08052064B1A60BFF34F8FBFF36F8F05
:104F9000B6E72046FFF769FE00F03AFC002099E7EB
:104FA00004ED00E02DE9F84360B1044699B1012019
:104FB000B8B94FF0500383F31188BFF36F8FBFF37D
:104FC0004F8FFEE74FF0500383F31188BFF36F8FCD
:104FD000BFF34F8FFEE7006C08B90120E8E700201F
:104FE000E6E7022B09D068B94FF0500383F311882C
:104FF000BFF36F8FBFF34F8FFEE7E56B012DF2D04C
:105000000020F0E71F4690468946FFF77DFCEFF34E
:1050100011864FF0500383F31188BFF36F8FBFF3F6
:105020004F8FA26BE36B9A4201D3022F21D194F8E8
:1050300045506DB23A4649462046FFF7C9FDB5F1E5
:10504000FF3F10D1636AB3B104F1240000F008FD02
:1050500098B1B8F1000F12D00120C8F8000086F313
:105060001188BDE8F8836B1C5BB284F845300120E1
:10507000F5E70020F3E70120F1E70120EFE7012049
:10508000EDE70000F0B585B0019260B1044699B13A
:105090000125BDB94FF0500383F31188BFF36F8F23
:1050A000BFF34F8FFEE74FF0500383F31188BFF338
:1050B0006F8FBFF34F8FFEE7036C0BB90125E8E755
:1050C0000025E6E70E4600F063FD10B9019B03B131
:1050D000002545B94FF0500383F31188BFF36F8F5C
:1050E000BFF34F8FFEE700272FE031462046FFF742
:1050F000AAFD013DA563236963B104F1100000F02E
:10510000AFFC38B14FF08052344B1A60BFF34F8F71
:10511000BFF36F8FFFF7F0FA012005B0F0BDFFF786
:10512000EBFA0020F9E702A800F0E0FC012716E006
:10513000002384F844301EE0002384F8453020E04A
:105140002046FFF792FD00F063FBFFF7B3FAA56B73
:10515000002DCAD1019B002BE1D0002FE3D0FFF737
:10516000CBFA00F0BBFAFFF7A5FA94F844305BB233
:10517000B3F1FF3FDCD094F845305BB2B3F1FF3FB1
:10518000DAD0FFF7B9FA01A902A800F0BBFCC8B950
:105190002046FFF710FD0028D2D0019904F1240029
:1051A00000F02AFC2046FFF760FD00F031FB0028EC
:1051B000CBD14FF08052094B1A60BFF34F8FBFF332
:1051C0006F8FC2E72046FFF750FD00F021FB20461D
:1051D000FFF7F1FC0028B8D000209EE704ED00E0C6
:1051E0000023072B0CD8074A52F833200AB10133A9
:1051F000F7E7044A42F8331002EBC30358607047E4
:10520000704700BFA052002070B504460D461646F8
:10521000FFF750FA94F844305BB2B3F1FF3F0DD082
:1052200094F845305BB2B3F1FF3F0BD0FFF764FA5F
:10523000A36B5BB12046FFF718FD70BD002384F817
:105240004430EDE7002384F84530EFE73246294645
:1052500004F1240000F0E8FBECE70000084B1B68B9
:105260001B683BB1064B1B68DB68DB685A68054B63
:105270001A6070474FF0FF32024B1A60704700BF50
:105280003C470020E44B00202DE9F04781460D46C5
:1052900017469A46089EDDF824800A9C9200A521B4
:1052A000206BFBF7D1F8236B07F18042013A03EB47
:1052B000820727F0070785B300230F2B07D8E95C87
:1052C000E21882F83410EA5C0AB10133F5E70023F2
:1052D00084F84330372E00D93726E662E66400258D
:1052E0002565201DFFF741F904F11800FFF73DF98E
:1052F0002461C6F13806A6616462656584F8585079
:10530000524649463846FFF7ABF92060B8F1000F26
:1053100001D0C8F80040BDE8F087002384F834309D
:10532000D8E7000038B5002407E004EB84029300BE
:105330000E481844FFF70EF90134372CF5D90C4DFF
:105340002846FFF707F90B4C2046FFF703F90A48F8
:10535000FFF700F90948FFF7FDF80948FFF7FAF8E9
:10536000084B1D60084B1C6038BD00BF444700203F
:10537000BC4B0020D04B0020EC4B0020184C0020F0
:10538000044C00203C4700204047002010B5044654
:10539000FFF790F9214A136801331360204B1B6813
:1053A000002B32D01F4B1B683BB91D4B1B68DA6AC0
:1053B000E36A9A4201D81A4B1C601B4A13680133F6
:1053C00013606364E36A194A1268934201D9174A69
:1053D000136003EB83039A00211D15481044FFF767
:1053E000C7F8FFF789F90F4B1B686BB10C4B1B68B3
:1053F000DA6AE36A9A4207D24FF080520D4B1A6084
:10540000BFF34F8FBFF36F8F10BD054B1C60136848
:10541000012BD2D1FFF786FFCFE700BFA44B0020BE
:1054200038470020004C0020B44B0020B84B00202F
:105430004447002004ED00E010B5044690F85930D0
:1054400063B1012B11D0022B12D04FF0500383F324
:105450001188BFF36F8FBFF34F8FFEE7006BFFF72D
:1054600063FB2046FFF760FB10BDFFF75DFB10BD3F
:1054700010BD00000F4B1B68D3B110B5FFF71AF930
:105480000D4BDB68DC68201DFFF798F80B4A1368AA
:10549000013B1360074A1368013B1360FFF72CF9C7
:1054A0002046FFF7C9FF034B1B68002BE6D110BD58
:1054B000704700BFA84B0020184C0020A44B0020D0
:1054C00008B5FFF7D7FF064B1B68012BF9D94FF042
:1054D0008052044B1A60BFF34F8FBFF36F8FF0E71A
:1054E0004447002004ED00E070B504460E46174B1B
:1054F0001D68174B18680430FFF760F8B4F1FF3FE0
:1055000013D02C44124B1B685C60A54216D8114B7B
:1055100018680F4B19680431FFF736F80E4B1B68FB
:105520009C4201D20C4B1C6070BD002EE9D0084B90
:10553000196804310948FFF71BF870BD084B18685B
:10554000034B19680431FFF71FF870BD2C4C002085
:10555000384700203C470020E44B0020044C00204A
:105560004047002070B586B00B9D0C9C75B1B4B15E
:105570005C260496049E5C2E1AD04FF0500383F3F1
:105580001188BFF36F8FBFF34F8FFEE74FF05003CB
:1055900083F31188BFF36F8FBFF34F8FFEE74FF098
:1055A000500383F31188BFF36F8FBFF34F8FFEE774
:1055B000049E2563022584F8595000250395029422
:1055C00005AD01950A9D0095FFF75EFE2046FFF7A9
:1055D000DDFE059806B070BD2DE9F04385B00646A6
:1055E0000F46154698469000FFF71AFA10B3814609
:1055F0005C20FFF715FA0446C0B1C0F83090DCB16A
:10560000002384F85930039302940D9B01930C9B63
:10561000009343462A4639463046FFF735FE20467A
:10562000FFF7B4FE012005B0BDE8F0834846FFF760
:105630007BFAE4E70024E2E74FF0FF30F3E70000F5
:1056400010B588B000240594069407AA06A905A8F9
:10565000FEF768FF059B0293069B01930094234687
:10566000079A19491948FFF77DFF48B10120012821
:1056700008D0012809D0B0F1FF3F1BD008B010BD01
:105680000020F4E700F048FBF3E74FF0500383F30A
:105690001188BFF36F8FBFF34F8F4FF0FF320C4B6A
:1056A0001A6001220B4B1A6000220B4B1A60FFF7A5
:1056B000A3F8E3E74FF0500383F31188BFF36F8F34
:1056C000BFF34F8FFEE700BF0C620008C154000813
:1056D000E44B0020004C00202C4C0020024A1368B0
:1056E00001331360704700BFB04B0020014B1868B6
:1056F000704700BF2C4C0020F8B53A4B1B68002BBC
:1057000064D1394B1D6801351D60C5B9374B1B6825
:105710001B6843B14FF0500383F31188BFF36F8FC1
:10572000BFF34F8FFEE7314A1168314B18681060A4
:105730001960304A136801331360FFF78FFD2E4B59
:105740001B689D4238D200242C4B1B68DB6A03EB9C
:1057500083039A002A4B9B58012B3CD901243AE041
:105760000124224B1B681B6843B3204B1B68DB687A
:10577000DE6873689D4226D3371D3846FEF71EFF4C
:10578000B36A1BB106F11800FEF718FFF36A1D4A51
:105790001268934201D91B4A136003EB83039A00FA
:1057A000394617481044FEF7E3FEF26A134B1B68B4
:1057B000DB6A9A42D4D2D4E70024D2E74FF0FF321A
:1057C0000D4B1A60C0E70C4A1360BDE70E4A136820
:1057D0000133136000240D4B1B6803B101242046E4
:1057E000F8BD00BFB04B00202C4C00203C470020EF
:1057F00040470020E84B0020E44B002038470020C1
:1058000044470020B84B0020AC4B0020304C002017
:1058100038B5354B1B6843B94FF0500383F31188FB
:10582000BFF36F8FBFF34F8FFEE7FEF743FF2E4BA3
:105830001A68013A1A601B68002B50D12B4B1B6869
:1058400023B90024FEF758FF204638BD0024284B1A
:105850001B681BB3264BDB68DC6804F11800FEF7FD
:10586000ADFE251D2846FEF7A9FEE36A214A12680F
:10587000934201D91F4A136003EB83039A00294620
:105880001D481044FEF774FEE26A1C4B1B68DB6A7D
:105890009A42DCD301221A4B1A60D8E70CB1FFF709
:1058A000DDFC184B1C6874B9154B1B68CBB14FF06D
:1058B0008052154B1A60BFF34F8FBFF36F8F0124D7
:1058C000C0E7013C07D0FFF717FF0028F9D00122FD
:1058D0000B4B1A60F5E700220A4B1A60E4E700243C
:1058E000B0E70024AEE700BFB04B0020A44B00207F
:1058F000EC4B0020B84B00204447002038470020E4
:10590000304C0020AC4B002004ED00E010B5A8B1F5
:105910000446104B1B6843B14FF0500383F31188CA
:10592000BFF36F8FBFF34F8FFEE7FFF7D7FE002166
:105930002046FFF7D9FDFFF76BFF00E0002038B9E4
:105940004FF08052044B1A60BFF34F8FBFF36F8F3D
:1059500010BD00BFB04B002004ED00E0214B1B68E0
:105960006BB90022204B1A60204B1B6803EB8301AC
:105970008A001F498A587AB92BB1013BF6E7012208
:10598000194B1A6070474FF0500383F31188BFF32F
:105990006F8FBFF34F8FFEE710B408469A00D418FC
:1059A000A10001444C6864684C601A4491000831BD
:1059B000084484420DD003EB830291000C4A0A4450
:1059C0005268D1680B4A1160084A13605DF8044BB5
:1059D0007047606803EB83029100054A0A445060F7
:1059E000E9E700BFB04B0020304C0020B84B00204E
:1059F000444700203847002040B94FF0500383F35C
:105A00001188BFF36F8FBFF34F8FFEE710B50C46C1
:105A1000044B19681831FEF7B7FD01212046FFF746
:105A200063FD10BD3847002038B570B10C461546EF
:105A30000A4A11681831FEF79BFD0DB14FF0FF3493
:105A400029462046FFF750FD38BD4FF0500383F341
:105A50001188BFF36F8FBFF34F8FFEE738470020E9
:105A600038B5C368DC6824B304F118052846FEF78E
:105A7000A5FD184B1B682BBB251D2846FEF79EFD78
:105A8000E36A154A1268934201D9134A136003EB83
:105A900083039A00294611481044FEF769FDE26A23
:105AA0000F4B1B68DB6A9A4211D901200D4B18601D
:105AB00038BD4FF0500383F31188BFF36F8FBFF3EE
:105AC0004F8FFEE729460848FEF752FDE7E7002022
:105AD00038BD00BFB04B0020B84B00204447002029
