:020000040800F2
:1000000000000520656B00087D2C00087F2C00088F
:10001000812C0008832C0008852C000800000000BB
:100020000000000000000000000000005151000826
:10003000872C000800000000F1510008555200080C
:10004000B56B0008B56B0008B56B0008B56B000810
:10005000B56B0008B56B0008B56B0008B56B000800
:10006000B56B0008B56B0008B56B0008B56B0008F0
:10007000892C0008B56B0008B56B0008B56B00084B
:100080008B2C00088D2C0008B56B0008B56B0008A0
:10009000912C0008B56B0008B56B0008B56B000823
:1000A000B56B000855300008B56B0008B56B00084B
:1000B000A12C0008B56B0008B56B0008B56B0008F3
:1000C000B56B0008B56B0008B56B0008B56B000890
:1000D000B56B0008B56B0008B56B0008B56B000880
:1000E000B56B0008B56B0008B56B0008B56B000870
:1000F000B56B0008B56B0008B56B0008B56B000860
:10010000B56B0008B56B0008B56B0008B56B00084F
:10011000B56B0008B56B0008B56B0008A52C00088E
:10012000B56B0008B56B000835300008B56B0008EA
:10013000B56B0008B56B0008B56B0008B56B00081F
:10014000B56B0008B52C0008B56B0008B56B00084E
:10015000B56B0008B56B0008B56B0008B56B0008FF
:10016000B56B0008B56B0008B56B0008C52C00081E
:10017000B56B0008B56B000800000000000000002F
:10018000B56B0008B56B0008B56B0008B56B0008CF
:10019000B56B0008B56B000800000000B56B0008E7
:1001A000B56B0008B56B00080000000000000000FF
:1001B000B56B00080000000000000000B56B0008EF
:1001C000B56B0008B56B0008B56B0008B56B00088F
:0801D000B56B0008B56B0008D7
:1001E000044B05481B1A062B02D9044B03B11847D0
:1001F000704700BF4B0400204804002000000000AE
:1002000005490648091A891001EBD171491002D03D
:10021000034B03B1184770474804002048040020EE
:100220000000000010B5064C237843B9FFF7D8FF53
:10023000044B13B10448AFF300800123237010BDB9
:100240004804002000000000CC6B000808B5084BF3
:100250001BB108490848AFF300800848036813B988
:10026000BDE80840CCE7064B002BF9D09847F7E7EC
:10027000000000004C040020CC6B00084804002063
:1002800000000000002301461A46184600F02AB973
:1002900038B50A4C0A4D641BA4100AD004F18043FF
:1002A000013B05EB8305013C55F804399847002CC8
:1002B000F9D1BDE8384006F08FBC00BFBC6E000825
:1002C000B86E000870B50F4E0F4D761BB61018BFF4
:1002D000002405D0013455F8043B9847A642F9D1D3
:1002E0000A4E0B4D761B06F071FCB61018BF0024A9
:1002F00006D0013455F8043B9847A642F9D170BDA9
:1003000070BD00BFB06E0008B06E0008B86E000887
:10031000B06E0008844641EA000313F003036DD178
:10032000403A41D351F8043B40F8043B51F8043BB8
:1003300040F8043B51F8043B40F8043B51F8043BBF
:1003400040F8043B51F8043B40F8043B51F8043BAF
:1003500040F8043B51F8043B40F8043B51F8043B9F
:1003600040F8043B51F8043B40F8043B51F8043B8F
:1003700040F8043B51F8043B40F8043B51F8043B7F
:1003800040F8043B51F8043B40F8043B51F8043B6F
:1003900040F8043B51F8043B40F8043B51F8043B5F
:1003A00040F8043B403ABDD2303211D351F8043BFF
:1003B00040F8043B51F8043B40F8043B51F8043B3F
:1003C00040F8043B51F8043B40F8043B103AEDD2AE
:1003D0000C3205D351F8043B40F8043B043AF9D2FF
:1003E000043208D0D2071CBF11F8013B00F8013BD2
:1003F00001D30B8803806046704700BF082A13D3DF
:100400008B078DD010F003038AD0C3F10403D21AF6
:10041000DB071CBF11F8013B00F8013B80D331F82A
:10042000023B20F8023B7BE7043AD9D3013A11F8AA
:10043000013B00F8013BF9D20B7803704B78437015
:100440008B7883706046704770B4860746D0541E20
:10045000002A41D0CAB2034602E014F1FF343BD374
:1004600003F8012B9D07F8D1032C2ED9CDB245EA14
:1004700005250F2C45EA054519D903F1100226463A
:10048000103E0F2E42F8105C42F80C5C42F8085CFB
:1004900042F8045C02F11002F2D8A4F1100222F03A
:1004A0000F0204F00F041032032C13440DD91E4622
:1004B0002246043A032A46F8045BFAD8221F22F0A7
:1004C00003020432134404F003042CB1C9B21C44E7
:1004D00003F8011B9C42FBD170BC704714460346D5
:1004E000C2E700BF2DE9F047254C2568D5F8484103
:1004F0000646884692469946C4B360681F2817DCB2
:10050000431C76B104EB80050122C5F888A0D4F81D
:10051000881182401143022EC4F88811C5F8089151
:100520001ED00230636044F820800020BDE8F087D0
:10053000144B03B34FF4C870AFF300800446D0B13E
:10054000D5F84831002780E88800C5F8484138468A
:100550000123C4F88871C4F88C71002EE1D0D1E772
:10056000D4F88C110A43C4F88C21DAE705F5A67497
:10057000C5F84841C1E74FF0FF30BDE8F08700BF44
:10058000E46B00080000000081F0004102E000BFC1
:1005900083F0004330B54FEA41044FEA430594EA43
:1005A000050F08BF90EA020F1FBF54EA000C55EA7E
:1005B000020C7FEA645C7FEA655C00F0E2804FEA4F
:1005C0005454D4EB5555B8BF6D420CDD2C4480EA31
:1005D000020281EA030382EA000083EA010180EA61
:1005E000020281EA0303362D88BF30BD11F0004FAF
:1005F0004FEA01314FF4801C4CEA113102D04042E5
:1006000061EB410113F0004F4FEA03334CEA13331F
:1006100002D0524263EB430394EA050F00F0A78037
:10062000A4F10104D5F1200E0DDB02FA0EFC22FA32
:1006300005F2801841F1000103FA0EF2801843FA26
:1006400005F359410EE0A5F120050EF1200E012A17
:1006500003FA0EFC28BF4CF0020C43FA05F3C01855
:1006600051EBE37101F0004507D54FF0000EDCF1CE
:10067000000C7EEB00006EEB0101B1F5801F1BD377
:10068000B1F5001F0CD349085FEA30004FEA3C0C7B
:1006900004F101044FEA445212F5800F80F09A8071
:1006A000BCF1004F08BF5FEA500C50F1000041EB75
:1006B000045141EA050130BD5FEA4C0C404141EB79
:1006C000010111F4801FA4F10104E9D191F0000FA0
:1006D00004BF01460020B1FA81F308BF2033A3F123
:1006E0000B03B3F120020CDA0C3208DD02F1140C1A
:1006F000C2F10C0201FA0CF021FA02F10CE002F155
:100700001402D8BFC2F1200C01FA02F120FA0CFC4D
:10071000DCBF41EA0C019040E41AA2BF01EB045196
:10072000294330BD6FEA04041F3C1CDA0C340EDC94
:1007300004F11404C4F1200220FA04F001FA02F3D7
:1007400040EA030021FA04F345EA030130BDC4F195
:100750000C04C4F1200220FA02F001FA04F340EA8A
:100760000300294630BD21FA04F0294630BD94F03B
:10077000000F83F4801306BF81F480110134013D22
:100780004EE77FEA645C18BF7FEA655C29D094EA93
:10079000050F08BF90EA020F05D054EA000C04BF11
:1007A0001946104630BD91EA030F1EBF00210020FC
:1007B00030BD5FEA545C05D14000494128BF41F09B
:1007C000004130BD14F580043CBF01F5801130BDFF
:1007D00001F0004545F0FE4141F470014FF000008A
:1007E00030BD7FEA645C1ABF194610467FEA655C3B
:1007F0001CBF0B46024650EA013406BF52EA0335DD
:1008000091EA030F41F4002130BD00BF90F0000FCA
:1008100004BF0021704730B54FF4806404F1320406
:100820004FF000054FF0000150E700BF90F0000FBF
:1008300004BF0021704730B54FF4806404F13204E6
:1008400010F0004548BF40424FF000013EE700BFB6
:1008500042004FEAE2014FEA31014FEA02701FBF46
:1008600012F07F4393F07F4F81F06051704792F018
:10087000000F14BF93F07F4F704730B54FF4607492
:1008800001F0004521F0004120E700BF50EA0102DD
:1008900008BF704730B54FF000050AE050EA01028A
:1008A00008BF704730B511F0004502D5404261EBFA
:1008B00041014FF4806404F132045FEA915C3FF43B
:1008C000DCAE4FF003025FEADC0C18BF03325FEAD4
:1008D000DC0C18BF033202EBDC02C2F1200300FA89
:1008E00003FC20FA02F001FA03FE40EA0E0021FAAE
:1008F00002F11444C1E600BF70B54FF0FF0C4CF498
:10090000E06C1CEA11541DBF1CEA135594EA0C0F4D
:1009100095EA0C0F00F0DEF82C4481EA030621EA88
:100920004C5123EA4C5350EA013518BF52EA0335C3
:1009300041F4801143F4801338D0A0FB02CE4FF075
:100940000005E1FB02E506F00042E0FB03E54FF0A5
:100950000006E1FB03569CF0000F18BF4EF0010E9D
:10096000A4F1FF04B6F5007F64F5407404D25FEA99
:100970004E0E6D4146EB060642EAC62141EA55514C
:100980004FEAC52040EA5E504FEACE2EB4F1FD0C8E
:1009900088BFBCF5E06F1ED8BEF1004F08BF5FEA0C
:1009A000500E50F1000041EB045170BD06F00046BE
:1009B00046EA010140EA020081EA0301B4EB5C046B
:1009C000C2BFD4EB0C0541EA045170BD41F4801163
:1009D0004FF0000E013C00F3AB8014F1360FDEBF88
:1009E000002001F0004170BDC4F10004203C35DA64
:1009F0000C341BDC04F11404C4F1200500FA05F3E7
:100A000020FA04F001FA05F240EA020001F0004287
:100A100021F0004110EBD37021FA04F642EB0601FD
:100A20005EEA430E08BF20EAD37070BDC4F10C0427
:100A3000C4F1200500FA04F320FA05F001FA04F2EB
:100A400040EA020001F0004110EBD37041F10001D7
:100A50005EEA430E08BF20EAD37070BDC4F12005E2
:100A600000FA05F24EEA020E20FA04F301FA05F24A
:100A700043EA020321FA04F001F0004121FA04F2F2
:100A800020EA020000EBD3705EEA430E08BF20EAC2
:100A9000D37070BD94F0000F0FD101F000464000FC
:100AA00041EB010111F4801F08BF013CF7D041EA7E
:100AB000060195F0000F18BF704703F00046520082
:100AC00043EB030313F4801F08BF013DF7D043EA53
:100AD0000603704794EA0C0F0CEA135518BF95EA09
:100AE0000C0F0CD050EA410618BF52EA4306D1D190
:100AF00081EA030101F000414FF0000070BD50EAAF
:100B0000410606BF1046194652EA430619D094EA38
:100B10000C0F02D150EA013613D195EA0C0F05D122
:100B200052EA03361CBF104619460AD181EA030176
:100B300001F0004141F0FE4141F470014FF000002E
:100B400070BD41F0FE4141F4780170BD70B54FF0C9
:100B5000FF0C4CF4E06C1CEA11541DBF1CEA135549
:100B600094EA0C0F95EA0C0F00F0A7F8A4EB05042B
:100B700081EA030E52EA03354FEA013100F0888022
:100B80004FEA03334FF0805545EA131343EA1263EB
:100B90004FEA022245EA111545EA10654FEA0026A0
:100BA0000EF000419D4208BF964244F1FD0404F559
:100BB000407402D25B084FEA3202B61A65EB0305B5
:100BC0005B084FEA32024FF480104FF4002CB6EB72
:100BD000020E75EB030E22BFB61A754640EA0C00F2
:100BE0005B084FEA3202B6EB020E75EB030E22BF32
:100BF000B61A754640EA5C005B084FEA3202B6EB73
:100C0000020E75EB030E22BFB61A754640EA9C0031
:100C10005B084FEA3202B6EB020E75EB030E22BF01
:100C2000B61A754640EADC0055EA060E18D04FEABF
:100C3000051545EA16754FEA06164FEAC30343EA5F
:100C400052734FEAC2025FEA1C1CC0D111F4801F2C
:100C50000BD141EA00014FF000004FF0004CB6E725
:100C600011F4801F04BF01430020B4F1FD0C88BFC4
:100C7000BCF5E06F3FF6AFAEB5EB030C04BFB6EBCF
:100C8000020C5FEA500C50F1000041EB045170BDC2
:100C90000EF0004E4EEA113114EB5C04C2BFD4EBEF
:100CA0000C0541EA045170BD41F480114FF0000E73
:100CB000013C90E645EA060E8DE60CEA135594EAEF
:100CC0000C0F08BF95EA0C0F3FF43BAF94EA0C0FF2
:100CD0000AD150EA01347FF434AF95EA0C0F7FF467
:100CE00025AF104619462CE795EA0C0F06D152EABB
:100CF00003353FF4FDAE1046194622E750EA41069F
:100D000018BF52EA43067FF4C5AE50EA41047FF4AF
:100D10000DAF52EA43057FF4EBAE12E74A0011D261
:100D200012F5001211D20DD56FF47873B3EB625245
:100D30000ED44FEAC12343F0004343EA505323FA51
:100D400002F070474FF00000704750EA013002D1C6
:100D50004FF0FF3070474FF00000704753B94AB969
:100D6000002908BF00281CBF4FF0FF314FF0FF30B3
:100D700000F07AB9ADF1080C6DE904CE00F006F888
:100D8000DDF804E0DDE9022304B070472DE9F04707
:100D90008C460D460446089E002B51D18A421746C8
:100DA0006DD9B2FA82FEBEF1000F0BD0CEF1200C4D
:100DB00001FA0EF520FA0CFC02FA0EF74CEA050CCB
:100DC00000FA0EF44FEA174A250CBCFBFAF81FFA9A
:100DD00087F90AFB18CC45EA0C4508FB09F3AB423E
:100DE0000AD9ED1908F1FF3280F02381AB4240F2BD
:100DF0002081A8F102083D44ED1AA4B2B5FBFAF037
:100E00000AFB105544EA054400FB09F9A14509D93C
:100E1000E41900F1FF3380F00A81A14540F2078117
:100E200002383C44A4EB090440EA08400021002EAB
:100E300061D024FA0EF4002334607360BDE8F087BB
:100E40008B4207D9002E54D0002186E821000846A5
:100E5000BDE8F087B3FA83F1002940F08E80AB4201
:100E600002D3824200F2FA80841A65EB0305012066
:100E7000AC46002E3FD086E81010BDE8F08712B9CE
:100E80000127B7FBF2F7B7FA87FEBEF1000F34D1A6
:100E9000EB1B3A0C1FFA87FC0121B3FBF2F8250C7F
:100EA00002FB183345EA03450CFB08F3AB4207D9B4
:100EB000ED1908F1FF3002D2AB4200F2D18080463A
:100EC000ED1AA3B2B5FBF2F002FB105543EA05445C
:100ED0000CFB00FCA44507D9E41900F1FF3302D252
:100EE000A44500F2B8801846A4EB0C0440EA084080
:100EF0009DE731463046BDE8F087CEF1200405FA83
:100F00000EF307FA0EF720FA04F83A0C25FA04F467
:100F100048EA0308B4FBF2F14FEA184502FB11441A
:100F20001FFA87FC45EA044501FB0CF3AB4200FACB
:100F30000EF409D9ED1901F1FF3080F08A80AB423F
:100F400040F2878002393D44EB1A1FFA88F5B3FB63
:100F5000F2F002FB103345EA034500FB0CF3AB4211
:100F600007D9ED1900F1FF386FD2AB426DD90238C5
:100F70003D44EB1A40EA01418FE7C1F1200722FA14
:100F800007F88B4005FA01F448EA030320FA07FE4C
:100F90004FEA134CFD404EEA040EB5FBFCF94FEA54
:100FA0001E440CFB19551FFA83F844EA054509FB5A
:100FB00008F4AC4202FA01F200FA01FA08D9ED187D
:100FC00009F1FF3043D2AC4241D9A9F102091D44D5
:100FD0002D1B1FFA8EFEB5FBFCF00CFB10554EEAE4
:100FE000054400FB08F8A04507D9E41800F1FF35D7
:100FF00029D2A04527D902381C4440EA0940A4EB75
:101000000804A0FB02894C45C6464D4615D312D0B4
:1010100056B1BAEB0E0364EB050404FA07F7CB40B4
:101020001F43CC40376074600021BDE8F08718464C
:10103000F8E69046E0E6C245EAD2B8EB020E69EB6C
:1010400003050138E4E72846D7E7404691E78146A3
:10105000BEE7014678E702383C4445E7084608E722
:10106000A8F102083D442BE7704700BFB0F8E62026
:10107000A2F61C4202EB82021301054A82FB031214
:10108000DB17C3EBA2130A3380F8F330704700BFBD
:10109000D34D62100023A0F8E43000E001335F2B51
:1010A00008D830F81320B0F8E4108A42F6D9A0F836
:1010B000E420F3E770470023A0F8EA3000E00133B2
:1010C0000F2B0AD803F1600230F81220B0F8EA10B2
:1010D0008A42F4D9A0F8EA20F1E7704744F6206389
:1010E000A0F8EC30002300E001330F2B0CD803F103
:1010F000600230F81220002AF6D0B0F8EC108A42D4
:10110000F2D2A0F8EC20EFE7704710B400231946A4
:101110001C4601E0114401330F2B07D803F1600294
:1011200030F81220002AF5D10134F3E7C4F110049D
:1011300091FBF4F1A0F8EE105DF8044B7047B0F8A5
:10114000EA30B0F8EC209B1AA0F8F0307047B0F805
:10115000E430B0F8E2209B1AA0F8E830704741F282
:101160008833A0F8E230002300E001335F2B08D879
:1011700030F81320B0F8E2108A42F6D2A0F8E2204C
:10118000F3E7704700231A4603E030F813100A44CF
:1011900001335F2BF9D9044981FB0231D317C3EB2B
:1011A0002113A0F8E6307047ABAAAA2A00231A46FA
:1011B00003E030F813100A4401335F2BF9D9034BD5
:1011C000A3FB0223DB08A0F8E0307047CDCCCCCCE9
:1011D00010B400231A4600E001335F2B07D830F823
:1011E0001340B4F5FA7FF7D9013292B2F4E7602ADE
:1011F00006D0F622044B02FB0131042381F8F230C1
:101200005DF8044B704700BF684D002000210129A4
:101210003FD810B41DE0C1EB4113C1EB830313446D
:1012200000241E4820F8134001325F2AF3D900221F
:101230000AE0C1EB4113C1EB830313446033002484
:10124000164820F8134001320F2AF2D90131012942
:1012500019D8F623114A03FB0123002283F8F22058
:10126000A3F8E820A3F8EA2083F8F420A3F8E42008
:10127000A3F8E220A3F8EC20A3F8E02083F8F32001
:10128000A3F8F020D1E70022054B1A705DF8044B5B
:1012900070470022024B1A70704700BF684D002053
:1012A000C04F002090F8F230042B5AD8DFE803F04A
:1012B000030A592F4800002380F8F430012380F8F6
:1012C000F2307047002380F8F430B0F8E62040F6A2
:1012D0000A739A420ED9B0F8E430B0F8E2209B1AB3
:1012E000112B03DD012380F8F53006E0002380F8A0
:1012F000F53002E0002380F8F530B0F8E42040F645
:10130000B3739A422DD8032380F8F230704700233C
:1013100080F8F530012380F8F430B0F8E42041F291
:1013200054039A4205D8B0F8EA2043F2B0639A42D7
:1013300017D9002380F8F430012380F8F230704789
:10134000002380F8F430B0F8E230B3F5FA6F08D932
:10135000B0F8E42041F299039A4202D8012380F8C0
:10136000F230704700B583B0204B93F8F430012B76
:1013700006D01E4B93F8F430EBB103B05DF804FBDC
:1013800040238DF8003000238DF8013020228DF8A5
:10139000022009218DF803108DF804208DF8053006
:1013A0008DF806308DF807306A46082140F2056056
:1013B00001F0B6F9DDE740238DF8003000238DF809
:1013C000013020228DF8022009228DF803208DF8AB
:1013D00004308DF805308DF806308DF807306A46F8
:1013E000082140F2056001F09BF9C6E7684D002036
:1013F00030B585B0224CB4F8E0308DF808301B0AC7
:101400008DF80930B4F8EE308DF80A301B0A8DF8EB
:101410000B30B4F8E8308DF80C301B0A8DF80D3025
:1014200094F8F3308DF80E3000258DF80F5002AA95
:1014300008214FF49C7001F073F9B4F8D6318DF89F
:1014400000301B0A8DF80130B4F8E4318DF8023019
:101450001B0A8DF80330B4F8DE318DF804301B0A16
:101460008DF8053094F8E9318DF806308DF8075085
:101470006A46082140F2391001F052F905B030BD3A
:10148000684D002030B585B002258DF80850002445
:101490008DF809408DF80A4002AA03214FF400702C
:1014A00001F01EF98DF800508DF801408DF80240D2
:1014B0006A4603214FF4007001F052F905B030BDC7
:1014C00010B582B00446FFF7DDFF94F8F53033B174
:1014D00029E002AA1A44002102F8081C0133072B54
:1014E000F7D96A4608214FF4407001F0F9F86A46CE
:1014F00008214FF4407001F033F9002305E002AAFF
:101500001A44002102F8081C0133042BF7D96A465B
:1015100005214FF4447001F0E3F86A4605214FF4C9
:10152000447001F01DF902B010BD000038B500256F
:101530002BE0174BF62404FB05342046FFF7C0FFD1
:101540002046FFF733FE2046FFF71CFE2046FFF73C
:1015500006FE2046FFF79EFD2046FFF7F8FD2046D9
:10156000FFF7BCFD2046FFF7A6FD2046FFF7CDFDA7
:101570002046FFF7E4FD29462046FFF729FE2046D6
:10158000FFF774FDFFF7EEFE0135012DD1D938BD0F
:10159000684D002030B585B004460D46C1B1012D1F
:1015A00051D005B030BD01333D2B13D8B4F8E6104F
:1015B00034F813209142F6D2364AD25C3649C95CDF
:1015C00004A8024412F8080C014302F8081CEAE7D8
:1015D0000023E9E702AA08214FF4407001F080F8E7
:1015E0003E2300E001335F2B11D8B4F8E61034F845
:1015F00013209142F6D2274AD25C2749C95C04A83D
:10160000024412F8080C014302F8081CEAE702AA97
:1016100005214FF4447001F063F8C0E701333D2B1E
:1016200013D8B4F8E61034F813209142F6D2194AD0
:10163000D25C1949C95C04A8024412F8100C014399
:1016400002F8101CEAE70023E9E76A4608214FF494
:10165000407001F085F83E2300E001335F2B11D884
:10166000B4F8E61034F813209142F6D2094AD25C5D
:101670000949C95C04A8024412F8100C014302F89D
:10168000101CEAE76A4605214FF4447001F068F83F
:1016900087E700BFE86B0008486C00087047704798
:1016A00038B5054614460B68A3F58C631E2B00F273
:1016B0002186DFE813F01F007B00F5006F01EC01CD
:1016C0006C02EE021F067203F40376041F06FA048E
:1016D0005C05BE051F064D00B8003201AF012B02AC
:1016E000AD0231031F06B3033504B9041F062B05F1
:1016F0008D05EF0523781B0203F4706360781844AE
:10170000FFF794F80022C24BFFF7F6F8FFF706FB4D
:101710002880A3781B0203F47063E0781844FFF775
:1017200085F80022BA4BFFF7E7F8FFF7F7FA688071
:1017300023791B0203F4706360791844FFF776F88D
:101740000022B34BFFF7D8F8FFF7E8FAA88038BDBE
:1017500023781B0203F4706360781844FFF766F87F
:101760000022AB4BFFF7C8F8FFF7D8FAE880A37860
:101770001B0203F47063E0781844FFF757F8002267
:10178000A34BFFF7B9F8FFF7C9FA288123791B02A9
:1017900003F4706360791844FFF748F800229C4B0B
:1017A000FFF7AAF8FFF7BAFA688138BD23781B0261
:1017B00003F4706360781844FFF738F80022944B04
:1017C000FFF79AF8FFF7AAFAA881A3781B0203F49F
:1017D0007063E0781844FFF729F800228C4BFFF77C
:1017E0008BF8FFF79BFAE88123791B0203F47063FF
:1017F00060791844FFF71AF80022854BFFF77CF850
:10180000FFF78CFA2882A3791B0203F47063E07956
:101810001844FFF70BF800227D4BFFF76DF8FFF738
:101820007DFA688238BD23781B0203F47063607808
:101830001844FEF7FBFF0022754BFFF75DF8FFF73A
:101840006DFAA882A3781B0203F47063E078184451
:10185000FEF7ECFF00226E4BFFF74EF8FFF75EFA43
:10186000E88223791B0203F4706360791844FEF761
:10187000DDFF0022664BFFF73FF8FFF74FFA2883A2
:10188000A3791B0203F47063E0791844FEF7CEFFDE
:1018900000225F4BFFF730F8FFF740FA688338BD4E
:1018A00023781B0203F4706360781844FEF7BEFFD0
:1018B0000022574BFFF720F8FFF730FAA883A378F0
:1018C0001B0203F47063E0781844FEF7AFFF0022B8
:1018D0004F4BFFF711F8FFF721FAE88323791B023A
:1018E00003F4706360791844FEF7A0FF0022484BB0
:1018F000FFF702F8FFF712FA2884A3791B0203F41A
:101900007063E0791844FEF791FF0022404BFEF728
:10191000F3FFFFF703FA688438BD23781B0203F452
:10192000706360781844FEF781FF0022384BFEF7A1
:10193000E3FFFFF7F3F9A884A3781B0203F47063B5
:10194000E0781844FEF772FF0022314BFEF7D4FF17
:10195000FFF7E4F9E88423791B0203F470636079EC
:101960001844FEF763FF0022294BFEF7C5FFFFF77F
:10197000D5F92885A3791B0203F47063E079184434
:10198000FEF754FF0022224BFEF7B6FFFFF7C6F921
:10199000688538BD23781B0203F4706360781844AF
:1019A000FEF744FF00221A4BFEF7A6FFFFF7B6F939
:1019B000A885A3781B0203F47063E0781844FEF74F
:1019C00035FF0022124BFEF797FFFFF7A7F9E885D6
:1019D00023791B0203F4706360791844FEF726FF35
:1019E00000220B4BFEF788FFFFF798F92886A379B2
:1019F0001B0203F47063E0791844FEF717FF00221E
:101A0000034BFEF779FFFFF789F9688638BD00BF01
:101A10000000F43F23781B0203F4706360781844DD
:101A2000FEF704FF0022BB4BFEF766FFFFF776F9D7
:101A3000A886A3781B0203F47063E0781844FEF7CD
:101A4000F5FE0022B34BFEF757FFFFF767F9E88674
:101A500023791B0203F4706360791844FEF7E6FEF5
:101A60000022AC4BFEF748FFFFF758F92887A3790F
:101A70001B0203F47063E0791844FEF7D7FE0022DE
:101A8000A44BFEF739FFFFF749F9688738BD237883
:101A90001B0203F4706360781844FEF7C7FE00224F
:101AA0009C4BFEF729FFFFF739F9A887A3781B02A3
:101AB00003F47063E0781844FEF7B8FE0022954BFB
:101AC000FEF71AFFFFF72AF9E88723791B0203F4D0
:101AD000706360791844FEF7A9FE00228D4BFEF773
:101AE0000BFFFFF71BF9A5F84000A3791B0203F4D5
:101AF0007063E0791844FEF799FE0022854BFEF7EB
:101B0000FBFEFFF70BF9A5F8420038BD23781B0256
:101B100003F4706360781844FEF788FE00227D4B62
:101B2000FEF7EAFEFFF7FAF8A5F84400A3781B02D7
:101B300003F47063E0781844FEF778FE0022754BDA
:101B4000FEF7DAFEFFF7EAF8A5F8460023791B0254
:101B500003F4706360791844FEF768FE00226D4B51
:101B6000FEF7CAFEFFF7DAF8A5F84800A3791B02D2
:101B700003F47063E0791844FEF758FE0022654BC9
:101B8000FEF7BAFEFFF7CAF8A5F84A0038BD237879
:101B90001B0203F4706360781844FEF747FE0022CE
:101BA0005C4BFEF7A9FEFFF7B9F8A5F84C00A37847
:101BB0001B0203F47063E0781844FEF737FE00223E
:101BC000544BFEF799FEFFF7A9F8A5F84E002379CC
:101BD0001B0203F4706360791844FEF727FE0022AD
:101BE0004C4BFEF789FEFFF799F8A5F85000A37952
:101BF0001B0203F47063E0791844FEF717FE00221D
:101C0000444BFEF779FEFFF789F8A5F8520038BD7E
:101C100023781B0203F4706360781844FEF706FE15
:101C200000223C4BFEF768FEFFF778F8A5F8540059
:101C3000A3781B0203F47063E0781844FEF7F6FD06
:101C40000022344BFEF758FEFFF768F8A5F856005F
:101C500023791B0203F4706360791844FEF7E6FDF4
:101C600000222C4BFEF748FEFFF758F8A5F8580065
:101C7000A3791B0203F47063E0791844FEF7D6FDE4
:101C80000022244BFEF738FEFFF748F8A5F85A006B
:101C900038BD23781B0203F4706360781844FEF7A4
:101CA000C5FD00221B4BFEF727FEFFF737F8A5F80E
:101CB0005C00A3781B0203F47063E0781844FEF71D
:101CC000B5FD0022134BFEF717FEFFF727F8A5F826
:101CD0005E0023791B0203F4706360791844FEF7F9
:101CE000A5FD00220B4BFEF707FEFFF717F8A5F83E
:101CF0006000A3791B0203F47063E0791844FEF7D7
:101D000095FD0022034BFEF7F7FDFFF707F8A5F856
:101D1000620038BD0000F43F23781B0203F47063B7
:101D200060781844FEF782FD0022BE4BFEF7E4FD0A
:101D3000FEF7F4FFA5F86400A3781B0203F47063B8
:101D4000E0781844FEF772FD0022B64BFEF7D4FD92
:101D5000FEF7E4FFA5F8660023791B0203F4706325
:101D600060791844FEF762FD0022AE4BFEF7C4FD19
:101D7000FEF7D4FFA5F86800A3791B0203F4706393
:101D8000E0791844FEF752FD0022A64BFEF7B4FDA1
:101D9000FEF7C4FFA5F86A0038BD23781B0203F4E0
:101DA000706360781844FEF741FD00229D4BFEF7FA
:101DB000A3FDFEF7B3FFA5F86C00A3781B0203F4A4
:101DC0007063E0781844FEF731FD0022954BFEF772
:101DD00093FDFEF7A3FFA5F86E0023791B0203F421
:101DE000706360791844FEF721FD00228D4BFEF7E9
:101DF00083FDFEF793FFA5F87000A3791B0203F49F
:101E00007063E0791844FEF711FD0022854BFEF760
:101E100073FDFEF783FFA5F8720038BD23781B021F
:101E200003F4706360781844FEF700FD00227D4BD8
:101E3000FEF762FDFEF772FFA5F87400A3781B029F
:101E400003F47063E0781844FEF7F0FC0022754B51
:101E5000FEF752FDFEF762FFA5F8760023791B021C
:101E600003F4706360791844FEF7E0FC00226D4BC8
:101E7000FEF742FDFEF752FFA5F87800A3791B029A
:101E800003F47063E0791844FEF7D0FC0022654B40
:101E9000FEF732FDFEF742FFA5F87A0038BD237841
:101EA0001B0203F4706360781844FEF7BFFC002245
:101EB0005C4BFEF721FDFEF731FFA5F87C00A3780F
:101EC0001B0203F47063E0781844FEF7AFFC0022B5
:101ED000544BFEF711FDFEF721FFA5F87E00237994
:101EE0001B0203F4706360791844FEF79FFC002224
:101EF0004C4BFEF701FDFEF711FFA5F88000A3791A
:101F00001B0203F47063E0791844FEF78FFC002293
:101F1000444BFEF7F1FCFEF701FFA5F8820038BD47
:101F200023781B0203F4706360781844FEF77EFC8C
:101F300000223C4BFEF7E0FCFEF7F0FEA5F8840023
:101F4000A3781B0203F47063E0781844FEF76EFC7C
:101F50000022344BFEF7D0FCFEF7E0FEA5F8860029
:101F600023791B0203F4706360791844FEF75EFC6A
:101F700000222C4BFEF7C0FCFEF7D0FEA5F888002F
:101F8000A3791B0203F47063E0791844FEF74EFC5A
:101F90000022244BFEF7B0FCFEF7C0FEA5F88A0035
:101FA00038BD23781B0203F4706360781844FEF791
:101FB0003DFC00221B4BFEF79FFCFEF7AFFEA5F891
:101FC0008C00A3781B0203F47063E0781844FEF7DA
:101FD0002DFC0022134BFEF78FFCFEF79FFEA5F8A9
:101FE0008E0023791B0203F4706360791844FEF7B6
:101FF0001DFC00220B4BFEF77FFCFEF78FFEA5F8C1
:102000009000A3791B0203F47063E0791844FEF793
:102010000DFC0022034BFEF76FFCFEF77FFEA5F8D8
:10202000920038BD0000F43F23781B0203F4706374
:1020300060781844FEF7FAFB0022AF4BFEF75CFC19
:10204000FEF76CFEA5F89400A3781B0203F47063FE
:10205000E0781844FEF7EAFB0022A74BFEF74CFCA1
:10206000FEF75CFEA5F8960023791B0203F470636B
:1020700060791844FEF7DAFB00229F4BFEF73CFC28
:10208000FEF74CFEA5F89800A3791B0203F47063D9
:10209000E0791844FEF7CAFB0022974BFEF72CFCB0
:1020A000FEF73CFEA5F89A0038BD23781B0203F426
:1020B000706360781844FEF7B9FB00228E4BFEF780
:1020C0001BFCFEF72BFEA5F89C00A3781B0203F473
:1020D0007063E0781844FEF7A9FB0022864BFEF7F8
:1020E0000BFCFEF71BFEA5F89E0023791B0203F4F0
:1020F000706360791844FEF799FB00227E4BFEF76F
:10210000FBFBFEF70BFEA5F8A00038BD23781B02F1
:1021100003F4706360781844FEF788FB0022764B66
:10212000FEF7EAFBFEF7FAFDA5F8A200A3781B0272
:1021300003F47063E0781844FEF778FB00226E4BDE
:10214000FEF7DAFBFEF7EAFDA5F8A40023791B02EF
:1021500003F4706360791844FEF768FB0022664B55
:10216000FEF7CAFBFEF7DAFDA5F8A60038BD237816
:102170001B0203F4706360781844FEF757FB0022DB
:102180005D4BFEF7B9FBFEF7C9FDA5F8A800A378E3
:102190001B0203F47063E0781844FEF747FB00224B
:1021A000554BFEF7A9FBFEF7B9FDA5F8AA00237968
:1021B0001B0203F4706360791844FEF737FB0022BA
:1021C0004D4BFEF799FBFEF7A9FDA5F8AC0038BD15
:1021D00023781B0203F4706360781844FEF726FB33
:1021E0000022454BFEF788FBFEF798FDA5F8AE00F0
:1021F000A3781B0203F47063E0781844FEF716FB23
:1022000000223D4BFEF778FBFEF788FDA5F8B000F5
:1022100023791B0203F4706360791844FEF706FB10
:102220000022354BFEF768FBFEF778FDA5F8B200FB
:1022300038BD23781B0203F4706360781844FEF7FE
:10224000F5FA00222C4BFEF757FBFEF767FDA5F8C9
:10225000B400A3781B0203F47063E0781844FEF71F
:10226000E5FA0022244BFEF747FBFEF757FDA5F8E1
:10227000B60023791B0203F4706360791844FEF7FB
:10228000D5FA00221C4BFEF737FBFEF747FDA5F8F9
:10229000B80038BD23781B0203F4706360781844DB
:1022A000FEF7C4FA0022144BFEF726FBFEF736FDBC
:1022B000A5F8BA00A3781B0203F47063E078184411
:1022C000FEF7B4FA00220C4BFEF716FBFEF726FDD4
:1022D000A5F8BC0023791B0203F4706360791844ED
:1022E000FEF7A4FA0022044BFEF706FBFEF716FDEC
:1022F000A5F8BE0038BD00BF0000F43F0B68A3F591
:10230000FC630E2B00F28E80DFE803F00814202F10
:10231000333F4E8C525E6D8C717D890011785378FD
:1023200003EB0123A3EBC30303F5E0431C33A0F845
:10233000C03070471178537803EB0123A3EBC3033C
:1023400003F5E0431C33A0F8C23070470023A0F827
:10235000C4309178D37803EB0123A3EBC30303F5D7
:10236000E0431C33A0F8C63070470023A0F8C83003
:1023700070471178537803EB0123A3EBC30303F5F4
:10238000E0431C33A0F8CA3070470023A0F8CC30DB
:102390009178D37803EB0123A3EBC30303F5E04368
:1023A0001C33A0F8CE3070470023A0F8D03070471F
:1023B0001178537803EB0123A3EBC30303F5E04348
:1023C0001C33A0F8D23070470023A0F8D4309178A5
:1023D000D37803EB0123A3EBC30303F5E0431C33E2
:1023E000A0F8D63070470023A0F8D8307047117895
:1023F000537803EB0123A3EBC30303F5E0431C3342
:10240000A0F8DA3070471178537803EB0123A3EB7F
:10241000C30303F5E0431C33A0F8DC30704700230E
:10242000A0F8DE3070470000F8B5044602681C4B87
:102430009A4204D022681B4B9A4218D0F8BD1A4B1E
:102440001A4A00211A4801F076F968B9164F174E5A
:10245000184D3A4631462846FFF722F93A463146AA
:102460002846FFF74BFFE5E700F00AFAEEE7124BCC
:10247000124A0021124801F05EF968B90E4E0F4D64
:10248000104C324629462046FFF70AF932462946C3
:102490002046FFF733FFD1E700F0F2F9EEE700BF87
:1024A00000640040006C00404C510020E84F0020C8
:1024B000FC500020684D0020A4510020544F002003
:1024C000385000205E4E002070B504460268174B5D
:1024D0009A4204D02268164B9A420FD070BD154B19
:1024E000154A0121154801F026F920B91149124871
:1024F000FFF7D4F8EEE700F0C3F9F7E7104B114A05
:102500000121114801F017F968B90D4E0D4D0F4C1E
:10251000324629462046FFF7C3F832462946204670
:10252000FFF7ECFEDAE700F0ABF9EEE700680040F9
:10253000006C0040C44F0020E0500020605000209C
:10254000A4510020544F0020385000205E4E00203F
:1025500008B5574A00239360D3601375554A042188
:102560009160D360137554494B618B61CB614FF619
:10257000FF724A6041F6FF720A60CB608B600B61AC
:102580000E234B6201230B624C4800F097FF00289A
:1025900072D14A4801F02CF8002870D10221474836
:1025A00001F063F900286DD100220321132001F00E
:1025B000B7FA132001F0E6FA414A00239360D36092
:1025C0001375404A04219160D36013753E490E2271
:1025D0004A618B61CB614FF6FF70486041F6FF7036
:1025E0000860CB608B6001230B614A620B62374845
:1025F00000F064FF002848D1344800F0F9FF0028BB
:1026000046D11021314801F030F9002843D1002291
:1026100003213F2001F084FA3F2001F0B3FA2C4A55
:1026200000239360D36013752A4A04219160D3601C
:102630001375294901224A618B61CA614B600B60A5
:10264000CB608B600B610E234B620A62234800F063
:1026500035FF18BB214800F0CBFF10BB02211F48FB
:1026600001F003F900BB002203214A2001F058FACF
:102670004A2001F087FA08BD00F002F989E700F06E
:10268000FFF88BE700F0FCF88EE700F0F9F8B3E70D
:1026900000F0F6F8B5E700F0F3F8B8E700F0F0F86E
:1026A000D8E700F0EDF8D9E700F0EAF8DBE700BF83
:1026B0008C500020C4500020984F0020FC50002077
:1026C00008500020D04F00202451002060500020EE
:1026D00020500020A85000207C51002038500020BD
:1026E00010B50B4C206021610A4B21460A4800F0CE
:1026F000ADFF0A4A136801331360022B00DC10BDE2
:10270000012000F021FE0022044B1A60F7E700BF11
:102710008C500020A4500020FC500020DC500020F1
:1027200010B50B4C206021610A4B21460A4800F08D
:102730008DFF0A4A136801331360022B00DC10BDC1
:10274000012000F001FE0022044B1A60F7E700BFF1
:10275000085000208850002060500020C050002009
:1027600010B50B4C206021610A4B21460A4800F04D
:102770006DFF0A4A136801331360022B00DC10BDA1
:10278000012000F0E1FD0022044B1A60F7E700BFD2
:1027900020500020CC4F0020385000200450002052
:1027A00008B5074C2046FEF77DFD04F1F600FEF764
:1027B00079FDFEF7D7FD012002F0F6FBF1E700BF3F
:1027C000684D002008B507E000210C48FEF7E2FE46
:1027D00009E0C82002F0E8FBFEF754FE074B93F82F
:1027E000F530002BF0D1054B93F8EB31002BF0D0F6
:1027F00001210348FEF7CEFEEBE700BF684D002045
:102800005E4E002008B5FEF74AFF41F2883002F024
:10281000CBFBF8E708B5FEF789FEFEF7E9FD4FF4BC
:102820007A7002F0C1FBF6E710B502680F4B9A42CE
:1028300004D002680E4B9A4215D010BD0D4C0023F7
:1028400063610A4A13600C4B1B68D96821F00101CF
:10285000D9600A490968D162012151616FF0010212
:102860001A612174E5E700F05DFDE6E70000014034
:102870000014004038520020F4510020345200204F
:1028800072B6FEE708B50D480D4B03603023436078
:1028900000238360C3604FF4803202614FF4001262
:1028A0004261037643768376C3760377437700F0FD
:1028B0005FFD00B908BDFFF7E3FF00BFFC5000203B
:1028C0000064004008B50D480D4B03600C234360C5
:1028D00000238360C3604FF4803202614FF4001222
:1028E0004261037643768376C3760377437700F0BD
:1028F0003FFD00B908BDFFF7C3FF00BF60500020D7
:102900000068004008B50D480D4B0360302343605C
:1029100000238360C3604FF4803202614FF40012E1
:102920004261037643768376C3760377437700F07C
:102930001FFD00B908BDFFF7A3FF00BF38500020FE
:10294000006C004000B595B03422002107A8FDF7C7
:102950007BFD002302930393049305930693009356
:102960001E4A116C41F080511164126C02F08052C9
:102970000092009A01931A4A116841F44041116093
:10298000126802F440420192019A02220792012148
:102990000A9110210B910D920E9308230F93482357
:1029A000109311921292139207A801F08FFD80B933
:1029B0000F23029302210391002304934FF48052CA
:1029C0000592069302A801F09DFC20B915B05DF8B0
:1029D00004FBFFF755FFFFF753FF00BF003802402D
:1029E0000070004008B500F083FCFFF7ABFFFFF775
:1029F00049FFFFF767FFFFF785FFFFF7A9FD00F02D
:102A000077F9FEF703FC02F021FA0F4A00210F4884
:102A100002F060FA0E4B18600E4A00210E4802F0D8
:102A200059FA0E4B18600E4A00210E4802F052FA75
:102A30000D4B18600D4A00210D4802F04BFA0D4B6A
:102A4000186002F023FAFEE7CC6C0008A12700080A
:102A5000B0510020146D0008C5270008D451002093
:102A6000A86C00080528000854520020F06C0008EB
:102A700015280008AC51002000B583B00022009258
:102A80000D4B596C41F480415964596C01F48041FB
:102A9000009100990192196C41F0805119641B6CEE
:102AA00003F080530193019B0F216FF0010001F0AF
:102AB00037F803B05DF804FB0038024010B58CB065
:102AC00000230793089309930A930B930368474ADB
:102AD000934207D0464A934230D0464A934259D057
:102AE0000CB010BD00240194434B1A6C42F00072EC
:102AF0001A641A6C02F000720192019A02941A6B25
:102B000042F002021A631B6B03F002030293029B62
:102B10004FF4407307930223089303230A93082377
:102B20000B9307A9354801F099FA22460521142094
:102B300000F0F6FF142001F025F8D1E700240394FB
:102B40002D4B1A6C42F080621A641A6C02F080629B
:102B50000392039A04941A6B42F002021A631B6BED
:102B600003F002030493049B4FF4405307930223A2
:102B7000089303230A9309230B9307A91F4801F025
:102B80006DFA22460521412000F0CAFF412000F0E5
:102B9000F9FFA5E700240594174B1A6C42F0006278
:102BA0001A641A6C02F000620592059A06941A6B78
:102BB00042F002021A631B6B03F002030693069BAA
:102BC000182307930223089303230A930B230B93E1
:102BD00007A90A4801F042FA224605214B2000F0DD
:102BE0009FFF4B2000F0CEFF7AE700BF006400405B
:102BF00000680040006C00400038024000040240C1
:102C000010B588B000220146372000F089FF372038
:102C100000F0B8FF00240194144B1A6C42F020021B
:102C20001A641B6C03F020030193019B02A903A803
:102C300001F02EFC01F01CFC43000D48A0FB032317
:102C40009B0C013B0B480C4A026040F2E732C26029
:102C500043600461846001F0E5FF10B1012008B019
:102C600010BD044801F0A5FEF9E700BF003802409E
:102C700083DE1B435852002000140040FEE7FEE7AD
:102C8000FEE7FEE7FEE770477047704770470000B9
:102C900008B5024800F006FE08BD00BFFC50002049
:102CA0007047000008B5024801F099FE08BD00BF5A
:102CB0005852002008B5024800F0F4FD08BD00BFDE
:102CC0006050002008B5024800F0ECFD08BD00BFD0
:102CD00038500020054BD3F8882042F47002C3F826
:102CE00088204FF000629A60704700BF00ED00E05E
:102CF00010B5002313B100F0EDFA10BD0C4A02EB41
:102D000003120D21117313F0010F09D108491A01A3
:102D10008818084C8C50B42242600133DBB2E9E7DA
:102D200003491A018818044C8C503C224260F4E795
:102D300038520020D45200209852002082B0002344
:102D40000193019B0133019302B07047F0B589B044
:102D500000250195194C236B43F004032363236B77
:102D600003F004030193019B4FF4005603960127DF
:102D700004970595069503A9114801F06FF902958E
:102D8000236B43F008032363236B03F008030293D0
:102D9000029B04970595022306934FF40043039387
:102DA000A4F5305403A9204601F058F9039603A96D
:102DB000204601F053F909B0F0BD00BF00380240D1
:102DC000000802402DE9F04F83B000250195464BE5
:102DD0001A6B42F480021A631B6B03F480030193A5
:102DE000019B424C4FF0400AC4F808A0E560256101
:102DF0004FF4805BC4F814B04FF48043A3614FF4E8
:102E00008079C4F81C904FF44038C4F820804FF00B
:102E10004067676065620326A662E5622563344BFE
:102E20002360204600F0A0FF204600F035FF30234D
:102E3000304A3149204600F0CAFF304CC4F808A09F
:102E4000E5604FF4806323614FF4006363614FF4E6
:102E50000053A361C4F81C90C4F8208067606562C9
:102E6000A662E5622563264B2360204600F07CFFC6
:102E7000204600F011FF3023224A2349204600F06B
:102E8000A6FF224CC4F808A0E5602561C4F814B080
:102E90004FF48043A361C4F81C90C4F8208067609D
:102EA0006562A662E5622563194B2360204600F047
:102EB0005BFF184BE363184B2364184BE364204615
:102EC00000F0EAFE2A4629463A2000F029FE3A2080
:102ED00000F058FE3023074A1149204600F09BFFBE
:102EE00003B0BDE8F08F00BF00380240AC540020B2
:102EF000886402401808024034040020E85300208F
:102F0000286402401A0802404C54002088530020D4
:102F100040640240A9310008913200083D2D0008AC
:102F2000380400202DE9F04182B000240194354B93
:102F30005A6C42F001025A645B6C03F00103019386
:102F4000019B314B1A68130A3049A1FB03131B097B
:102F50002F490B602F49A1FB0212D20A2E490A60A9
:102F600003EB83014A002D49A1FB0201CF082C4944
:102F7000A1FB0212D6082B4D2B4A2A60EB606C6134
:102F80006C602C61AC60284601F065FE224621464B
:102F9000192000F0C5FD192000F0F4FD23494FF081
:102FA0006008C1F800808C604F60CC600C612246E4
:102FB000284601F0A3FE1E49C1F800808C604E60D7
:102FC000CC600C614C618C610422284601F096FEB5
:102FD000284601F0DCFC2146284601F00FFF2B6853
:102FE000196A41F21112114208D1196A40F24442A1
:102FF000114203D11A6822F001021A6002B0BDE842
:10300000F08100BF0038024030040020598B4F018E
:1030100034520020B5814E1BD0510020398EE33848
:1030200089888888F451002000000140D851002090
:10303000B451002010B5054C4FF40043A36104487F
:1030400000F01EFF4FF00043A36110BD000C0240D2
:103050008853002010B5054C4FF40053A361044879
:1030600001F0BDFC4FF00053A36110BD000C024005
:10307000F4510020F0B53D4CA65CE55C9DF81430A1
:10308000E45C01EB4103D900F643ED43E443002344
:103090002DE003EB010E364F07EB4E0E870047EA9B
:1030A0004E1747F008574FF0000EC7F800E034E025
:1030B00003EB010E0EF1080E2D4F07EB4E0E8700AD
:1030C00047EA4E1747F008574FF0000EC7F800E0E8
:1030D00038E05F181037264A02EB4707820042EAC1
:1030E000471242F00852002717600133DBB2072B6A
:1030F0003AD81A4605FA03F717F0800FC9D003EB48
:10310000010E1B4F07EB4E0E870047EA4E1747F0A4
:1031100008574FF0010EC7F800E006FA02F717F063
:10312000800FC5D003EB010E0EF1080E104F07EB18
:103130004E0E870047EA4E1747F008574FF0010E32
:10314000C7F800E004FA02F212F0800FC1D05F1855
:103150001037074A02EB4707820042EA471242F063
:10316000085201271760C0E7F0BD00BF846D00085A
:103170004C54002070B582B005688268531C83608F
:10318000AA5C5C1C8460EB5C661C86602C5D4568F8
:10319000AE4206D0007B009489B2FFF76BFF02B00D
:1031A00070BD00258560F5E74FF400522E4B9A6103
:1031B0002E4B9B69042B02D010B5002448E0002060
:1031C0002A4B98612A4A136823F001031360294BA4
:1031D00019680B6823F001030B60274B19680B6813
:1031E00023F001030B60254B19680B6823F00103E2
:1031F0000B60234B1B68D96821F48071D960D968B2
:1032000021F40071D960D96821F48061D9601D4929
:103210000968D1625062012151616FF001011961A9
:10322000D96841F00101D960136843F001031360CC
:10323000154B1A68154B9A614FF000520A4B9A6170
:1032400070470121094800EB0410FFF793FF013498
:10325000002CF6D0054A9369013393614FF0005278
:10326000014B9A6110BD00BF000C02403852002093
:1032700000000140AC540020E85300208853002097
:10328000F4510020D05100203804002000080240F2
:1032900010B582B00E4B9B69042B01D000240EE0C8
:1032A00000200090034602460146FFF7E3FE0CE0D3
:1032B0000021074800EB0410FFF75CFF0134002CED
:1032C000F6D0034A93690133936102B010BD00BF89
:1032D0003852002008B5FFF739FDFFF773FDFFF7FF
:1032E00021FE0122014B1A7408BD00BF3852002094
:1032F00008B50B4B1A6842F400721A601A6842F45F
:1033000080621A601A6842F480721A60032000F02A
:10331000F5FB0020FFF774FCFFF7AEFB002008BDB3
:10332000003C0240034A1168034B1B780B441360B6
:10333000704700BF0C5500203C040020014B18686A
:10334000704700BF0C55002038B50446FFF7F6FF64
:103350000546B4F1FF3F02D0044B1B781C44FFF735
:10336000EDFF401B8442FAD838BD00BF3C0400206A
:10337000002800F0A18038B5044690F82030D3B181
:103380002268136823F002031360FFF7D7FF054696
:1033900023685A6812F0020F10D0FFF7CFFF401BCE
:1033A0000A28F5D9636A43F400336362052384F87D
:1033B0002030012038BDFFF781FBE1E71A6842F0B9
:1033C00001021A60FFF7BAFF054623685A6812F037
:1033D000010F0DD1FFF7B2FF401B0A28F5D9636A30
:1033E00043F400336362052384F82030012038BDA4
:1033F000227E012A3DD01A6822F080021A60637E84
:10340000012B3BD02268136823F040031360A37E96
:10341000012B39D02268136823F020031360E37E68
:10342000012B37D02268136843F010031360237F09
:10343000012B35D02268136823F008031360637FE3
:10344000012B33D02268136823F004031360216832
:10345000A368E268134322691343626913436268F5
:10346000013A1343CB6100206062012384F82030CD
:1034700038BD1A6842F080021A60C0E722681368FB
:1034800043F040031360C2E72268136843F020034F
:103490001360C4E72268136823F010031360C6E7C3
:1034A0002268136843F008031360C8E722681368B2
:1034B00043F004031360CAE701207047026890F8E4
:1034C0002030013BDBB2012B05D9436A43F4802352
:1034D00043620120704770B4434B9A4200D0434A84
:1034E000D2F8003243F00103C2F800323F4B9A4257
:1034F00042D04B6903F01F03012000FA03F3D2F816
:103500001C42D8430440C2F81C42CC69ACB9D2F882
:103510000C420440C2F80C424C69CE688D8845EAE2
:103520000645483442F834504C698E680D8845EAA7
:103530000645483402EBC4046560CC69012C29D0EF
:103540008C69002C3DD1D2F804420440C2F80442F8
:103550000C69002C3BD1D2F814422040C2F814026E
:10356000096A012939D0D2F8003223F00103C2F8E8
:103570000032002070BC7047D2F8003223F47C5334
:10358000C2F80032D2F80032486A43EA0023C2F897
:103590000032AEE7D2F80C421C43C2F80C424C6930
:1035A0000E688D8845EA0645483442F834504C6927
:1035B0008E688D8945EA0645483402EBC40465608F
:1035C000BEE7D2F804421C43C2F80442C0E7D2F876
:1035D00014021843C2F81402C2E7D2F81C120B43BB
:1035E000C2F81C32BFE700BF006C0040006400401E
:1035F00038B590F82030DBB2012B05D0436A43F494
:1036000000234362012038BD0446022380F82030A5
:103610000268136823F001031360FFF78FFE05466D
:1036200023685B6813F0010F0DD0FFF787FE401B86
:103630000A28F5D9636A43F400336362052384F8EA
:103640002030012038BD0020606238BD70B490F891
:1036500020400568AD68013CE4B2012C06D9436AFC
:1036600043F480234362012070BC704715F0E05F93
:103670005BD0C5F30165022D3ED80124AC401C602F
:103680008B68002B3ED104680E68CB6843EA46562F
:1036900005F118031B01E65003680C6905F11806D3
:1036A00003EB06135C600B7D012B36D00468D179E7
:1036B00093791B0443EA0163517943EA01231179A9
:1036C0000B432E013444C4F88C310168D4789378CC
:1036D0001B0443EA0463547843EA04231278134337
:1036E0003144C1F88831026818352D01535943F02F
:1036F000010353510020B7E7436A43F400034362D8
:103700000120B1E704684E6843EAC603CE6833433C
:1037100005F118063601A351BEE7036803EB061353
:10372000596841F480715960C0E7436A43F400135B
:103730004362012098E730B490F82040013CE4B2A5
:10374000012C06D9436A43F480234362012030BC34
:10375000704700296FD10468E46814F0030F64D047
:10376000056801F11B0424012C5904F00404946041
:10377000002C6BD1056801F11B0424012C59640D48
:103780001460056801F11B0424012D5905F00205A0
:10379000D560056825446D6805F00F05156105685D
:1037A00025446D68C5F30725956105682C44646858
:1037B000240C546104680A011444D4F8B8411C7004
:1037C00004681444D4F8B841C4F307245C70046856
:1037D0001444D4F8B841C4F307449C7004681444FA
:1037E000D4F8B841240EDC7004681444D4F8BC4109
:1037F0001C7104681444D4F8BC41C4F307245C7100
:1038000004681444D4F8BC41C4F307449C710468B0
:103810002244D2F8BC21120EDA71F9B90268D368D9
:1038200043F02003D360002091E7436A43F4001380
:10383000436201208BE70468246914F0030F8FD1E1
:10384000436A43F400134362012080E7056801F1F5
:103850001B0424012C59E408546092E702681369A0
:1038600043F020031361002071E790F82030013B02
:10387000DBB2012B05D9436A43F480234362012064
:1038800070470268536919435161002070477047BF
:103890007047704770477047704770477047704770
:1038A000704770472DE9F84F054603685C695F680B
:1038B0009E68D3F80C90D3F81080D3F818A014F0B9
:1038C000010F5AD016F0010F17D001229A6016F09E
:1038D000020F08D116F0040F30D116F0080F07D0F0
:1038E0004FF4805B0BE0FFF7D2FF4FF0000B06E0D8
:1038F000FFF7D0FF4FF0000B01E04FF0000B16F484
:10390000807F0BD02B684FF480729A6016F4007F92
:1039100017D116F4806F18D04BF4005B16F4803F7B
:103920002DD02B684FF480329A6016F4003F16D1E8
:1039300016F4802F17D04BF4004B20E04FF4006BAF
:10394000DDE72846FFF7A4FFE8E716F4006F02D092
:103950004BF4804BE2E72846FFF79DFFDEE7284661
:10396000FFF797FF0BE016F4002F02D04BF4803BDB
:1039700005E02846FFF790FF01E04FF0000B14F040
:10398000080F07D019F0100F04D04BF4007B2B6800
:103990001022DA6014F0040F02D019F0080F60D181
:1039A00014F0020F04D02B68DB6813F0030F5FD113
:1039B00014F0400F07D018F0100F04D04BF4806BB8
:1039C0002B6810221A6114F0200F02D018F0080F93
:1039D00052D114F0100F04D02B681B6913F0030FA1
:1039E00051D114F4003F02D017F0100F4FD114F44E
:1039F000803F02D017F0080F50D114F4004F67D069
:103A000017F0040F61D014F4807F04D01AF0010F76
:103A100001D04BF0010B14F4007F04D01AF0020F18
:103A200001D04BF0020B14F4806F04D01AF0040F95
:103A300001D04BF0040B14F4006F46D01AF0700A5A
:103A400043D0BAF1300F48D02FD9BAF1500F47D038
:103A5000BAF1600F47D0BAF1400F31D14BF0400BB3
:103A60002EE02B680822DA602846FFF716FF97E75A
:103A70002846FEF7D9FC9BE72B6808221A612846E6
:103A8000FFF70CFFA5E72846FEF71EFDA9E72B6808
:103A900010225A602846FFF702FFA8E72B68082289
:103AA0005A602846FFF7FCFEA7E7BAF1100F05D0D1
:103AB000BAF1200F04D14BF0100B01E04BF0080BD2
:103AC0002A68936923F0700393612B6804225A607B
:103AD000BBF1000F0AD1BDE8F88F4BF0200BEFE7E8
:103AE0004BF0800BECE74BF4807BE9E76B6A4BEA29
:103AF00003036B622846FFF7D4FEECE7074AD3685E
:103B000023F4E0631B041B0C000200F4E060184384
:103B100040F0BF6040F40030D060704700ED00E03E
:103B200030B4164BDB68C3F30223C3F10704042C43
:103B300028BF04241D1D062D17D9033B012505FAB6
:103B400004F4013C2140994005FA03F3013B134082
:103B5000194300280BDB0901C9B200F1604000F5F0
:103B6000614080F8001330BC70470023E6E700F0A6
:103B70000F000901C9B2024B1954F4E700ED00E04F
:103B800014ED00E0002808DB420900F01F000123CB
:103B900003FA00F0014B43F82200704700E100E017
:103BA00030B405682C6824F480242C6004686360B9
:103BB0008368402B05D0036899600368DA6030BCE5
:103BC000704703689A600368D960F8E70268D3B267
:103BD000103B0B49A1FB03131B090A49C95CC165D2
:103BE000032B06D822F47F7222F003028265806DD7
:103BF000704722F47F7222F0030204328265F6E7F6
:103C0000ABAAAAAA846E0008836A826992B9012BC2
:103C10000AD01BB1022B01D000207047C36A13F0F9
:103C2000807F2CD100207047C36AB3F1C07F28D0B9
:103C300000207047B2F5005F05D0022B29D9032B75
:103C400015D000207047032B03D8DFE803F01C04D5
:103C50001C0A00207047C36A13F0807F15D1002032
:103C60007047C36AB3F1C07F11D000207047C36AA8
:103C700013F0807F01D001207047002070470120A1
:103C800070470120704701207047012070470120D4
:103C9000704701207047000070B50446FFF74EFBE7
:103CA000002C5DD00546002384F83430022384F8CC
:103CB00035302268136823F00103136023681A6803
:103CC00012F0010F0AD0FFF739FB401B0528F5D988
:103CD00020236365032084F8350070BD1A682149EC
:103CE00011406268A0680243E06802432069024311
:103CF00060690243A0690243E0690243206A02430B
:103D00000A43616A042916D01A602668756925F08D
:103D10000705636A1D43042B12D075612046FFF727
:103D200055FFE26D3F2393408360002060650123CF
:103D300084F8353070BDE16A206B01430A43E3E744
:103D4000A36A1D43E36A002BE7D02046FFF75CFF20
:103D50000028E2D040236365012084F8350070BD5F
:103D6000012070BD3F8010E000282ED038B50446F9
:103D700090F83530DBB2022B01D1022038BD026849
:103D8000136823F001031360036800251D600368B6
:103D90005D6003689D600368DD6003681D61036802
:103DA00021225A61FFF712FFE56325646564A5646B
:103DB000E5642565E26D3F2393408360656584F883
:103DC000355084F83450284638BD0120704738B546
:103DD00090F83440012C1CD0012480F8344090F835
:103DE0003540E4B2012C04D0002380F834300220A6
:103DF00038BD0546022085F8350000246C6528464C
:103E0000FFF7CEFE2A68136843F0010313602046D3
:103E100038BD022038BD38B5856D90F83440012C8E
:103E20002CD0012480F8344090F83540E4B2012CC5
:103E300004D0002380F83430022038BD044602202C
:103E400084F83500002060652046FFF7A9FEE26D8A
:103E50003F239340AB602268136843F0160313605E
:103E6000236C23B12268136843F0080313602268AF
:103E7000136843F001031360002038BD022038BDF1
:103E8000F0B583B0044600230193724B1D68724B5A
:103E9000A3FB0535AD0A876D3E68C26D08239340CC
:103EA0001E4210D003681A6812F0040F0BD01A6873
:103EB00022F004021A60C26D08239340BB60436D78
:103EC00043F001034365E26D012393401E4209D094
:103ED0002268526912F0800F04D0BB60636D43F01A
:103EE00002036365E26D042393401E4209D02268F9
:103EF000126812F0020F04D0BB60636D43F004033C
:103F00006365E26D102393401E4224D0226812683C
:103F100012F0080F1FD0BB6023681A6812F4802FBC
:103F20000DD01B6813F4002F04D1236C9BB12046E5
:103F3000984710E0A36C73B1204698470BE01A68CD
:103F400012F4807F03D11A6822F008021A60236CF1
:103F50000BB120469847E26D202393401E4255D076
:103F60002268126812F0100F50D0BB6094F8353000
:103F7000DBB2052B0ED023681A6812F4802F33D0E1
:103F80001B6813F4002F2AD1636C002B3ED020460F
:103F900098473BE02268136823F0160313602268F9
:103FA000536923F080035361236CA3B12268136823
:103FB00023F008031360E26D3F239340BB600023AE
:103FC00084F83430012384F83530236D002B3FD042
:103FD000204698473CE0A36C002BE7D1EBE7E36B6E
:103FE000A3B12046984711E01A6812F4807F09D1E6
:103FF0001A6822F010021A60002384F8343001237A
:1040000084F83530E36B0BB120469847636DFBB104
:10401000636D13F0010F17D0052384F83530226843
:10402000136823F001031360019B013301939D4248
:1040300004D323681B6813F0010FF5D1002384F823
:104040003430012384F83530E36C0BB120469847B7
:1040500003B0F0BD30040020B5814E1B00230F2BB0
:1040600000F2DA80F0B583B09EE085684FEA430E37
:10407000032707FA0EF725EA0705CE6806FA0EF6BB
:1040800035438560456825EA02024D68C5F3001591
:104090009D402A434260C6685F000322BA40D24373
:1040A00016408D68BD402E43C6604D68022D00F05D
:1040B0008D80122D00F08A8005682A404D6805F039
:1040C0000305BD402A4302604A6812F0805F68D051
:1040D00000220192514A556C45F480455564526C5A
:1040E00002F480420192019A9A08961C4C4D55F8B0
:1040F000265003F003064FEA860E0F2606FA0EF648
:1041000025EA0605474FB84278D0474EB04277D0EF
:1041100006F58066B04275D006F58066B04273D071
:1041200006F58066B04271D006F58066B0426FD069
:1041300006F58066B0425FD0072606FA0EF63543D4
:104140000232374E46F82250384A1568E24305EAF3
:1041500002064F6817F4803F01D044EA0506334D4C
:104160002E606D6802EA05064F6817F4003F01D023
:1041700044EA05062D4D6E60AD6802EA05064F68FB
:1041800017F4801F01D044EA0506284DAE60ED68A3
:104190002A404E6816F4001F01D044EA0502234C61
:1041A000E26001330F2B35D801229A400C6814408D
:1041B000A242F6D14D686E1E012E7FF656AF112D2C
:1041C0003FF453AF122D7FF466AF4EE74FEAD30CA6
:1041D0000CF1080C50F82C5003F0070E4FEA8E0E2D
:1041E0000F2606FA0EF625EA06050E6906FA0EF601
:1041F000354340F82C505FE706269EE700269CE7F3
:1042000001269AE7022698E7032696E7042694E714
:10421000052692E703B0F0BD704700BF00380240AA
:10422000003801400000024000040240003C014010
:10423000F8B5314B9B6803F00C03042B59D0082BC5
:1042400001D02E48F8BD2C4B5A6802F03F025B6843
:1042500013F4800F2AD0284B5B68C3F388131E46E3
:1042600000275C010025E41A65EB0705A90141EA76
:104270009461A001001B61EB0501CB0043EA507380
:10428000C400A01943EB07014B0243EAD053440298
:10429000204619460023FCF761FD174B5B68C3F30A
:1042A000014301335B00B0FBF3F0F8BD124B5B68D8
:1042B000C3F388131E4600275C010025E41A65EB52
:1042C0000705A90141EA9461A001001B61EB05010A
:1042D000CB0043EA5073C400A01943EB07018B02E3
:1042E00043EA90538402204619460023FCF736FD2A
:1042F000D3E70348F8BD00BF003802400024F400B3
:1043000000127A00002800F09E8070B50446504BE1
:104310001B6803F00F038B4209D2CBB24C4A1370D7
:10432000136803F00F03994201D0012070BD236888
:1043300013F0020F17D013F0040F04D0454A93680E
:1043400043F4E0539360236813F0080F04D0414A0C
:10435000936843F4604393603E4A936823F0F0030C
:10436000A068034393600D46236813F0010F32D019
:104370006368012B21D09A1E012A25D9354A12687B
:1043800012F0020F61D033498A6822F0030213430E
:104390008B60FEF7D3FF06462E4B9B6803F00C03A1
:1043A0006268B3EB820F16D0FEF7C8FF801B41F2A4
:1043B00088339842F0D9032070BD264A126812F45F
:1043C000003FE0D1012070BD224A126812F0007F48
:1043D000D9D1012070BD1E4B1B6803F00F039D4215
:1043E00009D2EAB21A4B1A701B6803F00F039D4200
:1043F00001D0012070BD236813F0040F06D0154AC8
:10440000936823F4E053E1680B439360236813F04F
:10441000080F07D00F4A936823F46043216943EAE9
:10442000C1039360FFF704FF0A4B9B68C3F30313B8
:10443000094AD35CD840094B1860094B1868FEF74D
:10444000DFFB002070BD01207047012070BD00BF60
:10445000003C0240003802406C6D0008300400202F
:1044600040040020014B1868704700BF3004002052
:1044700008B5FFF7F7FF044B9B68C3F38223034A99
:10448000D35CD84008BD00BF003802407C6D0008F6
:104490000F2303600B4B9A6802F0030242609A6894
:1044A00002F0F00282609A6802F4E052C2609B68F7
:1044B000DB0803F4E0530361034B1B6803F00F03B5
:1044C0000B60704700380240003C024070B582B07B
:1044D0000446036813F0010F3BD0A74B9B6803F021
:1044E0000C03042B2CD0A44B9B6803F00C03082B6B
:1044F00021D06368B3F5803F4FD0B3F5A02F52D0E1
:104500009D4B1A6822F480321A601A6822F48022C5
:104510001A606368002B50D0FEF710FF0546964BDB
:104520001B6813F4003F14D1FEF708FF401B6428FA
:10453000F5D903208AE1904B5B6813F4800FD8D043
:104540008D4B1B6813F4003F03D06368002B00F011
:104550007A81236813F0020F55D0874B9B6813F0C4
:104560000C0F3ED0844B9B6803F00C03082B33D018
:10457000E368002B68D00122804B1A60FEF7DEFE54
:1045800005467D4B1B6813F0020F54D1FEF7D6FE93
:10459000401B0228F5D9032058E1774A136843F4F9
:1045A00080331360B5E7744B1A6842F480221A60B6
:1045B0001A6842F480321A60ABE7FEF7BFFE054688
:1045C0006D4B1B6813F4003FC3D0FEF7B7FE401BD2
:1045D0006428F5D9032039E1674B5B6813F4800F39
:1045E000C6D1654B1B6813F0020F04D0E368012BA2
:1045F00001D001202AE1604A136823F0F803216901
:1046000043EAC1031360236813F0080F40D06369C5
:1046100063B301225A4B1A60FEF790FE0546564BD3
:104620005B6F13F0020F33D1FEF788FE401B0228A8
:10463000F5D903200AE1504A136823F0F8032169F1
:1046400043EAC1031360DEE700224C4B1A60FEF719
:1046500075FE0546484B1B6813F0020FD3D0FEF7DA
:104660006DFE401B0228F5D90320EFE00022444BE9
:104670001A60FEF763FE05463F4B5B6F13F0020FB7
:1046800006D0FEF75BFE401B0228F5D90320DDE0D3
:10469000236813F0040F78D0374B1B6C13F0805F46
:1046A00033D100230193344B1A6C42F080521A64C8
:1046B0001B6C03F080530193019B0125314B1B6858
:1046C00013F4807F23D0A368012B34D0052B38D07E
:1046D000294B1A6F22F001021A671A6F22F00402A6
:1046E0001A67A368002B36D0FEF728FE0646224B39
:1046F0001B6F13F0020F47D1FEF720FE801B41F223
:1047000088339842F3D90320A0E00025D6E71D4A5C
:10471000136843F480731360FEF710FE0646194BCE
:104720001B6813F4807FCED1FEF708FE801B0228A1
:10473000F5D903208AE0104A136F43F00103136791
:10474000CFE70D4B1A6F42F004021A671A6F42F05E
:1047500001021A67C5E7FEF7F1FD0646064B1B6F1F
:1047600013F0020F10D0FEF7E9FD801B41F28833F1
:104770009842F3D9032069E0003802400000474224
:10478000800E474200700040E5B9A369002B5CD061
:10479000304A926802F00C02082A59D0022B17D036
:1047A00000222D4B1A60FEF7C9FD0446294B1B68F9
:1047B00013F0007F45D0FEF7C1FD001B0228F5D99C
:1047C000032043E0234A136C23F080531364DCE797
:1047D0000022214B1A60FEF7B1FD05461D4B1B68F8
:1047E00013F0007F06D0FEF7A9FD401B0228F5D983
:1047F00003202BE0E369226A1343626A43EA8213CF
:10480000A26A5208013A43EA0243E26A43EA0263B7
:10481000226B43EA02730F4A536001220E4B1A6067
:10482000FEF78CFD04460B4B1B6813F0007F06D18E
:10483000FEF784FD001B0228F5D9032006E00020C6
:1048400004E0002002E0012000E0002002B070BD82
:104850000120FBE7003802406000474230B4036AA1
:1048600023F001030362036A4468826922F0730241
:104870000D682A4323F002038D682B43114DA84293
:1048800011D005F58065A8420DD00E4DA84211D07B
:1048900005F58065A8420DD0446082614A68426394
:1048A000036230BC704723F00803CD682B4323F02C
:1048B0000403EAE724F440744D692C438D692C43CA
:1048C000EAE700BF0000014030B4036A23F48073BC
:1048D0000362036A4468C26922F073020D682A43C6
:1048E00023F400738D6843EA0523134DA84211D0C9
:1048F00005F58065A8420DD00F4DA84212D005F5F0
:104900008065A8420ED04460C2614A68C2630362F7
:1049100030BC704723F40063CD6843EA052323F4D9
:104920008063E9E724F440544D6944EA05148D6935
:1049300044EA0514E7E700BF0000014030B4036A11
:1049400023F480530362036A4468C26922F4E64296
:104950000D6842EA052223F400538D6843EA0533CB
:10496000094DA8420AD005F58065A84206D04460EA
:10497000C2614A680264036230BC704724F4804418
:104980004D6944EA8514F2E70000014070470223B4
:1049900080F83D300268936803F00703062B03D0CC
:1049A000136843F001031360012380F83D300020B9
:1049B00070470268D36843F00103D36002689368CC
:1049C00003F00703062B03D0136843F001031360C1
:1049D000002070477047704770477047704710B5A8
:1049E000044603681A6912F0020F11D0DA6812F057
:1049F000020F0DD06FF002021A61012303770368E2
:104A00009B6913F0030F70D0FFF7E6FF00232377B5
:104A100023681A6912F0040F12D0DA6812F0040F3A
:104A20000ED06FF004021A610223237723689B697A
:104A300013F4407F5FD02046FFF7CEFF002323779B
:104A400023681A6912F0080F12D0DA6812F0080F02
:104A50000ED06FF008021A61042323772368DB6904
:104A600013F0030F4ED02046FFF7B6FF0023237745
:104A700023681A6912F0100F12D0DA6812F0100FC2
:104A80000ED06FF010021A61082323772368DB69C8
:104A900013F4407F3DD02046FFF79EFF002323778D
:104AA00023681A6912F0010F03D0DA6812F0010FBF
:104AB00036D123681A6912F0800F03D0DA6812F039
:104AC000800F34D123681A6912F0400F03D0DA68DE
:104AD00012F0400F32D123681A6912F0200F03D070
:104AE000DA6812F0200F30D110BDFFF774FF2046B6
:104AF000FFF773FF8AE72046FFF76DFF2046FFF7B9
:104B00006CFF9BE72046FFF766FF2046FFF765FF37
:104B1000ACE72046FFF75FFF2046FFF75EFFBDE7EB
:104B20006FF001021A612046FDF77EFEC1E76FF0CB
:104B300080021A61204600F088F9C3E76FF0400256
:104B40001A612046FFF74AFFC5E76FF020021A619D
:104B5000204600F079F9C7E70368314A904212D045
:104B6000B0F1804F0FD0A2F57C4290420BD002F5FD
:104B70008062904207D002F58062904203D002F535
:104B80007842904203D123F070034A681343244AC9
:104B900090422AD0B0F1804F27D0A2F57C429042BB
:104BA00023D002F5806290421FD002F580629042CD
:104BB0001BD002F57842904217D002F57052904215
:104BC00013D002F5806290420FD002F580629042CD
:104BD0000BD0A2F59832904207D002F58062904245
:104BE00003D002F58062904203D123F44073CA6877
:104BF000134323F080034A69134303608B68C36245
:104C00000B688362064B984206D003F58063984296
:104C100002D00123436170470B690363F9E700BFCA
:104C200000000140A8B110B5044690F83D305BB1DA
:104C3000022384F83D30211D2068FFF78DFF0123FA
:104C400084F83D30002010BD80F83C30FFF79EFE18
:104C5000EEE701207047A8B110B5044690F83D304A
:104C60005BB1022384F83D30211D2068FFF774FFFB
:104C7000012384F83D30002010BD80F83C30FFF760
:104C8000A9FEEEE70120704730B4036A23F0100359
:104C90000362036A4468826922F4E6420D6842EACC
:104CA000052223F020038D6843EA0513124DA84224
:104CB00011D005F58065A8420DD00F4DA84212D045
:104CC00005F58065A8420ED0446082614A6882631F
:104CD000036230BC704723F08003CD6843EA0513BC
:104CE00023F04003E9E724F440644D6944EA850475
:104CF0008D6944EA8504E7E70000014038B590F883
:104D00003C30012B66D00D460446012380F83C3030
:104D1000022380F83D300C2A1AD8DFE802F0071988
:104D20001919201919193419191947000068FFF7C2
:104D300095FD2268936943F00803936122689369A3
:104D400023F0040393612268936929690B439361FB
:104D5000012384F83D30002084F83C0038BD006811
:104D6000FFF792FF2268936943F40063936122681E
:104D7000936923F48063936122689369296943EA04
:104D800001239361E4E70068FFF79EFD2268D36981
:104D900043F00803D3612268D36923F00403D3618D
:104DA0002268D36929690B43D361D1E70068FFF713
:104DB000C5FD2268D36943F40063D3612268D369D7
:104DC00023F48063D3612268D369296943EA01230C
:104DD000D361BDE7022038BD10B401F01F010123EB
:104DE00003FA01F4036A23EA04030362036A8A40B4
:104DF000134303625DF8044B7047000010B504468E
:104E000001220068FFF7E8FF23680E4A934217D09B
:104E100002F58062934211D000221AB15A6C42F41A
:104E200000425A642268936803F00703062B03D0FC
:104E3000136843F001031360002010BD0122ECE76A
:104E40000122EAE70000014070477047EFF3058355
:104E50008BB9EFF3108313B9EFF311831BB10A4B36
:104E60001B68022B0AD0084B1B6853B90122064B62
:104E70001A60002070476FF0050070476FF0050062
:104E800070474FF0FF307047C006002008B5EFF3C1
:104E90000583A3B9EFF3108313B9EFF311831BB1AB
:104EA0000B4B1B68022B0DD0094B1B68012B0CD13F
:104EB0000222074B1A6001F023F9002008BD6FF0B1
:104EC000050008BD6FF0050008BD4FF0FF3008BDBC
:104ED000C0060020F0B587B000240594EFF30584E8
:104EE00044BBEFF3108313B9EFF311831BB12D4BC8
:104EF0001B68022B1ED0E8B14AB31668946904B946
:104F00001824631E372B49D8536813F0010F47D17B
:104F1000536993B14FEA930E95682DB1D7685B2F13
:104F200002D9176907B1C3B955B14FF0FF35012D4B
:104F30001AD02DB3059807B0F0BD4FF0800EEBE707
:104F4000D36863B913696BB14FF0FF35EFE7002504
:104F500018244FF0800E2E46E9E70125E7E74FF0D1
:104F6000FF35E4E70025E2E71369926802920193B6
:104F700000940B467246314601F054F80590D9E78B
:104F800005AA019200940B461FFA8EF2314601F0F9
:104F900083F80128CED000230593CBE70020CAE791
:104FA0000020C8E7C006002008B5EFF3058383B9E9
:104FB000EFF3108313B9EFF311831BB1084B1B6898
:104FC000022B09D008B9002008BD01F0FFF900202C
:104FD00008BD6FF0050008BD6FF0050008BD00BFFB
:104FE000C0060020034B0360034B0B60802313605B
:104FF000704700BF6406002064040020034B036078
:10500000034B0B604FF4807313607047C40A002099
:10501000C406002000F1080343604FF0FF328260B5
:10502000C36003610023036070470023036170477E
:1050300043684B609A688A609A6851609960086119
:10504000036801330360704730B40D68B5F1FF3F6A
:1050500002D000F1080202E0026904E01A46536837
:105060001C68A542FAD253684B6099608A6051600F
:10507000086103680133036030BC7047036942680C
:10508000816891608268416851605A68904206D098
:10509000002202611A68013A1A6018687047826833
:1050A0005A60F5E782B0002301930D4B1B68B3F102
:1050B000FF3F08D04FF0500383F31188BFF36F8F89
:1050C000BFF34F8FFEE74FF0500383F31188BFF318
:1050D0006F8FBFF34F8F019B002BFCD002B0704746
:1050E0004404002008480068006880F308884FF0F6
:1050F000000080F3148862B661B6BFF34F8FBFF330
:105100006F8F00DF00BF000008ED00E0DFF80C004B
:10511000016841F4700101607047000088ED00E013
:105120004FF0807340F8043C21F0010140F8081C66
:10513000054B40F80C3C40F8202C6FF0020340F87F
:10514000243C4438704700BFA55000080000000010
:10515000074B19680868B0E8F04F80F30988BFF37F
:105160006F8F4FF0000080F311887047AFF300801D
:10517000404700204FF0500383F31188BFF36F8F37
:10518000BFF34F8F0A4A136801331360012B0DD10F
:10519000084B1B6813F0FF0F08D04FF0500383F348
:1051A0001188BFF36F8FBFF34F8FFEE7704700BFCB
:1051B0004404002004ED00E0094B1B6843B94FF0A4
:1051C000500383F31188BFF36F8FBFF34F8FFEE758
:1051D000013B034A13600BB983F31188704700BF8A
:1051E0004404002000000000000000000000000057
:1051F000EFF30980BFF36F8F154B1A681EF0100F85
:1052000008BF20ED108A20E9F04F10602DE9090059
:105210004FF0500080F31188BFF34F8FBFF36F8FB3
:1052200001F0FCF84FF0000080F3118809BC196808
:105230000868B0E8F04F1EF0100F08BFB0EC108AFD
:1052400080F30988BFF36F8F704700BFAFF3008012
:105250004047002008B54FF0500383F31188BFF397
:105260006F8FBFF34F8F00F0A7FF18B14FF0805240
:10527000024B1A60002383F3118808BD04ED00E09F
:10528000084A0023136008490B60084B1B68084953
:10529000A1FB03139B09013B06490B600723136025
:1052A000704700BF10E000E018E000E0300400208C
:1052B000D34D621014E000E03A4B1A683A4B9A4220
:1052C00008D14FF0500383F31188BFF36F8FBFF302
:1052D0004F8FFEE7334B1A68344B9A4208D14FF098
:1052E000500383F31188BFF36F8FBFF34F8FFEE737
:1052F00010B582B02E4B1A78D2B20192FF221A70EA
:105300001B78DBB28DF803309DF8033003F05003B7
:10531000284A13700722284B1A6009E0264A1368AE
:10532000013B13609DF803305B00DBB28DF8033066
:105330009DF8033013F0800FF0D11F4B1B68032B37
:1053400008D04FF0500383F31188BFF36F8FBFF382
:105350004F8FFEE71B0203F4E063174A1360019BC3
:10536000DBB2134A1370154B1A6842F470021A60CC
:105370001A6842F070421A60FFF782FF0024104B57
:105380001C60FFF7C3FE0F4A136843F040431360ED
:10539000FFF7A8FE01F042F8FFF784FE204602B0B6
:1053A00010BD00BF00ED00E071C20F4170C20F419F
:1053B00000E400E0200B0020240B002020ED00E0A2
:1053C0004404002034EF00E0EFF305830F2B0FD9E6
:1053D000104A9B5CDBB2104A1278934208D24FF01D
:1053E000500383F31188BFF36F8FBFF34F8FFEE736
:1053F0000A4B1B6803F4E063094A1268934208D918
:105400004FF0500383F31188BFF36F8FBFF34F8FBB
:10541000FEE77047F0E300E0200B00200CED00E019
:10542000240B0020124A12F0070F1ED0D11D21F0CC
:105430000701C1F5705313440A460E48026000216B
:1054400041601344083B23F007030B480360596095
:105450001960991A51601360084B1960084B196064
:105460004FF00042074B1A6070474FF47053E4E767
:105470002C0B002038470020280B00203447002048
:10548000304700202C47002010B4134B1A6882428A
:105490001BD359685C18A04203D14068014459608D
:1054A000184641684418A24213D10C4C2468A24209
:1054B0000DD05268114441601A6812680260984227
:1054C00000D018605DF8044B70471346DEE70460B7
:1054D000F5E70260F3E700BF38470020280B002003
:1054E00070B5044600F05AFE3A4B1B68BBB13A4B0C
:1054F0001B681C4263D1ACB1083414F0070F11D003
:1055000024F00704083404F007035BB14FF05003A4
:1055100083F31188BFF36F8FBFF34F8FFEE7FFF761
:1055200081FFE4E7002C4CD02C4B1B689C424AD8EE
:105530002B4B1D6801E02B4615466A68944202D940
:105540002A68002AF7D1234A126895423DD01E6886
:1055500008362A681A606B681B1B102B10D9281993
:1055600010F0070F08D04FF0500383F31188BFF3FA
:105570006F8FBFF34F8FFEE743606C60FFF784FFD0
:105580006A6816490B689B1A0B60164909688B42BA
:1055900001D214490B60104B1B6813436B6000234E
:1055A0002B6000F095FE16F0070F10D04FF050035F
:1055B00083F31188BFF36F8FBFF34F8FFEE7002691
:1055C000EFE70026EDE70026EBE70026E9E73046A7
:1055D00070BD00BF280B00202C4700203047002062
:1055E000384700203447002080B338B50446A0F186
:1055F000080550F8042C164909680A4208D14FF0F2
:10560000500383F31188BFF36F8FBFF34F8FFEE713
:1056100050F8080C40B14FF0500383F31188BFF3EA
:105620006F8FBFF34F8FFEE722EA010244F8042C8C
:1056300000F0B4FD54F8041C064A13680B441360D0
:105640002846FFF721FF00F043FE38BD704700BF3A
:105650002C4700203047002010B50446FFF78AFD94
:10566000A26BE36B9A4204D00024FFF7A5FD20460D
:1056700010BD0124F9E710B50446FFF77BFDA36BCD
:1056800023B10024FFF798FD204610BD0124F9E75F
:1056900070B504461646856B026C4AB9036853BB65
:1056A000806800F0E5FF0023A3600135A56370BDAD
:1056B0006EB94068FAF72EFE226C6368134463608B
:1056C000A268934219D3236863600020EDE7C068A5
:1056D000FAF720FE236C5B42E2681A44E26021681C
:1056E0008A4202D2A2681344E360022E07D145B178
:1056F000013D0020D9E70020D7E70020D5E70020B2
:10570000D3E70020D1E7026C72B110B50346C4683C
:105710001444C4608068844201D31868D860084685
:10572000D968FAF7F7FD10BD704738B50546FFF7A1
:1057300021FD95F8454064B201E0013C64B2002CC3
:105740000ADD6B6A43B105F1240000F0E9FE002890
:10575000F3D000F077FFF0E7FF2385F84530FFF73F
:105760002BFDFFF707FD95F8444064B201E0013CD2
:1057700064B2002C0ADD2B6943B105F1100000F082
:10578000CFFE0028F3D000F05DFFF0E7FF2385F89F
:105790004430FFF711FD38BD38B530B304460D462F
:1057A000FFF7E8FC2168E26B236C03FB0210A060AA
:1057B0000020A0636160013A02FB0313E360FF2352
:1057C00084F8443084F84530C5B92369F3B104F155
:1057D000100000F0A5FEC8B14FF080520D4B1A60CA
:1057E000BFF34F8FBFF36F8F10E04FF0500383F381
:1057F0001188BFF36F8FBFF34F8FFEE704F11000E6
:10580000FFF708FC04F12400FFF704FCFFF7D4FCC9
:10581000012038BD04ED00E038B51D46049C0B4660
:1058200049B12260E063236401212046FFF7B4FF01
:1058300084F84C5038BD2460F4E740B94FF0500371
:1058400083F31188BFF36F8FBFF34F8FFEE710B55F
:1058500084B0044663B1A2B1A9B10120A8B94FF048
:10586000500383F31188BFF36F8FBFF34F8FFEE7B1
:105870004FF0500383F31188BFF36F8FBFF34F8F47
:10588000FEE70120EAE70020E8E70AB901B10020BD
:1058900040B94FF0500383F31188BFF36F8FBFF30C
:1058A0004F8FFEE7502003900398502808D04FF008
:1058B000500383F31188BFF36F8FBFF34F8FFEE761
:1058C00020461C46039B012384F8463000949DF833
:1058D0001830FFF7A1FF204604B010BDF0B585B029
:1058E000019260B1044699B10125BDB94FF0500352
:1058F00083F31188BFF36F8FBFF34F8FFEE74FF035
:10590000500383F31188BFF36F8FBFF34F8FFEE710
:10591000026C0AB90125E8E70025E6E7022B09D069
:105920006DB94FF0500383F31188BFF36F8FBFF34E
:105930004F8FFEE7E26B012AF2D00025F0E71E460A
:105940000F4600F085FE10B9019B03B1002545B953
:105950004FF0500383F31188BFF36F8FBFF34F8F66
:10596000FEE700252CE0324639462046FFF790FE40
:10597000636A8BB104F1240000F0D2FD38B14FF01E
:105980008052374B1A60BFF34F8FBFF36F8FFFF713
:1059900013FC012005B0F0BD0028F8D04FF0805274
:1059A0002F4B1A60BFF34F8FBFF36F8FEFE7FFF7F7
:1059B00003FC0020EEE72046FFF7B7FE00F088FC6E
:1059C000FFF7D8FBA26BE36B9A42CCD3022ECAD06E
:1059D000019B002BEBD01DB902A800F0E7FD0125CB
:1059E000FFF7EAFB00F0DAFBFFF7C4FB94F8443062
:1059F0005BB2B3F1FF3F02D1002384F8443094F846
:105A000045305BB2B3F1FF3F02D1002384F845304B
:105A1000FFF7D2FB01A902A800F0D4FDC8B92046C7
:105A2000FFF71AFE0028C6D0019904F1100000F01B
:105A300043FD2046FFF779FE00F04AFC0028BFD165
:105A40004FF08052064B1A60BFF34F8FBFF36F8F3A
:105A5000B6E72046FFF769FE00F03AFC002099E720
:105A600004ED00E02DE9F84360B1044699B101204E
:105A7000B8B94FF0500383F31188BFF36F8FBFF3B2
:105A80004F8FFEE74FF0500383F31188BFF36F8F02
:105A9000BFF34F8FFEE7006C08B90120E8E7002054
:105AA000E6E7022B09D068B94FF0500383F3118861
:105AB000BFF36F8FBFF34F8FFEE7E56B012DF2D081
:105AC0000020F0E71F4690468946FFF77DFCEFF384
:105AD00011864FF0500383F31188BFF36F8FBFF32C
