:020000040800F2
:1000000000000520256F00086D2D00086F2D0008E9
:10001000712D0008732D0008752D000800000000E8
:100020000000000000000000000000001155000862
:10003000772D000800000000B15500081556000893
:10004000756F0008756F0008756F0008756F000800
:10005000756F0008756F0008756F0008756F0008F0
:10006000756F0008756F0008756F0008756F0008E0
:10007000792D0008756F0008756F0008756F00080E
:100080007B2D00087D2D0008756F0008756F000836
:10009000812D0008756F0008756F0008756F0008E6
:1000A000756F0008C9320008756F0008756F000889
:1000B000912D0008756F0008756F0008756F0008B6
:1000C000756F0008756F0008756F0008756F000880
:1000D000756F0008756F0008756F0008756F000870
:1000E000756F0008756F0008756F0008756F000860
:1000F000756F0008756F0008756F0008756F000850
:10010000756F0008756F0008756F0008756F00083F
:10011000756F0008756F0008756F0008952D000851
:10012000756F0008756F0008A9320008756F000828
:10013000756F0008756F0008756F0008756F00080F
:10014000756F0008A52D0008756F0008756F000811
:10015000756F0008756F0008756F0008756F0008EF
:10016000756F0008756F0008756F0008B52D0008E1
:10017000756F0008756F00080000000000000000A7
:10018000756F0008756F0008756F0008756F0008BF
:10019000756F0008756F000800000000756F00089B
:1001A000756F0008756F0008000000000000000077
:1001B000756F00080000000000000000756F000867
:1001C000756F0008756F0008756F0008756F00087F
:0801D000756F0008756F00084F
:1001E000044B05481B1A062B02D9044B03B11847D0
:1001F000704700BF4B0400204804002000000000AE
:1002000005490648091A891001EBD171491002D03D
:10021000034B03B1184770474804002048040020EE
:100220000000000010B5064C237843B9FFF7D8FF53
:10023000044B13B10448AFF300800123237010BDB9
:1002400048040020000000008C6F000808B5084B2F
:100250001BB108490848AFF300800848036813B988
:10026000BDE80840CCE7064B002BF9D09847F7E7EC
:10027000000000004C0400208C6F0008480400209F
:1002800000000000002301461A46184600F054B949
:1002900038B50A4C0A4D641BA4100AD004F18043FF
:1002A000013B05EB8305013C55F804399847002CC8
:1002B000F9D1BDE8384006F06FBE00BF807200087B
:1002C0007C72000870B50F4E0F4D761BB61018BF2C
:1002D000002405D0013455F8043B9847A642F9D1D3
:1002E0000A4E0B4D761B06F051FEB61018BF0024C7
:1002F00006D0013455F8043B9847A642F9D170BDA9
:1003000070BD00BF74720008747200087C7200082F
:1003100074720008844641EA000313F003036DD1B0
:10032000403A41D351F8043B40F8043B51F8043BB8
:1003300040F8043B51F8043B40F8043B51F8043BBF
:1003400040F8043B51F8043B40F8043B51F8043BAF
:1003500040F8043B51F8043B40F8043B51F8043B9F
:1003600040F8043B51F8043B40F8043B51F8043B8F
:1003700040F8043B51F8043B40F8043B51F8043B7F
:1003800040F8043B51F8043B40F8043B51F8043B6F
:1003900040F8043B51F8043B40F8043B51F8043B5F
:1003A00040F8043B403ABDD2303211D351F8043BFF
:1003B00040F8043B51F8043B40F8043B51F8043B3F
:1003C00040F8043B51F8043B40F8043B103AEDD2AE
:1003D0000C3205D351F8043B40F8043B043AF9D2FF
:1003E000043208D0D2071CBF11F8013B00F8013BD2
:1003F00001D30B8803806046704700BF082A13D3DF
:100400008B078DD010F003038AD0C3F10403D21AF6
:10041000DB071CBF11F8013B00F8013B80D331F82A
:10042000023B20F8023B7BE7043AD9D3013A11F8AA
:10043000013B00F8013BF9D20B7803704B78437015
:100440008B7883706046704770B4860746D0541E20
:10045000002A41D0CAB2034602E014F1FF343BD374
:1004600003F8012B9D07F8D1032C2ED9CDB245EA14
:1004700005250F2C45EA054519D903F1100226463A
:10048000103E0F2E42F8105C42F80C5C42F8085CFB
:1004900042F8045C02F11002F2D8A4F1100222F03A
:1004A0000F0204F00F041032032C13440DD91E4622
:1004B0002246043A032A46F8045BFAD8221F22F0A7
:1004C00003020432134404F003042CB1C9B21C44E7
:1004D00003F8011B9C42FBD170BC704714460346D5
:1004E000C2E700BF034B1B680022C3F8A800C3F893
:1004F000AC2070470000002010B40C4B0C48196869
:100500000C4CD1F8A820D1F8AC3000FB02F004FB71
:100510000300A2FB04230344013243F10003C1E9B9
:100520002A2323F000405DF8044B704700000020B0
:100530002DF451582D7F954C2DE9F047254C256819
:10054000D5F848410646884692469946C4B3606845
:100550001F2817DC431C76B104EB80050122C5F887
:1005600088A0D4F8881182401143022EC4F8881163
:10057000C5F808911ED00230636044F82080002046
:10058000BDE8F087144B03B34FF4C870AFF300809D
:100590000446D0B1D5F84831002780E88800C5F876
:1005A000484138460123C4F88871C4F88C71002E84
:1005B000E1D0D1E7D4F88C110A43C4F88C21DAE7F2
:1005C00005F5A674C5F84841C1E74FF0FF30BDE816
:1005D000F08700BFA46F00080000000081F0004118
:1005E00002E000BF83F0004330B54FEA41044FEA18
:1005F000430594EA050F08BF90EA020F1FBF54EAB3
:10060000000C55EA020C7FEA645C7FEA655C00F04E
:10061000E2804FEA5454D4EB5555B8BF6D420CDD1F
:100620002C4480EA020281EA030382EA000083EAA2
:10063000010180EA020281EA0303362D88BF30BD42
:1006400011F0004F4FEA01314FF4801C4CEA113198
:1006500002D0404261EB410113F0004F4FEA0333F7
:100660004CEA133302D0524263EB430394EA050F82
:1006700000F0A780A4F10104D5F1200E0DDB02FAF1
:100680000EFC22FA05F2801841F1000103FA0EF285
:10069000801843FA05F359410EE0A5F120050EF14B
:1006A000200E012A03FA0EFC28BF4CF0020C43FA7C
:1006B00005F3C01851EBE37101F0004507D54FF089
:1006C000000EDCF1000C7EEB00006EEB0101B1F5D9
:1006D000801F1BD3B1F5001F0CD349085FEA30001F
:1006E0004FEA3C0C04F101044FEA445212F5800F2A
:1006F00080F09A80BCF1004F08BF5FEA500C50F1C7
:10070000000041EB045141EA050130BD5FEA4C0CA9
:10071000404141EB010111F4801FA4F10104E9D132
:1007200091F0000F04BF01460020B1FA81F308BF29
:100730002033A3F10B03B3F120020CDA0C3208DDF5
:1007400002F1140CC2F10C0201FA0CF021FA02F1D0
:100750000CE002F11402D8BFC2F1200C01FA02F140
:1007600020FA0CFCDCBF41EA0C019040E41AA2BF65
:1007700001EB0451294330BD6FEA04041F3C1CDA2D
:100780000C340EDC04F11404C4F1200220FA04F04D
:1007900001FA02F340EA030021FA04F345EA0301F7
:1007A00030BDC4F10C04C4F1200220FA02F001FAB9
:1007B00004F340EA0300294630BD21FA04F029463B
:1007C00030BD94F0000F83F4801306BF81F48011D4
:1007D0000134013D4EE77FEA645C18BF7FEA655C47
:1007E00029D094EA050F08BF90EA020F05D054EA19
:1007F000000C04BF1946104630BD91EA030F1EBF1E
:100800000021002030BD5FEA545C05D14000494121
:1008100028BF41F0004130BD14F580043CBF01F514
:10082000801130BD01F0004545F0FE4141F47001FA
:100830004FF0000030BD7FEA645C1ABF19461046D5
:100840007FEA655C1CBF0B46024650EA013406BFD6
:1008500052EA033591EA030F41F4002130BD00BF95
:1008600090F0000F04BF0021704730B54FF4806452
:1008700004F132044FF000054FF0000150E700BFD3
:1008800090F0000F04BF0021704730B54FF4806432
:1008900004F1320410F0004548BF40424FF000011F
:1008A0003EE700BF42004FEAE2014FEA31014FEA62
:1008B00002701FBF12F07F4393F07F4F81F06051B1
:1008C000704792F0000F14BF93F07F4F704730B520
:1008D0004FF4607401F0004521F0004120E700BFB3
:1008E00050EA010208BF704730B54FF000050AE03A
:1008F00050EA010208BF704730B511F0004502D53B
:10090000404261EB41014FF4806404F132045FEA3C
:10091000915C3FF4DCAE4FF003025FEADC0C18BFE1
:1009200003325FEADC0C18BF033202EBDC02C2F1D7
:10093000200300FA03FC20FA02F001FA03FE40EA69
:100940000E0021FA02F11444C1E600BF70B54FF069
:10095000FF0C4CF4E06C1CEA11541DBF1CEA13554B
:1009600094EA0C0F95EA0C0F00F0DEF82C4481EAB3
:10097000030621EA4C5123EA4C5350EA013518BFD3
:1009800052EA033541F4801143F4801338D0A0FBC0
:1009900002CE4FF00005E1FB02E506F00042E0FB6D
:1009A00003E54FF00006E1FB03569CF0000F18BF73
:1009B0004EF0010EA4F1FF04B6F5007F64F540741B
:1009C00004D25FEA4E0E6D4146EB060642EAC621AE
:1009D00041EA55514FEAC52040EA5E504FEACE2E1B
:1009E000B4F1FD0C88BFBCF5E06F1ED8BEF1004F1E
:1009F00008BF5FEA500E50F1000041EB045170BD9A
:100A000006F0004646EA010140EA020081EA0301DD
:100A1000B4EB5C04C2BFD4EB0C0541EA045170BDD9
:100A200041F480114FF0000E013C00F3AB8014F153
:100A3000360FDEBF002001F0004170BDC4F100049C
:100A4000203C35DA0C341BDC04F11404C4F120051D
:100A500000FA05F320FA04F001FA05F240EA020078
:100A600001F0004221F0004110EBD37021FA04F6AE
:100A700042EB06015EEA430E08BF20EAD37070BD68
:100A8000C4F10C04C4F1200500FA04F320FA05F0C7
:100A900001FA04F240EA020001F0004110EBD370C9
:100AA00041F100015EEA430E08BF20EAD37070BD39
:100AB000C4F1200500FA05F24EEA020E20FA04F312
:100AC00001FA05F243EA020321FA04F001F00041C1
:100AD00021FA04F220EA020000EBD3705EEA430E32
:100AE00008BF20EAD37070BD94F0000F0FD101F061
:100AF0000046400041EB010111F4801F08BF013C9A
:100B0000F7D041EA060195F0000F18BF704703F0D7
:100B10000046520043EB030313F4801F08BF013D5E
:100B2000F7D043EA0603704794EA0C0F0CEA13551A
:100B300018BF95EA0C0F0CD050EA410618BF52EAD4
:100B40004306D1D181EA030101F000414FF00000DA
:100B500070BD50EA410606BF1046194652EA4306E8
:100B600019D094EA0C0F02D150EA013613D195EA5C
:100B70000C0F05D152EA03361CBF104619460AD1A4
:100B800081EA030101F0004141F0FE4141F47001AE
:100B90004FF0000070BD41F0FE4141F4780170BD9E
:100BA00070B54FF0FF0C4CF4E06C1CEA11541DBF03
:100BB0001CEA135594EA0C0F95EA0C0F00F0A7F805
:100BC000A4EB050481EA030E52EA03354FEA013132
:100BD00000F088804FEA03334FF0805545EA131345
:100BE00043EA12634FEA022245EA111545EA10650D
:100BF0004FEA00260EF000419D4208BF964244F1A4
:100C0000FD0404F5407402D25B084FEA3202B61AC2
:100C100065EB03055B084FEA32024FF480104FF496
:100C2000002CB6EB020E75EB030E22BFB61A75460A
:100C300040EA0C005B084FEA3202B6EB020E75EB9D
:100C4000030E22BFB61A754640EA5C005B084FEA05
:100C50003202B6EB020E75EB030E22BFB61A7546D2
:100C600040EA9C005B084FEA3202B6EB020E75EBDD
:100C7000030E22BFB61A754640EADC0055EA060E9E
:100C800018D04FEA051545EA16754FEA06164FEAE1
:100C9000C30343EA52734FEAC2025FEA1C1CC0D18D
:100CA00011F4801F0BD141EA00014FF000004FF01A
:100CB000004CB6E711F4801F04BF01430020B4F1DB
:100CC000FD0C88BFBCF5E06F3FF6AFAEB5EB030C93
:100CD00004BFB6EB020C5FEA500C50F1000041EB90
:100CE000045170BD0EF0004E4EEA113114EB5C045D
:100CF000C2BFD4EB0C0541EA045170BD41F4801130
:100D00004FF0000E013C90E645EA060E8DE60CEA37
:100D1000135594EA0C0F08BF95EA0C0F3FF43BAF54
:100D200094EA0C0F0AD150EA01347FF434AF95EA0B
:100D30000C0F7FF425AF104619462CE795EA0C0FEF
:100D400006D152EA03353FF4FDAE1046194622E7BC
:100D500050EA410618BF52EA43067FF4C5AE50EA96
:100D600041047FF40DAF52EA43057FF4EBAE12E786
:100D70004A0011D212F5001211D20DD56FF478731A
:100D8000B3EB62520ED44FEAC12343F0004343EA6F
:100D9000505323FA02F070474FF00000704750EABA
:100DA000013002D14FF0FF3070474FF00000704724
:100DB00053B94AB9002908BF00281CBF4FF0FF31C2
:100DC0004FF0FF3000F07AB9ADF1080C6DE904CEB8
:100DD00000F006F8DDF804E0DDE9022304B0704716
:100DE0002DE9F0478C460D460446089E002B51D154
:100DF0008A4217466DD9B2FA82FEBEF1000F0BD0BF
:100E0000CEF1200C01FA0EF520FA0CFC02FA0EF7D6
:100E10004CEA050C00FA0EF44FEA174A250CBCFB0D
:100E2000FAF81FFA87F90AFB18CC45EA0C4508FBCB
:100E300009F3AB420AD9ED1908F1FF3280F02381A2
:100E4000AB4240F22081A8F102083D44ED1AA4B261
:100E5000B5FBFAF00AFB105544EA054400FB09F91A
:100E6000A14509D9E41900F1FF3380F00A81A145B9
:100E700040F2078102383C44A4EB090440EA0840F0
:100E80000021002E61D024FA0EF400233460736038
:100E9000BDE8F0878B4207D9002E54D0002186E8A8
:100EA00021000846BDE8F087B3FA83F1002940F03D
:100EB0008E80AB4202D3824200F2FA80841A65EB44
:100EC00003050120AC46002E3FD086E81010BDE897
:100ED000F08712B90127B7FBF2F7B7FA87FEBEF128
:100EE000000F34D1EB1B3A0C1FFA87FC0121B3FB36
:100EF000F2F8250C02FB183345EA03450CFB08F316
:100F0000AB4207D9ED1908F1FF3002D2AB4200F233
:100F1000D1808046ED1AA3B2B5FBF2F002FB10556A
:100F200043EA05440CFB00FCA44507D9E41900F191
:100F3000FF3302D2A44500F2B8801846A4EB0C049B
:100F400040EA08409DE731463046BDE8F087CEF1E3
:100F5000200405FA0EF307FA0EF720FA04F83A0C0B
:100F600025FA04F448EA0308B4FBF2F14FEA184505
:100F700002FB11441FFA87FC45EA044501FB0CF310
:100F8000AB4200FA0EF409D9ED1901F1FF3080F0FF
:100F90008A80AB4240F2878002393D44EB1A1FFA47
:100FA00088F5B3FBF2F002FB103345EA034500FB82
:100FB0000CF3AB4207D9ED1900F1FF386FD2AB4209
:100FC0006DD902383D44EB1A40EA01418FE7C1F187
:100FD000200722FA07F88B4005FA01F448EA0303D8
:100FE00020FA07FE4FEA134CFD404EEA040EB5FB13
:100FF000FCF94FEA1E440CFB19551FFA83F844EA2A
:10100000054509FB08F4AC4202FA01F200FA01FAC4
:1010100008D9ED1809F1FF3043D2AC4241D9A9F10A
:1010200002091D442D1B1FFA8EFEB5FBFCF00CFBC4
:1010300010554EEA054400FB08F8A04507D9E4180E
:1010400000F1FF3529D2A04527D902381C4440EAD7
:101050000940A4EB0804A0FB02894C45C6464D4656
:1010600015D312D056B1BAEB0E0364EB050404FAA3
:1010700007F7CB401F43CC40376074600021BDE8C8
:10108000F0871846F8E69046E0E6C245EAD2B8EBAB
:10109000020E69EB03050138E4E72846D7E740462E
:1010A00091E78146BEE7014678E702383C4445E7D0
:1010B000084608E7A8F102083D442BE7704700BF47
:1010C000B0F8E620A2F61C4202EB82021301054AA8
:1010D00082FB0312DB17C3EBA2130A3380F8F33051
:1010E000704700BFD34D62100023A0F8E43000E049
:1010F00001335F2B08D830F81320B0F8E4108A428F
:10110000F6D9A0F8E420F3E770470023A0F8EA300E
:1011100000E001330F2B0AD803F1600230F81220EF
:10112000B0F8EA108A42F4D9A0F8EA20F1E7704753
:1011300044F62063A0F8EC30002300E001330F2BCD
:101140000CD803F1600230F81220002AF6D0B0F873
:10115000EC108A42F2D2A0F8EC20EFE7704710B40E
:10116000002319461C4601E0114401330F2B07D818
:1011700003F1600230F81220002AF5D10134F3E7C0
:10118000C4F1100491FBF4F1A0F8EE105DF8044BEB
:101190007047B0F8EA30B0F8EC209B1AA0F8F030B5
:1011A0007047B0F8E430B0F8E2209B1AA0F8E830BD
:1011B000704741F28833A0F8E230002300E00133A9
:1011C0005F2B08D830F81320B0F8E2108A42F6D22C
:1011D000A0F8E220F3E7704700231A4603E030F856
:1011E00013100A4401335F2BF9D9044981FB023102
:1011F000D317C3EB2113A0F8E6307047ABAAAA2A95
:1012000000231A4603E030F813100A4401335F2B21
:10121000F9D9034BA3FB0223DB08A0F8E0307047A9
:10122000CDCCCCCC10B400231A4600E001335F2BA8
:1012300007D830F81340B4F5FA7FF7D9013292B2EB
:10124000F4E7602A06D0F622044B02FB01310423A6
:1012500081F8F2305DF8044B704700BF704D0020FC
:101260000021012941D810B41DE0C1EB4113C1EBAD
:10127000830313440024204820F8134001325F2ADE
:10128000F3D900220AE0C1EB4113C1EB83031344FD
:1012900060330024184820F8134001320F2AF2D995
:1012A0000131012919D8F623134A03FB0123002237
:1012B00083F8F220A3F8E820A3F8EA2083F8F420CA
:1012C000A3F8E420A3F8E220A3F8EC20A3F8E020A0
:1012D00083F8F320A3F8F020D1E70023074A137026
:1012E000074A13705DF8044B70470023034A1370DC
:1012F000034A1370704700BF704D0020C94F002093
:10130000C84F002090F8F230042B5AD8DFE803F0E1
:10131000030A592F4800002380F8F430012380F895
:10132000F2307047002380F8F430B0F8E62040F641
:101330000A739A420ED9B0F8E430B0F8E2209B1A52
:10134000052B03DD012380F8F53006E0002380F84B
:10135000F53002E0002380F8F530B0F8E42040F6E4
:10136000B3739A422DD8032380F8F23070470023DC
:1013700080F8F530012380F8F430B0F8E42041F231
:1013800054039A4205D8B0F8EA2043F2B0639A4277
:1013900017D9002380F8F430012380F8F230704729
:1013A000002380F8F430B0F8E230B3F5FA6F08D9D2
:1013B000B0F8E42041F299039A4202D8012380F860
:1013C000F230704700B583B01D4B1B78E3B140236A
:1013D0008DF8003000238DF8013020228DF8022096
:1013E00009228DF803208DF804308DF805308DF832
:1013F00006308DF807306A46082140F2056001F09A
:1014000007FA03B05DF804FB40238DF80030002399
:101410008DF8013020228DF8022009218DF803106B
:101420008DF804208DF805308DF806308DF80730E2
:101430006A46082140F2056001F0EAF9E1E700BFE1
:10144000C84F002030B585B0224CB4F8E0308DF89C
:1014500008301B0A8DF80930B4F8EE308DF80A30E8
:101460001B0A8DF80B30B4F8E8308DF80C301B0AED
:101470008DF80D3094F8F3308DF80E3000258DF88E
:101480000F5002AA08214FF49C7001F0C1F9B4F882
:10149000D6318DF800301B0A8DF80130B4F8E431F4
:1014A0008DF802301B0A8DF80330B4F8DE318DF868
:1014B00004301B0A8DF8053094F8E9318DF80630B8
:1014C0008DF807506A46082140F2391001F0A0F962
:1014D00005B030BD704D002000B583B002238DF8FB
:1014E000043000238DF805308DF8063020B1012836
:1014F00009D003B05DF804FB01AA03214FF400708A
:1015000001F066F9F5E701AA03214FF4007001F03C
:101510009FF9EEE790F8F53003B1704710B582B04F
:101520000C460846FFF7D8FF002305E002AA1A443C
:10153000002002F8080C0133072BF7D91CB1012C4D
:1015400008D0002313E06A4608214FF4407001F0F0
:101550003FF9F6E76A4608214FF4407001F078F948
:10156000EFE702AA1A44002002F8080C0133042B0A
:10157000F7D91CB1012C08D002B010BD6A46052174
:101580004FF4447001F024F9F6E76A4605214FF460
:10159000447001F05DF9EFE738B500252AE0174BFC
:1015A000F62404FB053429462046FFF7B3FF204606
:1015B000FFF726FE2046FFF70FFE2046FFF7F9FD56
:1015C0002046FFF791FD2046FFF7EBFD2046FFF791
:1015D000AFFD2046FFF799FD2046FFF7C0FD2046EE
:1015E000FFF7D7FD29462046FFF71CFE2046FFF7F0
:1015F00067FD0135012DD2D938BD00BF704D0020E7
:1016000030B583B004460D460846FFF765FF6DB15F
:10161000012D5AD003B030BD02AA1A44002102F8AD
:10162000081C0133072BF7D9002302E00023F9E758
:1016300001333D2B11D8B4F8E61034F81320914251
:10164000F6D2444AD25C4449C95C02A8024412F86A
:10165000080C014302F8081CEAE76A4608214FF427
:10166000407001F0B5F8002305E002AA1A440021F9
:1016700002F8081C0133072BF7D93E2300E00133A1
:101680005F2B11D8B4F8E61034F813209142F6D24B
:10169000304AD25C3049C95C02A8024412F8080CF6
:1016A000014302F8081CEAE76A4605214FF444703A
:1016B00001F08EF8AEE702AA1A44002102F8081CD5
:1016C0000133072BF7D9002302E00023F9E70133A8
:1016D0003D2B11D8B4F8E61034F813209142F6D21D
:1016E0001C4AD25C1C49C95C02A8024412F8080CCE
:1016F000014302F8081CEAE76A4608214FF44070EB
:1017000001F0A6F8002305E002AA1A44002102F81D
:10171000081C0133072BF7D93E2300E001335F2B70
:1017200011D8B4F8E61034F813209142F6D2094AE1
:10173000D25C0949C95C02A8024412F8080C0143B2
:1017400002F8081CEAE76A4605214FF4447001F0EC
:101750007FF85FE7A86F0008087000087047000076
:10176000094B93F8F43033B1074A92F8EA2112B1E9
:101770000021064A11701BB1034B93F8EA3113B9EB
:101780000122024B1A707047704D0020C84F002094
:1017900038B5054614460B68A3F58C631E2B00F282
:1017A0002186DFE813F01F007B00F5006F01EC01DC
:1017B0006C02EE021F067203F40376041F06FA049D
:1017C0005C05BE051F064D00B8003201AF012B02BB
:1017D000AD0231031F06B3033504B9041F062B0500
:1017E0008D05EF0523781B0203F4706360781844BD
:1017F000FFF746F80022C24BFFF7A8F8FFF7B8FA48
:101800002880A3781B0203F47063E0781844FFF784
:1018100037F80022BA4BFFF799F8FFF7A9FA68806A
:1018200023791B0203F4706360791844FFF728F8EA
:101830000022B34BFFF78AF8FFF79AFAA88038BD69
:1018400023781B0203F4706360781844FFF718F8DC
:101850000022AB4BFFF77AF8FFF78AFAE880A3780B
:101860001B0203F47063E0781844FFF709F80022C4
:10187000A34BFFF76BF8FFF77BFA288123791B0254
:1018800003F4706360791844FEF7FAFF00229C4B62
:10189000FFF75CF8FFF76CFA688138BD23781B020C
:1018A00003F4706360781844FEF7EAFF0022944B5B
:1018B000FFF74CF8FFF75CFAA881A3781B0203F44A
:1018C0007063E0781844FEF7DBFF00228C4BFFF7D3
:1018D0003DF8FFF74DFAE88123791B0203F47063AA
:1018E00060791844FEF7CCFF0022854BFFF72EF8F5
:1018F000FFF73EFA2882A3791B0203F47063E079B4
:101900001844FEF7BDFF00227D4BFFF71FF8FFF7DD
:101910002FFA688238BD23781B0203F47063607865
:101920001844FEF7ADFF0022754BFFF70FF8FFF7E5
:101930001FFAA882A3781B0203F47063E0781844AE
:10194000FEF79EFF00226E4BFFF700F8FFF710FA3C
:10195000E88223791B0203F4706360791844FEF770
:101960008FFF0022664BFEF7F1FFFFF701FA288395
:10197000A3791B0203F47063E0791844FEF780FF3B
:1019800000225F4BFEF7E2FFFFF7F2F9688338BDF4
:1019900023781B0203F4706360781844FEF770FF2D
:1019A0000022574BFEF7D2FFFFF7E2F9A883A37896
:1019B0001B0203F47063E0781844FEF761FF002215
:1019C0004F4BFEF7C3FFFFF7D3F9E88323791B02E0
:1019D00003F4706360791844FEF752FF0022484B0D
:1019E000FEF7B4FFFFF7C4F92884A3791B0203F4C0
:1019F0007063E0791844FEF743FF0022404BFEF786
:101A0000A5FFFFF7B5F9688438BD23781B0203F4FE
:101A1000706360781844FEF733FF0022384BFEF7FE
:101A200095FFFFF7A5F9A884A3781B0203F4706360
:101A3000E0781844FEF724FF0022314BFEF786FFC2
:101A4000FFF796F9E88423791B0203F47063607949
:101A50001844FEF715FF0022294BFEF777FFFFF72A
:101A600087F92885A3791B0203F47063E079184491
:101A7000FEF706FF0022224BFEF768FFFFF778F91A
:101A8000688538BD23781B0203F4706360781844BE
:101A9000FEF7F6FE00221A4BFEF758FFFFF768F933
:101AA000A885A3781B0203F47063E0781844FEF75E
:101AB000E7FE0022124BFEF749FFFFF759F9E885D0
:101AC00023791B0203F4706360791844FEF7D8FE93
:101AD00000220B4BFEF73AFFFFF74AF92886A3795D
:101AE0001B0203F47063E0791844FEF7C9FE00227C
:101AF000034BFEF72BFFFFF73BF9688638BD00BFAD
:101B00000000F43F23781B0203F4706360781844EC
:101B1000FEF7B6FE0022BB4BFEF718FFFFF728F9D1
:101B2000A886A3781B0203F47063E0781844FEF7DC
:101B3000A7FE0022B34BFEF709FFFFF719F9E8866D
:101B400023791B0203F4706360791844FEF798FE52
:101B50000022AC4BFEF7FAFEFFF70AF92887A379BB
:101B60001B0203F47063E0791844FEF789FE00223B
:101B7000A44BFEF7EBFEFFF7FBF8688738BD237830
:101B80001B0203F4706360781844FEF779FE0022AC
:101B90009C4BFEF7DBFEFFF7EBF8A887A3781B0250
:101BA00003F47063E0781844FEF76AFE0022954B58
:101BB000FEF7CCFEFFF7DCF8E88723791B0203F47D
:101BC000706360791844FEF75BFE00228D4BFEF7D0
:101BD000BDFEFFF7CDF8A5F84000A3791B0203F482
:101BE0007063E0791844FEF74BFE0022854BFEF748
:101BF000ADFEFFF7BDF8A5F8420038BD23781B0203
:101C000003F4706360781844FEF73AFE00227D4BBF
:101C1000FEF79CFEFFF7ACF8A5F84400A3781B0282
:101C200003F47063E0781844FEF72AFE0022754B37
:101C3000FEF78CFEFFF79CF8A5F8460023791B02FF
:101C400003F4706360791844FEF71AFE00226D4BAE
:101C5000FEF77CFEFFF78CF8A5F84800A3791B027D
:101C600003F47063E0791844FEF70AFE0022654B26
:101C7000FEF76CFEFFF77CF8A5F84A0038BD237824
:101C80001B0203F4706360781844FEF7F9FD00222C
:101C90005C4BFEF75BFEFFF76BF8A5F84C00A378F2
:101CA0001B0203F47063E0781844FEF7E9FD00229C
:101CB000544BFEF74BFEFFF75BF8A5F84E00237977
:101CC0001B0203F4706360791844FEF7D9FD00220B
:101CD0004C4BFEF73BFEFFF74BF8A5F85000A379FD
:101CE0001B0203F47063E0791844FEF7C9FD00227B
:101CF000444BFEF72BFEFFF73BF8A5F8520038BD2A
:101D000023781B0203F4706360781844FEF7B8FD73
:101D100000223C4BFEF71AFEFFF72AF8A5F8540004
:101D2000A3781B0203F47063E0781844FEF7A8FD63
:101D30000022344BFEF70AFEFFF71AF8A5F856000A
:101D400023791B0203F4706360791844FEF798FD51
:101D500000222C4BFEF7FAFDFFF70AF8A5F8580011
:101D6000A3791B0203F47063E0791844FEF788FD41
:101D70000022244BFEF7EAFDFEF7FAFFA5F85A0011
:101D800038BD23781B0203F4706360781844FEF7B3
:101D900077FD00221B4BFEF7D9FDFEF7E9FFA5F802
:101DA0005C00A3781B0203F47063E0781844FEF72C
:101DB00067FD0022134BFEF7C9FDFEF7D9FFA5F81A
:101DC0005E0023791B0203F4706360791844FEF708
:101DD00057FD00220B4BFEF7B9FDFEF7C9FFA5F832
:101DE0006000A3791B0203F47063E0791844FEF7E6
:101DF00047FD0022034BFEF7A9FDFEF7B9FFA5F84A
:101E0000620038BD0000F43F23781B0203F47063C6
:101E100060781844FEF734FD0022BE4BFEF796FDB5
:101E2000FEF7A6FFA5F86400A3781B0203F4706315
:101E3000E0781844FEF724FD0022B64BFEF786FD3D
:101E4000FEF796FFA5F8660023791B0203F4706382
:101E500060791844FEF714FD0022AE4BFEF776FDC4
:101E6000FEF786FFA5F86800A3791B0203F47063F0
:101E7000E0791844FEF704FD0022A64BFEF766FD4C
:101E8000FEF776FFA5F86A0038BD23781B0203F43D
:101E9000706360781844FEF7F3FC00229D4BFEF758
:101EA00055FDFEF765FFA5F86C00A3781B0203F44F
:101EB0007063E0781844FEF7E3FC0022954BFEF7D0
:101EC00045FDFEF755FFA5F86E0023791B0203F4CC
:101ED000706360791844FEF7D3FC00228D4BFEF747
:101EE00035FDFEF745FFA5F87000A3791B0203F44A
:101EF0007063E0791844FEF7C3FC0022854BFEF7BF
:101F000025FDFEF735FFA5F8720038BD23781B02CA
:101F100003F4706360781844FEF7B2FC00227D4B36
:101F2000FEF714FDFEF724FFA5F87400A3781B024A
:101F300003F47063E0781844FEF7A2FC0022754BAE
:101F4000FEF704FDFEF714FFA5F8760023791B02C7
:101F500003F4706360791844FEF792FC00226D4B25
:101F6000FEF7F4FCFEF704FFA5F87800A3791B0246
:101F700003F47063E0791844FEF782FC0022654B9D
:101F8000FEF7E4FCFEF7F4FEA5F87A0038BD2378EE
:101F90001B0203F4706360781844FEF771FC0022A2
:101FA0005C4BFEF7D3FCFEF7E3FEA5F87C00A378BC
:101FB0001B0203F47063E0781844FEF761FC002212
:101FC000544BFEF7C3FCFEF7D3FEA5F87E00237941
:101FD0001B0203F4706360791844FEF751FC002281
:101FE0004C4BFEF7B3FCFEF7C3FEA5F88000A379C7
:101FF0001B0203F47063E0791844FEF741FC0022F1
:10200000444BFEF7A3FCFEF7B3FEA5F8820038BDF3
:1020100023781B0203F4706360781844FEF730FCE9
:1020200000223C4BFEF792FCFEF7A2FEA5F88400CE
:10203000A3781B0203F47063E0781844FEF720FCD9
:102040000022344BFEF782FCFEF792FEA5F88600D4
:1020500023791B0203F4706360791844FEF710FCC7
:1020600000222C4BFEF772FCFEF782FEA5F88800DA
:10207000A3791B0203F47063E0791844FEF700FCB7
:102080000022244BFEF762FCFEF772FEA5F88A00E0
:1020900038BD23781B0203F4706360781844FEF7A0
:1020A000EFFB00221B4BFEF751FCFEF761FEA5F88B
:1020B0008C00A3781B0203F47063E0781844FEF7E9
:1020C000DFFB0022134BFEF741FCFEF751FEA5F8A3
:1020D0008E0023791B0203F4706360791844FEF7C5
:1020E000CFFB00220B4BFEF731FCFEF741FEA5F8BB
:1020F0009000A3791B0203F47063E0791844FEF7A3
:10210000BFFB0022034BFEF721FCFEF731FEA5F8D2
:10211000920038BD0000F43F23781B0203F4706383
:1021200060781844FEF7ACFB0022AF4BFEF70EFCC4
:10213000FEF71EFEA5F89400A3781B0203F470635B
:10214000E0781844FEF79CFB0022A74BFEF7FEFB4D
:10215000FEF70EFEA5F8960023791B0203F47063C8
:1021600060791844FEF78CFB00229F4BFEF7EEFBD4
:10217000FEF7FEFDA5F89800A3791B0203F4706337
:10218000E0791844FEF77CFB0022974BFEF7DEFB5C
:10219000FEF7EEFDA5F89A0038BD23781B0203F484
:1021A000706360781844FEF76BFB00228E4BFEF7DD
:1021B000CDFBFEF7DDFDA5F89C00A3781B0203F420
:1021C0007063E0781844FEF75BFB0022864BFEF755
:1021D000BDFBFEF7CDFDA5F89E0023791B0203F49D
:1021E000706360791844FEF74BFB00227E4BFEF7CC
:1021F000ADFBFEF7BDFDA5F8A00038BD23781B029E
:1022000003F4706360781844FEF73AFB0022764BC3
:10221000FEF79CFBFEF7ACFDA5F8A200A3781B021D
:1022200003F47063E0781844FEF72AFB00226E4B3B
:10223000FEF78CFBFEF79CFDA5F8A40023791B029A
:1022400003F4706360791844FEF71AFB0022664BB2
:10225000FEF77CFBFEF78CFDA5F8A60038BD2378C1
:102260001B0203F4706360781844FEF709FB002238
:102270005D4BFEF76BFBFEF77BFDA5F8A800A3788E
:102280001B0203F47063E0781844FEF7F9FA0022A9
:10229000554BFEF75BFBFEF76BFDA5F8AA00237913
:1022A0001B0203F4706360791844FEF7E9FA002218
:1022B0004D4BFEF74BFBFEF75BFDA5F8AC0038BDC0
:1022C00023781B0203F4706360781844FEF7D8FA91
:1022D0000022454BFEF73AFBFEF74AFDA5F8AE009B
:1022E000A3781B0203F47063E0781844FEF7C8FA81
:1022F00000223D4BFEF72AFBFEF73AFDA5F8B000A1
:1023000023791B0203F4706360791844FEF7B8FA6E
:102310000022354BFEF71AFBFEF72AFDA5F8B200A6
:1023200038BD23781B0203F4706360781844FEF70D
:10233000A7FA00222C4BFEF709FBFEF719FDA5F8C2
:10234000B400A3781B0203F47063E0781844FEF72E
:1023500097FA0022244BFEF7F9FAFEF709FDA5F8DB
:10236000B60023791B0203F4706360791844FEF70A
:1023700087FA00221C4BFEF7E9FAFEF7F9FCA5F8F4
:10238000B80038BD23781B0203F4706360781844EA
:10239000FEF776FA0022144BFEF7D8FAFEF7E8FCB7
:1023A000A5F8BA00A3781B0203F47063E078184420
:1023B000FEF766FA00220C4BFEF7C8FAFEF7D8FCCF
:1023C000A5F8BC0023791B0203F4706360791844FC
:1023D000FEF756FA0022044BFEF7B8FAFEF7C8FCE7
:1023E000A5F8BE0038BD00BF0000F43F0B68A3F5A0
:1023F000FC630E2B00F28E80DFE803F00814202F20
:10240000333F4E8C525E6D8C717D8900117853780C
:1024100003EB0123A3EBC30303F5E0431C33A0F854
:10242000C03070471178537803EB0123A3EBC3034B
:1024300003F5E0431C33A0F8C23070470023A0F836
:10244000C4309178D37803EB0123A3EBC30303F5E6
:10245000E0431C33A0F8C63070470023A0F8C83012
:1024600070471178537803EB0123A3EBC30303F503
:10247000E0431C33A0F8CA3070470023A0F8CC30EA
:102480009178D37803EB0123A3EBC30303F5E04377
:102490001C33A0F8CE3070470023A0F8D03070472E
:1024A0001178537803EB0123A3EBC30303F5E04357
:1024B0001C33A0F8D23070470023A0F8D4309178B4
:1024C000D37803EB0123A3EBC30303F5E0431C33F1
:1024D000A0F8D63070470023A0F8D83070471178A4
:1024E000537803EB0123A3EBC30303F5E0431C3351
:1024F000A0F8DA3070471178537803EB0123A3EB8F
:10250000C30303F5E0431C33A0F8DC30704700231D
:10251000A0F8DE3070470000F8B5044602681C4B96
:102520009A4204D022681B4B9A4218D0F8BD1A4B2D
:102530001A4A00211A4801F0DCFA68B9164F174E02
:10254000184D3A4631462846FFF722F93A463146B9
:102550002846FFF74BFFE5E700F00AFAEEE7124BDB
:10256000124A0021124801F0C4FA68B90E4E0F4D0C
:10257000104C324629462046FFF70AF932462946D2
:102580002046FFF733FFD1E700F0F2F9EEE700BF96
:1025900000640040006C004054510020F04F0020C7
:1025A00004510020704D0020AC5100205C4F0020F1
:1025B00040500020664E002070B504460268174B5C
:1025C0009A4204D02268164B9A420FD070BD154B28
:1025D000154A0121154801F08CFA20B91149124819
:1025E000FFF7BCF8EEE700F0C3F9F7E7104B114A2C
:1025F0000121114801F07DFA68B90D4E0D4D0F4CC7
:10260000324629462046FFF7C3F83246294620467F
:10261000FFF7ECFEDAE700F0ABF9EEE70068004008
:10262000006C0040CC4F0020E85000206850002093
:10263000AC5100205C4F002040500020664E00202E
:1026400008B5574A00239360D3601375554A042197
:102650009160D360137554494B618B61CB614FF628
:10266000FF724A6041F6FF720A60CB608B600B61BB
:102670000E234B6201230B624C4801F0FDF8002849
:1026800072D14A4801F092F9002870D102214748DE
:1026900001F0C9FA00286DD100220321132001F0B6
:1026A0001DFC132001F04CFC414A00239360D360D1
:1026B0001375404A04219160D36013753E490E2280
:1026C0004A618B61CB614FF6FF70486041F6FF7045
:1026D0000860CB608B6001230B614A620B62374854
:1026E00001F0CAF8002848D1344801F05FF9002809
:1026F00046D11021314801F096FA002843D100223A
:1027000003213F2001F0EAFB3F2001F019FC2C4A95
:1027100000239360D36013752A4A04219160D3602B
:102720001375294901224A618B61CA614B600B60B4
:10273000CB608B600B610E234B620A62234801F071
:102740009BF818BB214801F031F910BB02211F484A
:1027500001F069FA00BB002203214A2001F0BEFB10
:102760004A2001F0EDFB08BD00F002F989E700F016
:10277000FFF88BE700F0FCF88EE700F0F9F8B3E71C
:1027800000F0F6F8B5E700F0F3F8B8E700F0F0F87D
:10279000D8E700F0EDF8D9E700F0EAF8DBE700BF92
:1027A00094500020CC500020A04F00200451002065
:1027B00010500020D84F00202C51002068500020DD
:1027C00028500020B05000208451002040500020AC
:1027D00010B50B4C206021610A4B21460A4801F0DC
:1027E00013F90A4A136801331360022B00DC10BD91
:1027F000012000F087FF0022044B1A60F7E700BFBA
:1028000094500020AC50002004510020E4500020DF
:1028100010B50B4C206021610A4B21460A4801F09B
:10282000F3F80A4A136801331360022B00DC10BD71
:10283000012000F067FF0022044B1A60F7E700BF99
:10284000105000209050002068500020C8500020F8
:1028500010B50B4C206021610A4B21460A4801F05B
:10286000D3F80A4A136801331360022B00DC10BD51
:10287000012000F047FF0022044B1A60F7E700BF79
:1028800028500020D44F0020405000200C50002041
:1028900008B500F07DFB074C2046FEF733FD04F140
:1028A000F600FEF72FFDFEF78DFD012002F05AFD28
:1028B000EFE700BF704D002008B5FEF751FF41F271
:1028C000883002F04FFDF8E708B507E000210B481B
:1028D000FEF796FE07E0C82002F044FD074B93F890
:1028E000F530002BF2D1054B93F8EB31002BF2D0F1
:1028F00001210348FEF784FEEDE700BF704D002084
:10290000664E002008B5FEF747FEFEF79BFD4FF42C
:102910007A7002F027FDF6E710B502680F4B9A4275
:1029200004D002680E4B9A4215D010BD0D4C002306
:1029300063610A4A13600C4B1B68D96821F00101DE
:10294000D9600A490968D162012151616FF0010221
:102950001A612174E5E700F0C3FEE6E700000140DC
:102960000014004040520020FC5100203C52002046
:1029700072B6FEE708B50D480D4B03603023436087
:1029800000238360C3604FF4803202614FF4001271
:102990004261037643768376C3760377437700F00C
:1029A000C5FE00B908BDFFF7E3FF00BF04510020DA
:1029B0000064004008B50D480D4B03600C234360D4
:1029C00000238360C3604FF4803202614FF4001231
:1029D0004261037643768376C3760377437700F0CC
:1029E000A5FE00B908BDFFF7C3FF00BF6850002077
:1029F0000068004008B50D480D4B0360302343606C
:102A000000238360C3604FF4803202614FF40012F0
:102A10004261037643768376C3760377437700F08B
:102A200085FE00B908BDFFF7A3FF00BF405000209E
:102A3000006C004000B595B03422002107A8FDF7D6
:102A400003FD0023029303930493059306930093DD
:102A50001E4A116C41F080511164126C02F08052D8
:102A60000092009A01931A4A116841F440411160A2
:102A7000126802F440420192019A02220792012157
:102A80000A9110210B910D920E9308230F93482366
:102A9000109311921292139207A801F0F5FE80B9DB
:102AA0000F23029302210391002304934FF48052D9
:102AB0000592069302A801F003FE20B915B05DF857
:102AC00004FBFFF755FFFFF753FF00BF003802403C
:102AD0000070004008B500F0E9FDFFF7ABFFFFF71D
:102AE00049FFFFF767FFFFF785FFFFF7A9FD00F03C
:102AF00029FAFEF7B5FB02F087FB0F4A00210F48C9
:102B000002F0C6FB0E4B18600E4A00210E4802F080
:102B1000BFFB0E4B18600E4A00210E4802F0B8FBB6
:102B20000D4B18600D4A00210D4802F0B1FB0D4B12
:102B3000186002F089FBFEE78C70000891280008FD
:102B4000B85100200C710008B9280008BC510020C1
:102B500068700008C92800085C520020B0700008A6
:102B600005290008B451002000B583B0002200926E
:102B70000D4B596C41F480415964596C01F480410A
:102B8000009100990192196C41F0805119641B6CFD
:102B900003F080530193019B0F216FF0010001F0BE
:102BA0009DF903B05DF804FB0038024010B58CB00D
:102BB00000230793089309930A930B930368474AEA
:102BC000934207D0464A934230D0464A934259D066
:102BD0000CB010BD00240194434B1A6C42F00072FB
:102BE0001A641A6C02F000720192019A02941A6B34
:102BF00042F002021A631B6B03F002030293029B72
:102C00004FF4407307930223089303230A93082386
:102C10000B9307A9354801F0FFFB2246052114203C
:102C200001F05CF9142001F08BF9D1E70024039442
:102C30002D4B1A6C42F080621A641A6C02F08062AA
:102C40000392039A04941A6B42F002021A631B6BFC
:102C500003F002030493049B4FF4405307930223B1
:102C6000089303230A9309230B9307A91F4801F034
:102C7000D3FB22460521412001F030F9412001F02B
:102C80005FF9A5E700240594174B1A6C42F0006227
:102C90001A641A6C02F000620592059A06941A6B87
:102CA00042F002021A631B6B03F002030693069BB9
:102CB000182307930223089303230A930B230B93F0
:102CC00007A90A4801F0A8FB224605214B2001F084
:102CD00005F94B2001F034F97AE700BF00640040A9
:102CE00000680040006C00400038024000040240D0
:102CF00010B588B000220146372001F0EFF83720E8
:102D000001F01EF900240194144B1A6C42F02002C9
:102D10001A641B6C03F020030193019B02A903A812
:102D200001F094FD01F082FD43000D48A0FB032358
:102D30009B0C013B0B480C4A026040F2E732C26038
:102D400043600461846002F04BF910B1012008B0C7
:102D500010BD044802F00BF8F9E700BF003802404C
:102D600083DE1B436052002000140040FEE7FEE7B4
:102D7000FEE7FEE7FEE770477047704770470000C8
:102D800008B5024800F06CFF08BD00BF04510020E8
:102D90007047000008B5024801F0FFFF08BD00BF02
:102DA0006052002008B5024800F05AFF08BD00BF7D
:102DB0006850002008B5024800F052FF08BD00BF6F
:102DC00040500020054BD3F8882042F47002C3F82D
:102DD00088204FF000629A60704700BF00ED00E06D
:102DE000C043C0B254280CD9A92812D95630C3B256
:102DF00003EB4302A3EB8300FF30000240EA0240F2
:102E00007047A0EB8003FF3300EB400040EA034033
:102E100070475538C0B200EB4003A0EB8000FF3094
:102E200040EA0320704700002DE9F04105460F46B7
:102E30009046104B1E780136F6B21E70002410E04A
:102E40002002B0FBF8F03044C0B2FFF7C9FF04EB3A
:102E50004403E8545A1C010AA9540233000CE854F4
:102E60000134054BA3FB0723B4EB530FE8D3BDE8B4
:102E7000F08100BF68040020ABAAAAAA2DE9F041A6
:102E80000446884617461E46002508E00022E25404
:102E900023E00022625428E00022E2540135184B5E
:102EA000A3FB0823B5EB530F28D2FDF725FBB0FB9E
:102EB000F7F307FB130038B905EB4503FF22E25493
:102EC000591C62540233E25405EB4503E25CB24202
:102ED000DCD9B2FBF6F1521AE254591C625C9642FC
:102EE000D7D2B2FBF6F0121A62540233E25C964279
:102EF000D2D2B2FBF6F1521AE254CFE7BDE8F0812C
:102F0000ABAAAAAA08B500F0F7FB0B4B1B68C01AC6
:102F1000192800D808BD00F0EFFB074B18600F22FE
:102F2000B4210648FFF780FF282332223C210448C1
:102F3000FFF7A4FFEEE700BF64040020DC5200208E
:102F4000A052002010B5002313B100F093FB10BD78
:102F50000C4A02EB03120D21117313F0010F09D17A
:102F600008491A018818084C8C50B4224260013379
:102F7000DBB2E9E703491A018818044C8C503C2263
:102F80004260F4E740520020DC520020A0520020B2
:102F900008B5064B1B7C03B908BDFFF7B3FF012240
:102FA000024B5A7400F074FBF6E700BF4052002059
:102FB00082B000230193019B0133019302B070475B
:102FC000F0B589B000250195194C236B43F004033B
:102FD0002363236B03F004030193019B4FF400561A
:102FE0000396012704970595069503A9114801F05A
:102FF00013FA0295236B43F008032363236B03F05A
:1030000008030293029B04970595022306934FF44D
:1030100000430393A4F5305403A9204601F0FCF9C2
:10302000039603A9204601F0F7F909B0F0BD00BFEF
:1030300000380240000802402DE9F04F83B000251F
:103040000195464B1A6B42F480021A631B6B03F422
:1030500080030193019B424C4FF0400AC4F808A042
:10306000E56025614FF4805BC4F814B04FF48043F1
:10307000A3614FF48079C4F81C904FF44038C4F831
:1030800020804FF04067676065620326A662E562B4
:103090002563344B2360204601F044F8204600F0BD
:1030A000D9FF3023304A3149204601F06EF8304CC8
:1030B000C4F808A0E5604FF4806323614FF4006317
:1030C00063614FF40053A361C4F81C90C4F82080DE
:1030D00067606562A662E5622563264B2360204631
:1030E00001F020F8204600F0B5FF3023224A2349A2
:1030F000204601F04AF8224CC4F808A0E56025619A
:10310000C4F814B04FF48043A361C4F81C90C4F811
:10311000208067606562A662E5622563194B2360C3
:10312000204600F0FFFF184BE363184B2364184B55
:10313000E364204600F08EFF2A4629463A2000F03C
:10314000CDFE3A2000F0FCFE3023074A114920460C
:1031500001F03FF803B0BDE8F08F00BF0038024037
:10316000B45400208864024018080240340400204F
:10317000F0530020286402401A08024054540020F2
:103180009053002040640240D533000831360008D7
:10319000B12F0008380400202DE9F04182B000244E
:1031A0000194354B5A6C42F001025A645B6C03F097
:1031B00001030193019B314B1A68130A3049A1FBAB
:1031C00003131B092F490B602F49A1FB0212D20ADE
:1031D0002E490A6003EB83014A002D49A1FB02013D
:1031E000CF082C49A1FB0212D6082B4D2B4A2A608E
:1031F000EB606C616C602C61AC60284601F009FFEB
:1032000022462146192000F069FE192000F098FEA0
:1032100023494FF06008C1F800808C604F60CC609B
:103220000C612246284601F047FF1E49C1F8008084
:103230008C604E60CC600C614C618C61042228462D
:1032400001F03AFF284601F080FD2146284601F0B2
:10325000B3FF2B68196A41F21112114208D1196AA1
:1032600040F24442114203D11A6822F001021A606E
:1032700002B0BDE8F08100BF0038024030040020F9
:10328000598B4F013C520020B5814E1BDC51002070
:10329000398EE33889888888FC510020000001407D
:1032A000E0510020C051002010B5054C4FF4004300
:1032B000A361044800F0C2FF4FF00043A36110BDBA
:1032C000000C02409053002010B5054C4FF4005301
:1032D000A361044801F061FD4FF00053A36110BDEC
:1032E000000C0240FC5100202DE9F0472A4C14F854
:1032F00002C014F803E09DF82030E75C01EB4101C7
:10330000CE006FEA0C0C6FEA0E0EFF430446012557
:103310008540ED4300223AE002EB0609A9B21F4BBB
:1033200033F81900084023F8190009F1080833F8A8
:103330001800084023F8180009F1100033F810A015
:1033400001EA0A0123F810100EFA02F1C1F3C011CC
:10335000A14033F819A041EA0A0123F819100CFA28
:1033600002F1C1F3C011A14033F8189041EA0901FC
:1033700023F8181007FA02F1C1F3C011A14033F885
:10338000108041EA080123F810100132D2B2072A56
:10339000C2D9BDE8F08700BF48710008545400202E
:1033A00070B582B005688268531C8360AA5C5C1C9F
:1033B0008460EB5C661C86602C5D4568AE4206D07E
:1033C000007B009489B2FFF78FFF02B070BD00252B
:1033D0008560F5E74FF400522E4B9A612E4B9B69A6
:1033E000042B02D010B5002448E000202A4B98613D
:1033F0002A4A136823F001031360294B19680B68EC
:1034000023F001030B60274B19680B6823F00103BD
:103410000B60254B19680B6823F001030B60234BED
:103420001B68D96821F48071D960D96821F40071D2
:10343000D960D96821F48061D9601D490968D162D9
:103440005062012151616FF001011961D96841F0A9
:103450000101D960136843F001031360154B1A682A
:10346000154B9A614FF000520A4B9A617047012147
:10347000094800EB0410FFF793FF0134002CF6D04D
:10348000054A9369013393614FF00052014B9A61F1
:1034900010BD00BF000C024040520020000001405F
:1034A000B4540020F053002090530020FC51002021
:1034B000DC510020380400200008024038B5002408
:1034C0004F4B1C740CB34F4B1B684F4A93422AD985
:1034D0004FF460624D4BDA604D4B1B684A4A934291
:1034E00036D94FF46062494BDA604A4B1B68464A52
:1034F000934242D8484A934277D8484A934279D86F
:103500004FF46012464B9A603BE03D4D05EB0415CD
:103510000021A9602846FFF743FF01212846FFF755
:103520003FFF0134CEE73C4A934204D94FF4606236
:10353000364B9A60D0E7394A934204D94FF460621F
:10354000374BDA60C8E74FF46062354B9A60C3E7E7
:10355000314A934204D94FF460622C4B9A60C4E71D
:103560002E4A934204D94FF460622D4BDA60BCE7D7
:103570004FF460622A4B9A60B7E74FF46012234B16
:10358000DA60204B1B6830225A60214C21684A6067
:10359000204801684A6023490A686FF01F051561D9
:1035A0001A6842F001021A602268136843F00103AE
:1035B00013600268136843F0010313600B68DA6854
:1035C00042F48072DA60DA6842F40072DA60DA6833
:1035D00042F48062DA60144A1268013A13494A627E
:1035E0001A6842F001021A6038BD4FF46012074BAE
:1035F0009A60C6E74FF46012094BDA60C1E700BF7A
:1036000040520020B454002058640240006402403C
:10361000F053002090530020B860024058600240F0
:1036200000600240FC5100203C520020000001409C
:1036300010B582B00E4B9B69042B01D000240EE024
:1036400000200090034602460146FFF74DFE0CE0C5
:103650000021074800EB0410FFF7A2FE0134002C04
:10366000F6D0034A93690133936102B010BD00BFE5
:103670004052002008B5FFF7A3FCFFF7DDFCFFF781
:103680008BFD0122014B1A7408BD00BF405200207F
:1036900008B5054B5B7C03B908BD0022024B5A7488
:1036A000FFF70CFFF8E700BF4052002008B50B4BB6
:1036B0001A6842F400721A601A6842F480621A6052
:1036C0001A6842F480721A60032000F0F5FB0020B3
:1036D000FFF70EFBFFF748FA002008BD003C024050
:1036E000034A1168034B1B780B441360704700BFFB
:1036F000145500203C040020014B1868704700BF9F
:103700001455002038B50446FFF7F6FF0546B4F11E
:10371000FF3F02D0044B1B781C44FFF7EDFF401B1A
:103720008442FAD838BD00BF3C040020002800F0D5
:10373000A18038B5044690F82030D3B122681368D0
:1037400023F002031360FFF7D7FF054623685A688A
:1037500012F0020F10D0FFF7CFFF401B0A28F5D957
:10376000636A43F400336362052384F82030012048
:1037700038BDFFF71BFAE1E71A6842F001021A6050
:10378000FFF7BAFF054623685A6812F0010F0DD102
:10379000FFF7B2FF401B0A28F5D9636A43F40033F0
:1037A0006362052384F82030012038BD227E012A7F
:1037B0003DD01A6822F080021A60637E012B3BD054
:1037C0002268136823F040031360A37E012B39D0D5
:1037D0002268136823F020031360E37E012B37D0A7
:1037E0002268136843F010031360237F012B35D048
:1037F0002268136823F008031360637F012B33D022
:103800002268136823F0040313602168A368E26848
:10381000134322691343626913436268013A1343F5
:10382000CB6100206062012384F8203038BD1A6823
:1038300042F080021A60C0E72268136843F0400338
:103840001360C2E72268136843F020031360C4E7E3
:103850002268136823F010031360C6E72268136818
:1038600043F008031360C8E72268136843F00403B9
:103870001360CAE701207047026890F82030013BCE
:10388000DBB2012B05D9436A43F480234362012054
:10389000704770B4434B9A4200D0434AD2F800328A
:1038A00043F00103C2F800323F4B9A4242D04B69C9
:1038B00003F01F03012000FA03F3D2F81C42D8439F
:1038C0000440C2F81C42CC69ACB9D2F80C420440A6
:1038D000C2F80C424C69CE688D8845EA06454834EA
:1038E00042F834504C698E680D8845EA06454834E4
:1038F00002EBC4046560CC69012C29D08C69002CD2
:103900003DD1D2F804420440C2F804420C69002CB4
:103910003BD1D2F814422040C2F81402096A0129AE
:1039200039D0D2F8003223F00103C2F8003200206F
:1039300070BC7047D2F8003223F47C53C2F80032D6
:10394000D2F80032486A43EA0023C2F80032AEE7F8
:10395000D2F80C421C43C2F80C424C690E688D88A8
:1039600045EA0645483442F834504C698E688D89E2
:1039700045EA0645483402EBC4046560BEE7D2F868
:1039800004421C43C2F80442C0E7D2F814021843B0
:10399000C2F81402C2E7D2F81C120B43C2F81C3260
:1039A000BFE700BF006C00400064004038B590F8ED
:1039B0002030DBB2012B05D0436A43F4002343627D
:1039C000012038BD0446022380F8203002681368C5
:1039D00023F001031360FFF78FFE054623685B6841
:1039E00013F0010F0DD0FFF787FE401B0A28F5D911
:1039F000636A43F400336362052384F820300120B6
:103A000038BD0020606238BD70B490F82040056871
:103A1000AD68013CE4B2012C06D9436A43F480232B
:103A20004362012070BC704715F0E05F5BD0C5F3C6
:103A30000165022D3ED80124AC401C608B68002B30
:103A40003ED104680E68CB6843EA465605F1180378
:103A50001B01E65003680C6905F1180603EB061319
:103A60005C600B7D012B36D00468D17993791B04FF
:103A700043EA0163517943EA012311790B432E0193
:103A80003444C4F88C310168D47893781B0443EA39
:103A90000463547843EA0423127813433144C1F891
:103AA0008831026818352D01535943F001035351F1
:103AB0000020B7E7436A43F4000343620120B1E703
:103AC00004684E6843EAC603CE68334305F118061E
:103AD0003601A351BEE7036803EB0613596841F4AE
:103AE00080715960C0E7436A43F4001343620120C8
:103AF00098E730B490F82040013CE4B2012C06D99C
:103B0000436A43F480234362012030BC704700299C
:103B10006FD10468E46814F0030F64D0056801F104
:103B20001B0424012C5904F004049460002C6BD174
:103B3000056801F11B0424012C59640D146005680B
:103B400001F11B0424012D5905F00205D56005681B
:103B500025446D6805F00F051561056825446D68FD
:103B6000C5F30725956105682C446468240C5461ED
:103B700004680A011444D4F8B8411C700468144461
:103B8000D4F8B841C4F307245C7004681444D4F832
:103B9000B841C4F307449C7004681444D4F8B84195
:103BA000240EDC7004681444D4F8BC411C71046811
:103BB0001444D4F8BC41C4F307245C710468144471
:103BC000D4F8BC41C4F307449C7104682244D2F881
:103BD000BC21120EDA71F9B90268D36843F02003F0
:103BE000D360002091E7436A43F40013436201204D
:103BF0008BE70468246914F0030F8FD1436A43F400
:103C000000134362012080E7056801F11B042401D1
:103C10002C59E408546092E70268136943F02003CA
:103C20001361002071E790F82030013BDBB2012BDB
:103C300005D9436A43F48023436201207047026838
:103C400053691943516100207047704770477047AE
:103C500070477047704770477047704770477047AC
:103C60002DE9F84F054603685C695F689E68D3F8E4
:103C70000C90D3F81080D3F818A014F0010F5AD08C
:103C800016F0010F17D001229A6016F0020F08D12A
:103C900016F0040F30D116F0080F07D04FF4805BF8
:103CA0000BE0FFF7D2FF4FF0000B06E0FFF7D0FF6D
:103CB0004FF0000B01E04FF0000B16F4807F0BD0AB
:103CC0002B684FF480729A6016F4007F17D116F4B7
:103CD000806F18D04BF4005B16F4803F2DD02B681A
:103CE0004FF480329A6016F4003F16D116F4802FFC
:103CF00017D04BF4004B20E04FF4006BDDE7284673
:103D0000FFF7A4FFE8E716F4006F02D04BF4804BF6
:103D1000E2E72846FFF79DFFDEE72846FFF797FF1B
:103D20000BE016F4002F02D04BF4803B05E0284650
:103D3000FFF790FF01E04FF0000B14F0080F07D0E1
:103D400019F0100F04D04BF4007B2B681022DA60BE
:103D500014F0040F02D019F0080F60D114F0020F14
:103D600004D02B68DB6813F0030F5FD114F0400F11
:103D700007D018F0100F04D04BF4806B2B68102282
:103D80001A6114F0200F02D018F0080F52D114F06D
:103D9000100F04D02B681B6913F0030F51D114F4DA
:103DA000003F02D017F0100F4FD114F4803F02D023
:103DB00017F0080F50D114F4004F67D017F0040F1C
:103DC00061D014F4807F04D01AF0010F01D04BF0C1
:103DD000010B14F4007F04D01AF0020F01D04BF055
:103DE000020B14F4806F04D01AF0040F01D04BF0D2
:103DF000040B14F4006F46D01AF0700A43D0BAF1E5
:103E0000300F48D02FD9BAF1500F47D0BAF1600F18
:103E100047D0BAF1400F31D14BF0400B2EE02B6868
:103E20000822DA602846FFF716FF97E72846FEF7D4
:103E300073FB9BE72B6808221A612846FFF70CFFEB
:103E4000A5E72846FEF7B8FBA9E72B6810225A60C1
:103E50002846FFF702FFA8E72B6808225A60284689
:103E6000FFF7FCFEA7E7BAF1100F05D0BAF1200F5B
:103E700004D14BF0100B01E04BF0080B2A6893695A
:103E800023F0700393612B6804225A60BBF1000F8A
:103E90000AD1BDE8F88F4BF0200BEFE74BF0800B19
:103EA000ECE74BF4807BE9E76B6A4BEA03036B6258
:103EB0002846FFF7D4FEECE7074AD36823F4E06313
:103EC0001B041B0C000200F4E060184340F0BF60CC
:103ED00040F40030D060704700ED00E030B4164B85
:103EE000DB68C3F30223C3F10704042C28BF0424B6
:103EF0001D1D062D17D9033B012505FA04F4013CCD
:103F00002140994005FA03F3013B1340194300286F
:103F10000BDB0901C9B200F1604000F5614080F897
:103F2000001330BC70470023E6E700F00F000901E2
:103F3000C9B2024B1954F4E700ED00E014ED00E0C3
:103F4000002808DB420900F01F00012303FA00F0FB
:103F5000014B43F82200704700E100E030B40568EF
:103F60002C6824F480242C60046863608368402BF0
:103F700005D0036899600368DA6030BC7047036855
:103F80009A600368D960F8E70268D3B2103B0B4926
:103F9000A1FB03131B090A49C95CC165032B06D8A1
:103FA00022F47F7222F003028265806D704722F452
:103FB0007F7222F0030204328265F6E7ABAAAAAA56
:103FC00048720008836A826992B9012B0AD01BB13A
:103FD000022B01D000207047C36A13F0807F2CD1E0
:103FE00000207047C36AB3F1C07F28D0002070471B
:103FF000B2F5005F05D0022B29D9032B15D0002084
:104000007047032B03D8DFE803F01C041C0A0020D0
:104010007047C36A13F0807F15D100207047C36AD0
:10402000B3F1C07F11D000207047C36A13F0807FC6
:1040300001D0012070470020704701207047012007
:104040007047012070470120704701207047012010
:104050007047000070B50446FFF74EFB002C5DD0A2
:104060000546002384F83430022384F83530226872
:10407000136823F00103136023681A6812F0010F1C
:104080000AD0FFF739FB401B0528F5D920236365CB
:10409000032084F8350070BD1A6821491140626818
:1040A000A0680243E068024320690243606902435A
:1040B000A0690243E0690243206A02430A43616A3D
:1040C000042916D01A602668756925F00705636A09
:1040D0001D43042B12D075612046FFF755FFE26D9A
:1040E0003F239340836000206065012384F83530CE
:1040F00070BDE16A206B01430A43E3E7A36A1D43F5
:10410000E36A002BE7D02046FFF75CFF0028E2D0EF
:1041100040236365012084F8350070BD012070BD27
:104120003F8010E000282ED038B5044690F8353096
:10413000DBB2022B01D1022038BD0268136823F0E4
:1041400001031360036800251D6003685D60036858
:104150009D600368DD6003681D61036821225A6168
:10416000FFF712FFE56325646564A564E5642565D2
:10417000E26D3F2393408360656584F8355084F891
:104180003450284638BD0120704738B590F8344087
:10419000012C1CD0012480F8344090F83540E4B262
:1041A000012C04D0002380F83430022038BD0546AD
:1041B000022085F8350000246C652846FFF7CEFE06
:1041C0002A68136843F001031360204638BD0220BB
:1041D00038BD38B5856D90F83440012C2CD00124C1
:1041E00080F8344090F83540E4B2012C04D000232C
:1041F00080F83430022038BD0446022084F83500AF
:10420000002060652046FFF7A9FEE26D3F23934042
:10421000AB602268136843F016031360236C23B16C
:104220002268136843F0080313602268136843F0A0
:1042300001031360002038BD022038BDF0B583B003
:10424000044600230193724B1D68724BA3FB053596
:10425000AD0A876D3E68C26D082393401E4210D0A0
:1042600003681A6812F0040F0BD01A6822F00402D7
:104270001A60C26D08239340BB60436D43F0010395
:104280004365E26D012393401E4209D022685269C2
:1042900012F0800F04D0BB60636D43F002036365CE
:1042A000E26D042393401E4209D02268126812F086
:1042B000020F04D0BB60636D43F004036365E26DDD
:1042C000102393401E4224D02268126812F0080F77
:1042D0001FD0BB6023681A6812F4802F0DD01B68B2
:1042E00013F4002F04D1236C9BB12046984710E0B3
:1042F000A36C73B1204698470BE01A6812F4807FD4
:1043000003D11A6822F008021A60236C0BB1204610
:104310009847E26D202393401E4255D022681268D0
:1043200012F0100F50D0BB6094F83530DBB2052B83
:104330000ED023681A6812F4802F33D01B6813F450
:10434000002F2AD1636C002B3ED0204698473BE0DB
:104350002268136823F0160313602268536923F060
:1043600080035361236CA3B12268136823F0080310
:104370001360E26D3F239340BB60002384F8343028
:10438000012384F83530236D002B3FD02046984719
:104390003CE0A36C002BE7D1EBE7E36BA3B1204635
:1043A000984711E01A6812F4807F09D11A6822F048
:1043B00010021A60002384F83430012384F8353069
:1043C000E36B0BB120469847636DFBB1636D13F04F
:1043D000010F17D0052384F835302268136823F0C5
:1043E00001031360019B013301939D4204D32368B1
:1043F0001B6813F0010FF5D1002384F8343001233A
:1044000084F83530E36C0BB12046984703B0F0BD1B
:1044100030040020B5814E1B00230F2B00F2DA8000
:10442000F0B583B09EE085684FEA430E032707FA94
:104430000EF725EA0705CE6806FA0EF635438560C5
:10444000456825EA02024D68C5F300159D402A43E0
:104450004260C6685F000322BA40D24316408D68AE
:10446000BD402E43C6604D68022D00F08D80122D98
:1044700000F08A8005682A404D6805F00305BD40BC
:104480002A4302604A6812F0805F68D000220192DD
:10449000514A556C45F480455564526C02F4804293
:1044A0000192019A9A08961C4C4D55F8265003F03B
:1044B00003064FEA860E0F2606FA0EF625EA0605D3
:1044C000474FB84278D0474EB04277D006F5806665
:1044D000B04275D006F58066B04273D006F58066AE
:1044E000B04271D006F58066B0426FD006F58066A6
:1044F000B0425FD0072606FA0EF635430232374E39
:1045000046F82250384A1568E24305EA02064F6829
:1045100017F4803F01D044EA0506334D2E606D68E4
:1045200002EA05064F6817F4003F01D044EA050689
:104530002D4D6E60AD6802EA05064F6817F4801FC6
:1045400001D044EA0506284DAE60ED682A404E6869
:1045500016F4001F01D044EA0502234CE260013347
:104560000F2B35D801229A400C681440A242F6D194
:104570004D686E1E012E7FF656AF112D3FF453AFDE
:10458000122D7FF466AF4EE74FEAD30C0CF1080C06
:1045900050F82C5003F0070E4FEA8E0E0F2606FA45
:1045A0000EF625EA06050E6906FA0EF6354340F8C2
:1045B0002C505FE706269EE700269CE701269AE737
:1045C000022698E7032696E7042694E7052692E755
:1045D00003B0F0BD704700BF003802400038014012
:1045E0000000024000040240003C0140F8B5314B9D
:1045F0009B6803F00C03042B59D0082B01D02E48E4
:10460000F8BD2C4B5A6802F03F025B6813F4800F30
:104610002AD0284B5B68C3F388131E4600275C0131
:104620000025E41A65EB0705A90141EA9461A001A0
:10463000001B61EB0501CB0043EA5073C400A019D5
:1046400043EB07014B0243EAD0534402204619468C
:104650000023FCF7ADFB174B5B68C3F30143013349
:104660005B00B0FBF3F0F8BD124B5B68C3F388133B
:104670001E4600275C010025E41A65EB0705A90129
:1046800041EA9461A001001B61EB0501CB0043EA04
:104690005073C400A01943EB07018B0243EA905307
:1046A0008402204619460023FCF782FBD3E7034827
:1046B000F8BD00BF003802400024F40000127A0068
:1046C000002800F09E8070B50446504B1B6803F034
:1046D0000F038B4209D2CBB24C4A1370136803F01C
:1046E0000F03994201D0012070BD236813F0020F1F
:1046F00017D013F0040F04D0454A936843F4E053F5
:104700009360236813F0080F04D0414A936843F480
:10471000604393603E4A936823F0F003A06803432C
:1047200093600D46236813F0010F32D06368012BAC
:1047300021D09A1E012A25D9354A126812F0020F9B
:1047400061D033498A6822F0030213438B60FEF77D
:10475000D3FF06462E4B9B6803F00C036268B3EB55
:10476000820F16D0FEF7C8FF801B41F288339842B3
:10477000F0D9032070BD264A126812F4003FE0D140
:10478000012070BD224A126812F0007FD9D10120A9
:1047900070BD1E4B1B6803F00F039D4209D2EAB2A5
:1047A0001A4B1A701B6803F00F039D4201D00120C1
:1047B00070BD236813F0040F06D0154A936823F4E4
:1047C000E053E1680B439360236813F0080F07D0B0
:1047D0000F4A936823F46043216943EAC10393605D
:1047E000FFF704FF0A4B9B68C3F30313094AD35C2A
:1047F000D840094B1860094B1868FEF779FA002079
:1048000070BD01207047012070BD00BF003C024018
:1048100000380240307100083004002040040020BD
:10482000014B1868704700BF3004002008B5FFF73F
:10483000F7FF044B9B68C3F38223034AD35CD84041
:1048400008BD00BF00380240407100080F2303601C
:104850000B4B9A6802F0030242609A6802F0F00281
:1048600082609A6802F4E052C2609B68DB0803F43D
:10487000E0530361034B1B6803F00F030B607047A9
:1048800000380240003C024070B582B00446036824
:1048900013F0010F3BD0A74B9B6803F00C03042BD4
:1048A0002CD0A44B9B6803F00C03082B21D0636829
:1048B000B3F5803F4FD0B3F5A02F52D09D4B1A686F
:1048C00022F480321A601A6822F480221A60636827
:1048D000002B50D0FEF710FF0546964B1B6813F4D3
:1048E000003F14D1FEF708FF401B6428F5D90320D0
:1048F0008AE1904B5B6813F4800FD8D08D4B1B6816
:1049000013F4003F03D06368002B00F07A81236822
:1049100013F0020F55D0874B9B6813F00C0F3ED05D
:10492000844B9B6803F00C03082B33D0E368002B07
:1049300068D00122804B1A60FEF7DEFE05467D4BF3
:104940001B6813F0020F54D1FEF7D6FE401B02285D
:10495000F5D9032058E1774A136843F48033136094
:10496000B5E7744B1A6842F480221A601A6842F460
:1049700080321A60ABE7FEF7BFFE05466D4B1B6841
:1049800013F4003FC3D0FEF7B7FE401B6428F5D9EF
:10499000032039E1674B5B6813F4800FC6D1654B88
:1049A0001B6813F0020F04D0E368012B01D0012033
:1049B0002AE1604A136823F0F803216943EAC1033E
:1049C0001360236813F0080F40D0636963B30122BA
:1049D0005A4B1A60FEF790FE0546564B5B6F13F07C
:1049E000020F33D1FEF788FE401B0228F5D90320C1
:1049F0000AE1504A136823F0F803216943EAC1032E
:104A00001360DEE700224C4B1A60FEF775FE054688
:104A1000484B1B6813F0020FD3D0FEF76DFE401B0E
:104A20000228F5D90320EFE00022444B1A60FEF77C
:104A300063FE05463F4B5B6F13F0020F06D0FEF797
:104A40005BFE401B0228F5D90320DDE0236813F04C
:104A5000040F78D0374B1B6C13F0805F33D10023E9
:104A60000193344B1A6C42F080521A641B6C03F0B1
:104A700080530193019B0125314B1B6813F4807F08
:104A800023D0A368012B34D0052B38D0294B1A6FC3
:104A900022F001021A671A6F22F004021A67A36853
:104AA000002B36D0FEF728FE0646224B1B6F13F074
:104AB000020F47D1FEF720FE801B41F28833984257
:104AC000F3D90320A0E00025D6E71D4A136843F47C
:104AD00080731360FEF710FE0646194B1B6813F433
:104AE000807FCED1FEF708FE801B0228F5D9032077
:104AF0008AE0104A136F43F001031367CFE70D4BB1
:104B00001A6F42F004021A671A6F42F001021A6724
:104B1000C5E7FEF7F1FD0646064B1B6F13F0020FCB
:104B200010D0FEF7E9FD801B41F288339842F3D99B
:104B3000032069E00038024000004742800E4742EF
:104B400000700040E5B9A369002B5CD0304A926840
:104B500002F00C02082A59D0022B17D000222D4B4C
:104B60001A60FEF7C9FD0446294B1B6813F0007F4D
:104B700045D0FEF7C1FD001B0228F5D9032043E014
:104B8000234A136C23F080531364DCE70022214B8B
:104B90001A60FEF7B1FD05461D4B1B6813F0007F40
:104BA00006D0FEF7A9FD401B0228F5D903202BE013
:104BB000E369226A1343626A43EA8213A26A5208D3
:104BC000013A43EA0243E26A43EA0263226B43EAA0
:104BD00002730F4A536001220E4B1A60FEF78CFDE0
:104BE00004460B4B1B6813F0007F06D1FEF784FDD3
:104BF000001B0228F5D9032006E0002004E0002075
:104C000002E0012000E0002002B070BD0120FBE7BF
:104C1000003802406000474230B4036A23F00103C9
:104C20000362036A4468826922F073020D682A43B2
:104C300023F002038D682B43114DA84211D005F5D6
:104C40008065A8420DD00E4DA84211D005F58065B3
:104C5000A8420DD0446082614A684263036230BC5E
:104C6000704723F00803CD682B4323F00403EAE7E1
:104C700024F440744D692C438D692C43EAE700BF4E
:104C80000000014030B4036A23F480730362036AB6
:104C90004468C26922F073020D682A4323F400734A
:104CA0008D6843EA0523134DA84211D005F58065B0
:104CB000A8420DD00F4DA84212D005F58065A8423C
:104CC0000ED04460C2614A68C263036230BC704760
:104CD00023F40063CD6843EA052323F48063E9E706
:104CE00024F440544D6944EA05148D6944EA0514DE
:104CF000E7E700BF0000014030B4036A23F48053AB
:104D00000362036A4468C26922F4E6420D6842EA1B
:104D1000052223F400538D6843EA0533094DA84268
:104D20000AD005F58065A84206D04460C2614A6891
:104D30000264036230BC704724F480444D6944EA45
:104D40008514F2E7000001407047022380F83D30EF
:104D50000268936803F00703062B03D0136843F03F
:104D600001031360012380F83D3000207047026882
:104D7000D36843F00103D3600268936803F007032C
:104D8000062B03D0136843F0010313600020704723
:104D90007047704770477047704710B50446036806
:104DA0001A6912F0020F11D0DA6812F0020F0DD05A
:104DB0006FF002021A610123037703689B6913F005
:104DC000030F70D0FFF7E6FF0023237723681A69EB
:104DD00012F0040F12D0DA6812F0040F0ED06FF048
:104DE00004021A610223237723689B6913F4407F2E
:104DF0005FD02046FFF7CEFF0023237723681A6990
:104E000012F0080F12D0DA6812F0080F0ED06FF00F
:104E100008021A61042323772368DB6913F0030F68
:104E20004ED02046FFF7B6FF0023237723681A6988
:104E300012F0100F12D0DA6812F0100F0ED06FF0CF
:104E400010021A61082323772368DB6913F4407F7B
:104E50003DD02046FFF79EFF0023237723681A6981
:104E600012F0010F03D0DA6812F0010F36D1236877
:104E70001A6912F0800F03D0DA6812F0800F34D173
:104E800023681A6912F0400F03D0DA6812F0400F5D
:104E900032D123681A6912F0200F03D0DA6812F0B9
:104EA000200F30D110BDFFF774FF2046FFF773FFCE
:104EB0008AE72046FFF76DFF2046FFF76CFF9BE770
:104EC0002046FFF766FF2046FFF765FFACE7204668
:104ED000FFF75FFF2046FFF75EFFBDE76FF00102BF
:104EE0001A612046FDF718FDC1E76FF080021A61D4
:104EF000204600F088F9C3E76FF040021A612046AF
:104F0000FFF74AFFC5E76FF020021A61204600F064
:104F100079F9C7E70368314A904212D0B0F1804F67
:104F20000FD0A2F57C4290420BD002F580629042F5
:104F300007D002F58062904203D002F57842904299
:104F400003D123F070034A681343244A90422AD0C5
:104F5000B0F1804F27D0A2F57C42904223D002F5D9
:104F6000806290421FD002F5806290421BD002F511
:104F70007842904217D002F57052904213D002F559
:104F8000806290420FD002F5806290420BD0A2F571
:104F90009832904207D002F58062904203D002F529
:104FA0008062904203D123F44073CA68134323F014
:104FB00080034A69134303608B68C3620B68836292
:104FC000064B984206D003F58063984202D0012335
:104FD000436170470B690363F9E700BF00000140BC
:104FE000A8B110B5044690F83D305BB1022384F8B7
:104FF0003D30211D2068FFF78DFF012384F83D30EF
:10500000002010BD80F83C30FFF79EFEEEE7012047
:105010007047A8B110B5044690F83D305BB102234B
:1050200084F83D30211D2068FFF774FF012384F8C8
:105030003D30002010BD80F83C30FFF7A9FEEEE7C0
:105040000120704730B4036A23F010030362036A3F
:105050004468826922F4E6420D6842EA052223F0A0
:1050600020038D6843EA0513124DA84211D005F5BF
:105070008065A8420DD00F4DA84212D005F580657D
:10508000A8420ED0446082614A688263036230BCE9
:10509000704723F08003CD6843EA051323F04003F3
:1050A000E9E724F440644D6944EA85048D6944EAE3
:1050B0008504E7E70000014038B590F83C30012B4B
:1050C00066D00D460446012380F83C30022380F868
:1050D0003D300C2A1AD8DFE802F0071919192019F7
:1050E00019193419191947000068FFF795FD22684E
:1050F000936943F0080393612268936923F00403E2
:1051000093612268936929690B439361012384F8B1
:105110003D30002084F83C0038BD0068FFF792FF66
:105120002268936943F4006393612268936923F4CE
:105130008063936122689369296943EA012393613B
:10514000E4E70068FFF79EFD2268D36943F0080397
:10515000D3612268D36923F00403D3612268D36941
:1051600029690B43D361D1E70068FFF7C5FD2268C9
:10517000D36943F40063D3612268D36923F4806365
:10518000D3612268D369296943EA0123D361BDE76A
:10519000022038BD10B401F01F01012303FA01F40D
:1051A000036A23EA04030362036A8A401343036227
:1051B0005DF8044B7047000010B5044601220068FA
:1051C000FFF7E8FF23680E4A934217D002F580628A
:1051D000934211D000221AB15A6C42F400425A6430
:1051E0002268936803F00703062B03D0136843F08B
:1051F00001031360002010BD0122ECE70122EAE761
:105200000000014070477047EFF305838BB9EFF35F
:10521000108313B9EFF311831BB10A4B1B68022BE8
:105220000AD0084B1B6853B90122064B1A600020B4
:1052300070476FF0050070476FF0050070474FF042
:10524000FF307047C806002008B5EFF30583A3B907
:10525000EFF3108313B9EFF311831BB10B4B1B68F2
:10526000022B0DD0094B1B68012B0CD10222074BDE
:105270001A6001F025F9002008BD6FF0050008BD97
:105280006FF0050008BD4FF0FF3008BDC8060020D4
:10529000F0B587B000240594EFF3058444BBEFF329
:1052A000108313B9EFF311831BB12D4B1B68022B35
:1052B0001ED0E8B14AB31668946904B91824631E75
:1052C000372B49D8536813F0010F47D1536993B175
:1052D0004FEA930E95682DB1D7685B2F02D91769F5
:1052E00007B1C3B955B14FF0FF35012D1AD02DB319
:1052F000059807B0F0BD4FF0800EEBE7D36863B9B7
:1053000013696BB14FF0FF35EFE7002518244FF01C
:10531000800E2E46E9E70125E7E74FF0FF35E4E789
:105320000025E2E7136992680292019300940B460C
:105330007246314601F056F80590D9E705AA019268
:1053400000940B461FFA8EF2314601F085F80128D1
:10535000CED000230593CBE70020CAE70020C8E7A2
:10536000C806002008B5EFF3058383B9EFF3108377
:1053700013B9EFF311831BB1084B1B68022B09D043
:1053800008B9002008BD01F001FA002008BD6FF047
:10539000050008BD6FF0050008BD00BFC80600206D
:1053A000034B0360034B0B6080231360704700BF07
:1053B0006C0600206C040020034B0360034B0B6061
:1053C0004FF4807313607047CC0A0020CC06002095
:1053D00000F1080343604FF0FF328260C360036155
:1053E00000230360704700230361704743684B60EC
:1053F0009A688A609A68516099600861036801330D
:105400000360704730B40D68B5F1FF3F02D000F182
:10541000080202E0026904E01A4653681C68A542CB
:10542000FAD253684B6099608A60516008610368E2
:105430000133036030BC7047036942688168916042
:105440008268416851605A68904206D00022026129
:105450001A68013A1A601868704782685A60F5E75E
:1054600082B0002301930D4B1B68B3F1FF3F08D0BE
:105470004FF0500383F31188BFF36F8FBFF34F8F4B
:10548000FEE74FF0500383F31188BFF36F8FBFF334
:105490004F8F019B002BFCD002B0704744040020CA
:1054A00008480068006880F308884FF0000080F327
:1054B000148862B661B6BFF34F8FBFF36F8F00DF02
:1054C00000BF000008ED00E0DFF80C00016841F4C7
:1054D000700101607047000088ED00E04FF08073BC
:1054E00040F8043C21F0010140F8081C054B40F84D
:1054F0000C3C40F8202C6FF0020340F8243C443868
:10550000704700BF61540008000000000000000068
:10551000074B19680868B0E8F04F80F30988BFF3BB
:105520006F8F4FF0000080F311887047AFF3008059
:10553000484700204FF0500383F31188BFF36F8F6B
:10554000BFF34F8F0A4A136801331360012B0DD14B
:10555000084B1B6813F0FF0F08D04FF0500383F384
:105560001188BFF36F8FBFF34F8FFEE7704700BF07
:105570004404002004ED00E0094B1B6843B94FF0E0
:10558000500383F31188BFF36F8FBFF34F8FFEE794
:10559000013B034A13600BB983F31188704700BFC6
:1055A0004404002000000000000000000000000093
:1055B000EFF30980BFF36F8F154B1A681EF0100FC1
:1055C00008BF20ED108A20E9F04F10602DE9090096
:1055D0004FF0500080F31188BFF34F8FBFF36F8FF0
:1055E00001F0FCF84FF0000080F3118809BC196845
:1055F0000868B0E8F04F1EF0100F08BFB0EC108A3A
:1056000080F30988BFF36F8F704700BFAFF300804E
:105610004847002008B54FF0500383F31188BFF3CB
:105620006F8FBFF34F8F00F0A7FF18B14FF080527C
:10563000024B1A60002383F3118808BD04ED00E0DB
:10564000084A0023136008490B60084B1B6808498F
:10565000A1FB03139B09013B06490B600723136061
:10566000704700BF10E000E018E000E030040020C8
:10567000D34D621014E000E03A4B1A683A4B9A425C
:1056800008D14FF0500383F31188BFF36F8FBFF33E
:105690004F8FFEE7334B1A68344B9A4208D14FF0D4
:1056A000500383F31188BFF36F8FBFF34F8FFEE773
:1056B00010B582B02E4B1A78D2B20192FF221A7026
:1056C0001B78DBB28DF803309DF8033003F05003F4
:1056D000284A13700722284B1A6009E0264A1368EB
:1056E000013B13609DF803305B00DBB28DF80330A3
:1056F0009DF8033013F0800FF0D11F4B1B68032B74
:1057000008D04FF0500383F31188BFF36F8FBFF3BE
:105710004F8FFEE71B0203F4E063174A1360019BFF
:10572000DBB2134A1370154B1A6842F470021A6008
:105730001A6842F070421A60FFF782FF0024104B93
:105740001C60FFF7C1FE0F4A136843F0404313602B
:10575000FFF7A6FE01F042F8FFF782FE204602B0F6
:1057600010BD00BF00ED00E071C20F4170C20F41DB
:1057700000E400E0280B00202C0B002020ED00E0CE
:105780004404002034EF00E0EFF305830F2B0FD922
:10579000104A9B5CDBB2104A1278934208D24FF059
:1057A000500383F31188BFF36F8FBFF34F8FFEE772
:1057B0000A4B1B6803F4E063094A1268934208D954
:1057C0004FF0500383F31188BFF36F8FBFF34F8FF8
:1057D000FEE77047F0E300E0280B00200CED00E04E
:1057E0002C0B0020124A12F0070F1ED0D11D21F001
:1057F0000701C1F5705313440A460E4802600021A8
:1058000041601344083B23F007030B4803605960D1
:105810001960991A51601360084B1960084B1960A0
:105820004FF00042074B1A6070474FF47053E4E7A3
:10583000340B002040470020300B00203C47002064
:10584000384700203447002010B4134B1A688242B6
:105850001BD359685C18A04203D1406801445960C9
:10586000184641684418A24213D10C4C2468A24245
:105870000DD05268114441601A6812680260984263
:1058800000D018605DF8044B70471346DEE70460F3
:10589000F5E70260F3E700BF40470020300B00202F
:1058A00070B5044600F05AFE3A4B1B68BBB13A4B48
:1058B0001B681C4263D1ACB1083414F0070F11D03F
:1058C00024F00704083404F007035BB14FF05003E1
:1058D00083F31188BFF36F8FBFF34F8FFEE7FFF79E
:1058E00081FFE4E7002C4CD02C4B1B689C424AD82B
:1058F0002B4B1D6801E02B4615466A68944202D97D
:105900002A68002AF7D1234A126895423DD01E68C2
:1059100008362A681A606B681B1B102B10D92819CF
:1059200010F0070F08D04FF0500383F31188BFF336
:105930006F8FBFF34F8FFEE743606C60FFF784FF0C
:105940006A6816490B689B1A0B60164909688B42F6
:1059500001D214490B60104B1B6813436B6000238A
:105960002B6000F095FE16F0070F10D04FF050039B
:1059700083F31188BFF36F8FBFF34F8FFEE70026CD
:10598000EFE70026EDE70026EBE70026E9E73046E3
:1059900070BD00BF300B0020344700203847002086
:1059A000404700203C47002080B338B50446A0F1B2
:1059B000080550F8042C164909680A4208D14FF02E
:1059C000500383F31188BFF36F8FBFF34F8FFEE750
:1059D00050F8080C40B14FF0500383F31188BFF327
:1059E0006F8FBFF34F8FFEE722EA010244F8042CC9
:1059F00000F0B4FD54F8041C064A13680B4413600D
:105A00002846FFF721FF00F043FE38BD704700BF76
:105A1000344700203847002010B50446FFF78AFDC0
:105A2000A26BE36B9A4204D00024FFF7A5FD204649
:105A300010BD0124F9E710B50446FFF77BFDA36B09
:105A400023B10024FFF798FD204610BD0124F9E79B
:105A500070B504461646856B026C4AB9036853BBA1
:105A6000806800F0E5FF0023A3600135A56370BDE9
:105A70006EB94068FAF74EFC226C636813446360A9
:105A8000A268934219D3236863600020EDE7C068E1
:105A9000FAF740FC236C5B42E2681A44E26021683A
:105AA0008A4202D2A2681344E360022E07D145B1B4
:105AB000013D0020D9E70020D7E70020D5E70020EE
:105AC000D3E70020D1E7026C72B110B50346C46879
:105AD0001444C4608068844201D31868D8600846C2
